{
  "_format": "hh-sol-artifact-1",
  "contractName": "CreatorKeys",
  "sourceName": "contracts/CreatorKeys.sol",
  "abi": [
    {
      "anonymous": false,
      "inputs": [
        {
          "indexed": false,
          "internalType": "uint8",
          "name": "version",
          "type": "uint8"
        }
      ],
      "name": "Initialized",
      "type": "event"
    },
    {
      "anonymous": false,
      "inputs": [
        {
          "indexed": true,
          "internalType": "address",
          "name": "previousOwner",
          "type": "address"
        },
        {
          "indexed": true,
          "internalType": "address",
          "name": "newOwner",
          "type": "address"
        }
      ],
      "name": "OwnershipTransferred",
      "type": "event"
    },
    {
      "anonymous": false,
      "inputs": [
        {
          "indexed": false,
          "internalType": "uint256",
          "name": "percent",
          "type": "uint256"
        }
      ],
      "name": "SetCreatorFeePercent",
      "type": "event"
    },
    {
      "anonymous": false,
      "inputs": [
        {
          "indexed": true,
          "internalType": "address",
          "name": "destination",
          "type": "address"
        }
      ],
      "name": "SetProtocolFeeDestination",
      "type": "event"
    },
    {
      "anonymous": false,
      "inputs": [
        {
          "indexed": false,
          "internalType": "uint256",
          "name": "percent",
          "type": "uint256"
        }
      ],
      "name": "SetProtocolFeePercent",
      "type": "event"
    },
    {
      "anonymous": false,
      "inputs": [
        {
          "indexed": true,
          "internalType": "address",
          "name": "trader",
          "type": "address"
        },
        {
          "indexed": true,
          "internalType": "address",
          "name": "creator",
          "type": "address"
        },
        {
          "indexed": true,
          "internalType": "bool",
          "name": "isBuy",
          "type": "bool"
        },
        {
          "indexed": false,
          "internalType": "uint256",
          "name": "amount",
          "type": "uint256"
        },
        {
          "indexed": false,
          "internalType": "uint256",
          "name": "price",
          "type": "uint256"
        },
        {
          "indexed": false,
          "internalType": "uint256",
          "name": "protocolFee",
          "type": "uint256"
        },
        {
          "indexed": false,
          "internalType": "uint256",
          "name": "creatorFee",
          "type": "uint256"
        },
        {
          "indexed": false,
          "internalType": "uint256",
          "name": "supply",
          "type": "uint256"
        }
      ],
      "name": "Trade",
      "type": "event"
    },
    {
      "inputs": [
        {
          "internalType": "address",
          "name": "creator",
          "type": "address"
        },
        {
          "internalType": "uint256",
          "name": "amount",
          "type": "uint256"
        }
      ],
      "name": "buyKeys",
      "outputs": [],
      "stateMutability": "payable",
      "type": "function"
    },
    {
      "inputs": [],
      "name": "creatorFeePercent",
      "outputs": [
        {
          "internalType": "uint256",
          "name": "",
          "type": "uint256"
        }
      ],
      "stateMutability": "view",
      "type": "function"
    },
    {
      "inputs": [
        {
          "internalType": "address",
          "name": "creator",
          "type": "address"
        },
        {
          "internalType": "uint256",
          "name": "amount",
          "type": "uint256"
        }
      ],
      "name": "getBuyPrice",
      "outputs": [
        {
          "internalType": "uint256",
          "name": "",
          "type": "uint256"
        }
      ],
      "stateMutability": "view",
      "type": "function"
    },
    {
      "inputs": [
        {
          "internalType": "address",
          "name": "creator",
          "type": "address"
        },
        {
          "internalType": "uint256",
          "name": "amount",
          "type": "uint256"
        }
      ],
      "name": "getBuyPriceAfterFee",
      "outputs": [
        {
          "internalType": "uint256",
          "name": "",
          "type": "uint256"
        }
      ],
      "stateMutability": "view",
      "type": "function"
    },
    {
      "inputs": [
        {
          "internalType": "uint256",
          "name": "supply",
          "type": "uint256"
        },
        {
          "internalType": "uint256",
          "name": "amount",
          "type": "uint256"
        }
      ],
      "name": "getPrice",
      "outputs": [
        {
          "internalType": "uint256",
          "name": "",
          "type": "uint256"
        }
      ],
      "stateMutability": "view",
      "type": "function"
    },
    {
      "inputs": [
        {
          "internalType": "address",
          "name": "creator",
          "type": "address"
        },
        {
          "internalType": "uint256",
          "name": "amount",
          "type": "uint256"
        }
      ],
      "name": "getSellPrice",
      "outputs": [
        {
          "internalType": "uint256",
          "name": "",
          "type": "uint256"
        }
      ],
      "stateMutability": "view",
      "type": "function"
    },
    {
      "inputs": [
        {
          "internalType": "address",
          "name": "creator",
          "type": "address"
        },
        {
          "internalType": "uint256",
          "name": "amount",
          "type": "uint256"
        }
      ],
      "name": "getSellPriceAfterFee",
      "outputs": [
        {
          "internalType": "uint256",
          "name": "",
          "type": "uint256"
        }
      ],
      "stateMutability": "view",
      "type": "function"
    },
    {
      "inputs": [
        {
          "internalType": "uint256",
          "name": "_baseDivider",
          "type": "uint256"
        },
        {
          "internalType": "address payable",
          "name": "_protocolFeeDestination",
          "type": "address"
        },
        {
          "internalType": "uint256",
          "name": "_protocolFeePercent",
          "type": "uint256"
        },
        {
          "internalType": "uint256",
          "name": "_creatorFeePercent",
          "type": "uint256"
        }
      ],
      "name": "initialize",
      "outputs": [],
      "stateMutability": "nonpayable",
      "type": "function"
    },
    {
      "inputs": [
        {
          "internalType": "address",
          "name": "",
          "type": "address"
        },
        {
          "internalType": "address",
          "name": "",
          "type": "address"
        }
      ],
      "name": "keysBalance",
      "outputs": [
        {
          "internalType": "uint256",
          "name": "",
          "type": "uint256"
        }
      ],
      "stateMutability": "view",
      "type": "function"
    },
    {
      "inputs": [
        {
          "internalType": "address",
          "name": "",
          "type": "address"
        }
      ],
      "name": "keysSupply",
      "outputs": [
        {
          "internalType": "uint256",
          "name": "",
          "type": "uint256"
        }
      ],
      "stateMutability": "view",
      "type": "function"
    },
    {
      "inputs": [],
      "name": "owner",
      "outputs": [
        {
          "internalType": "address",
          "name": "",
          "type": "address"
        }
      ],
      "stateMutability": "view",
      "type": "function"
    },
    {
      "inputs": [],
      "name": "protocolFeeDestination",
      "outputs": [
        {
          "internalType": "address payable",
          "name": "",
          "type": "address"
        }
      ],
      "stateMutability": "view",
      "type": "function"
    },
    {
      "inputs": [],
      "name": "protocolFeePercent",
      "outputs": [
        {
          "internalType": "uint256",
          "name": "",
          "type": "uint256"
        }
      ],
      "stateMutability": "view",
      "type": "function"
    },
    {
      "inputs": [],
      "name": "renounceOwnership",
      "outputs": [],
      "stateMutability": "nonpayable",
      "type": "function"
    },
    {
      "inputs": [
        {
          "internalType": "address",
          "name": "creator",
          "type": "address"
        },
        {
          "internalType": "uint256",
          "name": "amount",
          "type": "uint256"
        }
      ],
      "name": "sellKeys",
      "outputs": [],
      "stateMutability": "nonpayable",
      "type": "function"
    },
    {
      "inputs": [
        {
          "internalType": "uint256",
          "name": "_feePercent",
          "type": "uint256"
        }
      ],
      "name": "setCreatorFeePercent",
      "outputs": [],
      "stateMutability": "nonpayable",
      "type": "function"
    },
    {
      "inputs": [
        {
          "internalType": "address payable",
          "name": "_feeDestination",
          "type": "address"
        }
      ],
      "name": "setProtocolFeeDestination",
      "outputs": [],
      "stateMutability": "nonpayable",
      "type": "function"
    },
    {
      "inputs": [
        {
          "internalType": "uint256",
          "name": "_feePercent",
          "type": "uint256"
        }
      ],
      "name": "setProtocolFeePercent",
      "outputs": [],
      "stateMutability": "nonpayable",
      "type": "function"
    },
    {
      "inputs": [
        {
          "internalType": "address",
          "name": "newOwner",
          "type": "address"
        }
      ],
      "name": "transferOwnership",
      "outputs": [],
      "stateMutability": "nonpayable",
      "type": "function"
    }
  ],
  "bytecode": "0x608060405234801561001057600080fd5b50611138806100206000396000f3fe6080604052600436106101145760003560e01c80638da5cb5b116100a0578063ae4a452511610064578063ae4a4525146102e2578063d6e6eb9f14610302578063e575ab9614610318578063f2fde38b14610345578063fc255d651461036557600080fd5b80638da5cb5b146102445780639111ac89146102625780639ae7178114610282578063a10786b0146102a2578063a4983421146102c257600080fd5b806353613dd3116100e757806353613dd3146101c4578063592de11d146101da5780635cf4ee91146101ef5780636ff6c4b81461020f578063715018a61461022f57600080fd5b80630f026f6d146101195780632267a89c1461014c5780634635256e1461016c5780634ce7957c1461018c575b600080fd5b34801561012557600080fd5b50610139610134366004610f48565b61039d565b6040519081526020015b60405180910390f35b34801561015857600080fd5b50610139610167366004610f48565b610417565b34801561017857600080fd5b50610139610187366004610f48565b610485565b34801561019857600080fd5b506098546101ac906001600160a01b031681565b6040516001600160a01b039091168152602001610143565b3480156101d057600080fd5b50610139609a5481565b6101ed6101e8366004610f48565b6104af565b005b3480156101fb57600080fd5b5061013961020a366004610f74565b6104cf565b34801561021b57600080fd5b506101ed61022a366004610f96565b6105a7565b34801561023b57600080fd5b506101ed6105eb565b34801561025057600080fd5b506033546001600160a01b03166101ac565b34801561026e57600080fd5b506101ed61027d366004610f48565b6105ff565b34801561028e57600080fd5b5061013961029d366004610f48565b61061a565b3480156102ae57600080fd5b506101ed6102bd366004610faf565b610648565b3480156102ce57600080fd5b506101ed6102dd366004610f96565b61069a565b3480156102ee57600080fd5b506101ed6102fd366004610fcc565b6106d7565b34801561030e57600080fd5b5061013960995481565b34801561032457600080fd5b50610139610333366004610faf565b609c6020526000908152604090205481565b34801561035157600080fd5b506101ed610360366004610faf565b6108b5565b34801561037157600080fd5b50610139610380366004611009565b609b60209081526000928352604080842090915290825290205481565b6000806103aa8484610485565b90506000670de0b6b3a7640000609954836103c59190611058565b6103cf919061106f565b90506000670de0b6b3a7640000609a54846103ea9190611058565b6103f4919061106f565b9050806104018385611091565b61040b9190611091565b93505050505b92915050565b600080610424848461061a565b90506000670de0b6b3a76400006099548361043f9190611058565b610449919061106f565b90506000670de0b6b3a7640000609a54846104649190611058565b61046e919061106f565b90508061047b83856110a4565b61040b91906110a4565b6001600160a01b0382166000908152609c60205260408120546104a890836104cf565b9392505050565b60006104bb8383610485565b90506104ca838383600161092e565b505050565b60008060066104df856002611058565b6104ea906001611091565b6104f5866001611091565b6104ff9087611058565b6105099190611058565b610513919061106f565b9050600060066105238587611091565b61052e906002611058565b610539906001611091565b85610545886001611091565b61054f9190611091565b6105598789611091565b6105639190611058565b61056d9190611058565b610577919061106f565b9050600061058583836110a4565b60975490915061059d82670de0b6b3a7640000611058565b61040b919061106f565b6105af610c59565b609a8190556040518181527fcac5fb194ae0d660ab1b68f6561a22ab792ca0bbe87b5392c3ec528fc25a0c0f906020015b60405180910390a150565b6105f3610c59565b6105fd6000610cb3565b565b600061060b838361061a565b90506104ca838383600061092e565b6001600160a01b0382166000908152609c60205260408120546104a8906106429084906110a4565b836104cf565b610650610c59565b609880546001600160a01b0319166001600160a01b0383169081179091556040517f72fe3f5fb15c2671900303001fbe3a8adf9df5c76bfd269a9508c8753b9c35c990600090a250565b6106a2610c59565b60998190556040518181527f98d1698e9a7ee55a2ded97de72077c93add26ce8534679021d0e7c44edcb325b906020016105e0565b600054610100900460ff16158080156106f75750600054600160ff909116105b806107115750303b158015610711575060005460ff166001145b6107795760405162461bcd60e51b815260206004820152602e60248201527f496e697469616c697a61626c653a20636f6e747261637420697320616c72656160448201526d191e481a5b9a5d1a585b1a5e995960921b60648201526084015b60405180910390fd5b6000805460ff19166001179055801561079c576000805461ff0019166101001790555b6107a4610d05565b6107ac610d34565b6097859055609880546001600160a01b0319166001600160a01b0386169081179091556099849055609a8390556040517f72fe3f5fb15c2671900303001fbe3a8adf9df5c76bfd269a9508c8753b9c35c990600090a26040518381527f98d1698e9a7ee55a2ded97de72077c93add26ce8534679021d0e7c44edcb325b9060200160405180910390a16040518281527fcac5fb194ae0d660ab1b68f6561a22ab792ca0bbe87b5392c3ec528fc25a0c0f9060200160405180910390a180156108ae576000805461ff0019169055604051600181527f7f26b83ff96e1f2b6a682f133852f6798a09c465da95921460cefb38474024989060200160405180910390a15b5050505050565b6108bd610c59565b6001600160a01b0381166109225760405162461bcd60e51b815260206004820152602660248201527f4f776e61626c653a206e6577206f776e657220697320746865207a65726f206160448201526564647265737360d01b6064820152608401610770565b61092b81610cb3565b50565b610936610d63565b6000670de0b6b3a7640000609a548461094f9190611058565b610959919061106f565b90506000670de0b6b3a7640000609954856109749190611058565b61097e919061106f565b6001600160a01b0387166000908152609c60205260409020549091508315610acf57826109ab8387611091565b6109b59190611091565b3410156109fb5760405162461bcd60e51b8152602060048201526014602482015273125b9cdd59999a58da595b9d081c185e5b595b9d60621b6044820152606401610770565b6001600160a01b0387166000908152609b6020908152604080832033845290915281208054889290610a2e908490611091565b90915550610a3e90508682611091565b6001600160a01b038089166000908152609c60205260409020829055609854919250610a6b911683610dbc565b610a7e6001600160a01b03881684610dbc565b82610a898387611091565b610a939190611091565b341115610aca5760008383610aa888346110a4565b610ab291906110a4565b610abc91906110a4565b9050610ac83382610dbc565b505b610be6565b6001600160a01b0387166000908152609b60209081526040808320338452909152902054861115610b395760405162461bcd60e51b8152602060048201526014602482015273496e73756666696369656e742062616c616e636560601b6044820152606401610770565b6001600160a01b0387166000908152609b6020908152604080832033845290915281208054889290610b6c9084906110a4565b90915550610b7c905086826110a4565b6001600160a01b0388166000908152609c6020526040812082905590915083610ba584886110a4565b610baf91906110a4565b9050610bbb3382610dbc565b609854610bd1906001600160a01b031684610dbc565b610be46001600160a01b03891685610dbc565b505b60408051878152602081018790529081018390526060810184905260808101829052841515906001600160a01b0389169033907f2c76e7a47fd53e2854856ac3f0a5f3ee40d15cfaa82266357ea9779c486ab9c39060a00160405180910390a4505050610c536001606555565b50505050565b6033546001600160a01b031633146105fd5760405162461bcd60e51b815260206004820181905260248201527f4f776e61626c653a2063616c6c6572206973206e6f7420746865206f776e65726044820152606401610770565b603380546001600160a01b038381166001600160a01b0319831681179093556040519116919082907f8be0079c531659141344cd1fd0a4f28419497f9722a3daafe3b4186f6b6457e090600090a35050565b600054610100900460ff16610d2c5760405162461bcd60e51b8152600401610770906110b7565b6105fd610edc565b600054610100900460ff16610d5b5760405162461bcd60e51b8152600401610770906110b7565b6105fd610f0c565b600260655403610db55760405162461bcd60e51b815260206004820152601f60248201527f5265656e7472616e637947756172643a207265656e7472616e742063616c6c006044820152606401610770565b6002606555565b80471015610e0c5760405162461bcd60e51b815260206004820152601d60248201527f416464726573733a20696e73756666696369656e742062616c616e63650000006044820152606401610770565b6000826001600160a01b03168260405160006040518083038185875af1925050503d8060008114610e59576040519150601f19603f3d011682016040523d82523d6000602084013e610e5e565b606091505b50509050806104ca5760405162461bcd60e51b815260206004820152603a60248201527f416464726573733a20756e61626c6520746f2073656e642076616c75652c207260448201527f6563697069656e74206d617920686176652072657665727465640000000000006064820152608401610770565b6001606555565b600054610100900460ff16610f035760405162461bcd60e51b8152600401610770906110b7565b6105fd33610cb3565b600054610100900460ff16610ed55760405162461bcd60e51b8152600401610770906110b7565b6001600160a01b038116811461092b57600080fd5b60008060408385031215610f5b57600080fd5b8235610f6681610f33565b946020939093013593505050565b60008060408385031215610f8757600080fd5b50508035926020909101359150565b600060208284031215610fa857600080fd5b5035919050565b600060208284031215610fc157600080fd5b81356104a881610f33565b60008060008060808587031215610fe257600080fd5b843593506020850135610ff481610f33565b93969395505050506040820135916060013590565b6000806040838503121561101c57600080fd5b823561102781610f33565b9150602083013561103781610f33565b809150509250929050565b634e487b7160e01b600052601160045260246000fd5b808202811582820484141761041157610411611042565b60008261108c57634e487b7160e01b600052601260045260246000fd5b500490565b8082018082111561041157610411611042565b8181038181111561041157610411611042565b6020808252602b908201527f496e697469616c697a61626c653a20636f6e7472616374206973206e6f74206960408201526a6e697469616c697a696e6760a81b60608201526080019056fea2646970667358221220fae73b09986148e0f0d9bf4b9757ebf0a021fed7d1b2b82c1330b1fe61993aa064736f6c63430008170033",
  "linkReferences": {},
  "deployedLinkReferences": {}
}