{
  "_format": "hh-sol-artifact-1",
  "contractName": "CreatorTrade",
  "sourceName": "contracts/CreatorTrade.sol",
  "abi": [
    {
      "anonymous": false,
      "inputs": [],
      "name": "EndMigration",
      "type": "event"
    },
    {
      "anonymous": false,
      "inputs": [
        {
          "indexed": false,
          "internalType": "uint8",
          "name": "version",
          "type": "uint8"
        }
      ],
      "name": "Initialized",
      "type": "event"
    },
    {
      "anonymous": false,
      "inputs": [
        {
          "indexed": true,
          "internalType": "address",
          "name": "creator",
          "type": "address"
        },
        {
          "indexed": true,
          "internalType": "address",
          "name": "holder",
          "type": "address"
        },
        {
          "indexed": true,
          "internalType": "uint256",
          "name": "amount",
          "type": "uint256"
        }
      ],
      "name": "MigrateHolder",
      "type": "event"
    },
    {
      "anonymous": false,
      "inputs": [
        {
          "indexed": true,
          "internalType": "address",
          "name": "previousOwner",
          "type": "address"
        },
        {
          "indexed": true,
          "internalType": "address",
          "name": "newOwner",
          "type": "address"
        }
      ],
      "name": "OwnershipTransferred",
      "type": "event"
    },
    {
      "anonymous": false,
      "inputs": [
        {
          "indexed": false,
          "internalType": "uint256",
          "name": "percent",
          "type": "uint256"
        }
      ],
      "name": "SetCreatorFeePercent",
      "type": "event"
    },
    {
      "anonymous": false,
      "inputs": [
        {
          "indexed": true,
          "internalType": "address",
          "name": "oracle",
          "type": "address"
        }
      ],
      "name": "SetOracleAddress",
      "type": "event"
    },
    {
      "anonymous": false,
      "inputs": [
        {
          "indexed": true,
          "internalType": "address",
          "name": "destination",
          "type": "address"
        }
      ],
      "name": "SetProtocolFeeDestination",
      "type": "event"
    },
    {
      "anonymous": false,
      "inputs": [
        {
          "indexed": false,
          "internalType": "uint256",
          "name": "percent",
          "type": "uint256"
        }
      ],
      "name": "SetProtocolFeePercent",
      "type": "event"
    },
    {
      "anonymous": false,
      "inputs": [
        {
          "indexed": true,
          "internalType": "address",
          "name": "trader",
          "type": "address"
        },
        {
          "indexed": true,
          "internalType": "address",
          "name": "creator",
          "type": "address"
        },
        {
          "indexed": true,
          "internalType": "bool",
          "name": "isBuy",
          "type": "bool"
        },
        {
          "indexed": false,
          "internalType": "uint256",
          "name": "amount",
          "type": "uint256"
        },
        {
          "indexed": false,
          "internalType": "uint256",
          "name": "price",
          "type": "uint256"
        },
        {
          "indexed": false,
          "internalType": "uint256",
          "name": "protocolFee",
          "type": "uint256"
        },
        {
          "indexed": false,
          "internalType": "uint256",
          "name": "creatorFee",
          "type": "uint256"
        },
        {
          "indexed": false,
          "internalType": "uint256",
          "name": "additionalFee",
          "type": "uint256"
        },
        {
          "indexed": false,
          "internalType": "uint256",
          "name": "supply",
          "type": "uint256"
        }
      ],
      "name": "Trade",
      "type": "event"
    },
    {
      "inputs": [
        {
          "internalType": "address",
          "name": "",
          "type": "address"
        },
        {
          "internalType": "address",
          "name": "",
          "type": "address"
        }
      ],
      "name": "balance",
      "outputs": [
        {
          "internalType": "uint256",
          "name": "",
          "type": "uint256"
        }
      ],
      "stateMutability": "view",
      "type": "function"
    },
    {
      "inputs": [
        {
          "internalType": "address",
          "name": "creator",
          "type": "address"
        },
        {
          "internalType": "uint256",
          "name": "amount",
          "type": "uint256"
        },
        {
          "internalType": "bytes",
          "name": "oracleSignature",
          "type": "bytes"
        }
      ],
      "name": "buy",
      "outputs": [],
      "stateMutability": "payable",
      "type": "function"
    },
    {
      "inputs": [
        {
          "internalType": "uint256",
          "name": "price",
          "type": "uint256"
        },
        {
          "internalType": "bytes",
          "name": "oracleSignature",
          "type": "bytes"
        }
      ],
      "name": "calculateAdditionalTokenOwnerFee",
      "outputs": [
        {
          "internalType": "uint256",
          "name": "",
          "type": "uint256"
        }
      ],
      "stateMutability": "view",
      "type": "function"
    },
    {
      "inputs": [],
      "name": "creatorFeePercent",
      "outputs": [
        {
          "internalType": "uint256",
          "name": "",
          "type": "uint256"
        }
      ],
      "stateMutability": "view",
      "type": "function"
    },
    {
      "inputs": [],
      "name": "endMigration",
      "outputs": [],
      "stateMutability": "nonpayable",
      "type": "function"
    },
    {
      "inputs": [
        {
          "internalType": "address",
          "name": "creator",
          "type": "address"
        },
        {
          "internalType": "uint256",
          "name": "amount",
          "type": "uint256"
        }
      ],
      "name": "getBuyPrice",
      "outputs": [
        {
          "internalType": "uint256",
          "name": "",
          "type": "uint256"
        }
      ],
      "stateMutability": "view",
      "type": "function"
    },
    {
      "inputs": [
        {
          "internalType": "address",
          "name": "creator",
          "type": "address"
        },
        {
          "internalType": "uint256",
          "name": "amount",
          "type": "uint256"
        }
      ],
      "name": "getBuyPriceAfterFee",
      "outputs": [
        {
          "internalType": "uint256",
          "name": "",
          "type": "uint256"
        }
      ],
      "stateMutability": "view",
      "type": "function"
    },
    {
      "inputs": [
        {
          "internalType": "uint256",
          "name": "_supply",
          "type": "uint256"
        },
        {
          "internalType": "uint256",
          "name": "amount",
          "type": "uint256"
        }
      ],
      "name": "getPrice",
      "outputs": [
        {
          "internalType": "uint256",
          "name": "",
          "type": "uint256"
        }
      ],
      "stateMutability": "view",
      "type": "function"
    },
    {
      "inputs": [
        {
          "internalType": "address",
          "name": "creator",
          "type": "address"
        },
        {
          "internalType": "uint256",
          "name": "amount",
          "type": "uint256"
        }
      ],
      "name": "getSellPrice",
      "outputs": [
        {
          "internalType": "uint256",
          "name": "",
          "type": "uint256"
        }
      ],
      "stateMutability": "view",
      "type": "function"
    },
    {
      "inputs": [
        {
          "internalType": "address",
          "name": "creator",
          "type": "address"
        },
        {
          "internalType": "uint256",
          "name": "amount",
          "type": "uint256"
        }
      ],
      "name": "getSellPriceAfterFee",
      "outputs": [
        {
          "internalType": "uint256",
          "name": "",
          "type": "uint256"
        }
      ],
      "stateMutability": "view",
      "type": "function"
    },
    {
      "inputs": [
        {
          "internalType": "uint256",
          "name": "_baseDivider",
          "type": "uint256"
        },
        {
          "internalType": "address payable",
          "name": "_protocolFeeDestination",
          "type": "address"
        },
        {
          "internalType": "uint256",
          "name": "_protocolFeePercent",
          "type": "uint256"
        },
        {
          "internalType": "uint256",
          "name": "_creatorFeePercent",
          "type": "uint256"
        }
      ],
      "name": "initialize",
      "outputs": [],
      "stateMutability": "nonpayable",
      "type": "function"
    },
    {
      "inputs": [
        {
          "internalType": "address",
          "name": "creator",
          "type": "address"
        },
        {
          "internalType": "address[]",
          "name": "holders",
          "type": "address[]"
        },
        {
          "internalType": "uint256[]",
          "name": "amounts",
          "type": "uint256[]"
        }
      ],
      "name": "migrateFromV1",
      "outputs": [],
      "stateMutability": "nonpayable",
      "type": "function"
    },
    {
      "inputs": [],
      "name": "migratedFromV1",
      "outputs": [
        {
          "internalType": "bool",
          "name": "",
          "type": "bool"
        }
      ],
      "stateMutability": "view",
      "type": "function"
    },
    {
      "inputs": [],
      "name": "oracleAddress",
      "outputs": [
        {
          "internalType": "address",
          "name": "",
          "type": "address"
        }
      ],
      "stateMutability": "view",
      "type": "function"
    },
    {
      "inputs": [],
      "name": "owner",
      "outputs": [
        {
          "internalType": "address",
          "name": "",
          "type": "address"
        }
      ],
      "stateMutability": "view",
      "type": "function"
    },
    {
      "inputs": [],
      "name": "protocolFeeDestination",
      "outputs": [
        {
          "internalType": "address payable",
          "name": "",
          "type": "address"
        }
      ],
      "stateMutability": "view",
      "type": "function"
    },
    {
      "inputs": [],
      "name": "protocolFeePercent",
      "outputs": [
        {
          "internalType": "uint256",
          "name": "",
          "type": "uint256"
        }
      ],
      "stateMutability": "view",
      "type": "function"
    },
    {
      "inputs": [],
      "name": "renounceOwnership",
      "outputs": [],
      "stateMutability": "nonpayable",
      "type": "function"
    },
    {
      "inputs": [
        {
          "internalType": "address",
          "name": "creator",
          "type": "address"
        },
        {
          "internalType": "uint256",
          "name": "amount",
          "type": "uint256"
        },
        {
          "internalType": "bytes",
          "name": "oracleSignature",
          "type": "bytes"
        }
      ],
      "name": "sell",
      "outputs": [],
      "stateMutability": "nonpayable",
      "type": "function"
    },
    {
      "inputs": [
        {
          "internalType": "uint256",
          "name": "_feePercent",
          "type": "uint256"
        }
      ],
      "name": "setCreatorFeePercent",
      "outputs": [],
      "stateMutability": "nonpayable",
      "type": "function"
    },
    {
      "inputs": [
        {
          "internalType": "address",
          "name": "_oracle",
          "type": "address"
        }
      ],
      "name": "setOracleAddress",
      "outputs": [],
      "stateMutability": "nonpayable",
      "type": "function"
    },
    {
      "inputs": [
        {
          "internalType": "address payable",
          "name": "_feeDestination",
          "type": "address"
        }
      ],
      "name": "setProtocolFeeDestination",
      "outputs": [],
      "stateMutability": "nonpayable",
      "type": "function"
    },
    {
      "inputs": [
        {
          "internalType": "uint256",
          "name": "_feePercent",
          "type": "uint256"
        }
      ],
      "name": "setProtocolFeePercent",
      "outputs": [],
      "stateMutability": "nonpayable",
      "type": "function"
    },
    {
      "inputs": [
        {
          "internalType": "address",
          "name": "",
          "type": "address"
        }
      ],
      "name": "supply",
      "outputs": [
        {
          "internalType": "uint256",
          "name": "",
          "type": "uint256"
        }
      ],
      "stateMutability": "view",
      "type": "function"
    },
    {
      "inputs": [
        {
          "internalType": "address",
          "name": "newOwner",
          "type": "address"
        }
      ],
      "name": "transferOwnership",
      "outputs": [],
      "stateMutability": "nonpayable",
      "type": "function"
    },
    {
      "stateMutability": "payable",
      "type": "receive"
    }
  ],
  "bytecode": "0x60806040523461002057610011610025565b61327262000031823961327290f35b61002b565b60405190565b600080fdfe60806040526004361015610015575b36610e1f57005b6100206000356101af565b80630f026f6d146101aa57806319ae58f0146101a557806319f4d6b7146101a05780632267a89c1461019b57806340bace48146101965780634635256e146101915780634c69c00f1461018c5780634ce7957c1461018757806353613dd3146101825780635cf4ee911461017d5780636c525d04146101785780636ff6c4b814610173578063715018a61461016e5780638da5cb5b1461016957806391ee3e08146101645780639ae717811461015f578063a10786b01461015a578063a498342114610155578063a89ae4ba14610150578063ae4a45251461014b578063b1a491e014610146578063b203bb9914610141578063d6e6eb9f1461013c578063f2fde38b146101375763f496a6100361000e57610df5565b610dc2565b610d8d565b610d47565b610ca9565b610c2c565b610bb0565b610b3c565b610b09565b610a90565b610a5c565b61088a565b610834565b610801565b6107af565b610779565b610716565b6106d1565b61062e565b6105f8565b6105c3565b610519565b6104e5565b610368565b61027d565b60e01c90565b60405190565b600080fd5b600080fd5b600080fd5b60018060a01b031690565b6101de906101ca565b90565b6101ea816101d5565b036101f157565b600080fd5b90503590610203826101e1565b565b90565b61021181610205565b0361021857565b600080fd5b9050359061022a82610208565b565b9190604083820312610255578061024961025292600086016101f6565b9360200161021d565b90565b6101c0565b61026390610205565b9052565b919061027b9060006020850194019061025a565b565b346102ae576102aa61029961029336600461022c565b90610f17565b6102a16101b5565b91829182610267565b0390f35b6101bb565b906020828203126102cd576102ca916000016101f6565b90565b6101c0565b90565b6102e96102e46102ee926101ca565b6102d2565b6101ca565b90565b6102fa906102d5565b90565b610306906102f1565b90565b90610313906102fd565b600052602052604060002090565b1c90565b90565b61033890600861033d9302610321565b610325565b90565b9061034b9154610328565b90565b61036590610360609d91600092610309565b610340565b90565b346103985761039461038361037e3660046102b3565b61034e565b61038b6101b5565b91829182610267565b0390f35b6101bb565b600080fd5b600080fd5b601f801991011690565b634e487b7160e01b600052604160045260246000fd5b906103d1906103a7565b810190811067ffffffffffffffff8211176103eb57604052565b6103b1565b906104036103fc6101b5565b92836103c7565b565b67ffffffffffffffff81116104235761041f6020916103a7565b0190565b6103b1565b90826000939282370152565b9092919261044961044482610405565b6103f0565b938185526020850190828401116104655761046392610428565b565b6103a2565b9080601f830112156104885781602061048593359101610434565b90565b61039d565b916060838303126104da576104a582600085016101f6565b926104b3836020830161021d565b92604082013567ffffffffffffffff81116104d5576104d2920161046a565b90565b6101c5565b6101c0565b60000190565b34610514576104fe6104f836600461048d565b91610f9a565b6105066101b5565b80610510816104df565b0390f35b6101bb565b3461054a5761054661053561052f36600461022c565b90610fdc565b61053d6101b5565b91829182610267565b0390f35b6101bb565b600091031261055a57565b6101c0565b60ff1690565b61057590600861057a9302610321565b61055f565b90565b906105889154610565565b90565b610598609e60009061057d565b90565b151590565b6105a99061059b565b9052565b91906105c1906000602085019401906105a0565b565b346105f3576105d336600461054f565b6105ef6105de61058b565b6105e66101b5565b918291826105ad565b0390f35b6101bb565b346106295761062561061461060e36600461022c565b9061105f565b61061c6101b5565b91829182610267565b0390f35b6101bb565b3461065c576106466106413660046102b3565b61112b565b61064e6101b5565b80610658816104df565b0390f35b6101bb565b60018060a01b031690565b61067c9060086106819302610321565b610661565b90565b9061068f915461066c565b90565b61069f6098600090610684565b90565b6106ab906101ca565b90565b6106b7906106a2565b9052565b91906106cf906000602085019401906106ae565b565b34610701576106e136600461054f565b6106fd6106ec610692565b6106f46101b5565b918291826106bb565b0390f35b6101bb565b610713609b600090610340565b90565b346107465761072636600461054f565b610742610731610706565b6107396101b5565b91829182610267565b0390f35b6101bb565b91906040838203126107745780610768610771926000860161021d565b9360200161021d565b90565b6101c0565b346107aa576107a661079561078f36600461074b565b90611193565b61079d6101b5565b91829182610267565b0390f35b6101bb565b346107dd576107bf36600461054f565b6107c761141a565b6107cf6101b5565b806107d9816104df565b0390f35b6101bb565b906020828203126107fc576107f99160000161021d565b90565b6101c0565b3461082f576108196108143660046107e2565b6114d3565b6108216101b5565b8061082b816104df565b0390f35b6101bb565b346108625761084436600461054f565b61084c61152f565b6108546101b5565b8061085e816104df565b0390f35b6101bb565b610870906101d5565b9052565b919061088890600060208501940190610867565b565b346108ba5761089a36600461054f565b6108b66108a561155f565b6108ad6101b5565b91829182610874565b0390f35b6101bb565b67ffffffffffffffff81116108d75760208091020190565b6103b1565b600080fd5b909291926108f66108f1826108bf565b6103f0565b938185526020808601920283019281841161093357915b83831061091a5750505050565b6020809161092884866101f6565b81520192019161090d565b6108dc565b9080601f8301121561095657816020610953933591016108e1565b90565b61039d565b67ffffffffffffffff81116109735760208091020190565b6103b1565b9092919261098d6109888261095b565b6103f0565b93818552602080860192028301928184116109ca57915b8383106109b15750505050565b602080916109bf848661021d565b8152019201916109a4565b6108dc565b9080601f830112156109ed578160206109ea93359101610978565b90565b61039d565b91606083830312610a5757610a0a82600085016101f6565b92602081013567ffffffffffffffff8111610a525783610a2b918301610938565b92604082013567ffffffffffffffff8111610a4d57610a4a92016109cf565b90565b6101c5565b6101c5565b6101c0565b34610a8b57610a75610a6f3660046109f2565b916118df565b610a7d6101b5565b80610a87816104df565b0390f35b6101bb565b34610ac157610abd610aac610aa636600461022c565b906118ec565b610ab46101b5565b91829182610267565b0390f35b6101bb565b610acf816106a2565b03610ad657565b600080fd5b90503590610ae882610ac6565b565b90602082820312610b0457610b0191600001610adb565b90565b6101c0565b34610b3757610b21610b1c366004610aea565b6119c5565b610b296101b5565b80610b33816104df565b0390f35b6101bb565b34610b6a57610b54610b4f3660046107e2565b611a29565b610b5c6101b5565b80610b66816104df565b0390f35b6101bb565b60018060a01b031690565b610b8a906008610b8f9302610321565b610b6f565b90565b90610b9d9154610b7a565b90565b610bad609a600090610b92565b90565b34610be057610bc036600461054f565b610bdc610bcb610ba0565b610bd36101b5565b91829182610874565b0390f35b6101bb565b608081830312610c2757610bfc826000830161021d565b92610c24610c0d8460208501610adb565b93610c1b816040860161021d565b9360600161021d565b90565b6101c0565b34610c5e57610c48610c3f366004610be5565b92919091611e10565b610c506101b5565b80610c5a816104df565b0390f35b6101bb565b919091604081840312610ca457610c7d836000830161021d565b92602082013567ffffffffffffffff8111610c9f57610c9c920161046a565b90565b6101c5565b6101c0565b34610cda57610cd6610cc5610cbf366004610c63565b90611f69565b610ccd6101b5565b91829182610267565b0390f35b6101bb565b9190604083820312610d085780610cfc610d0592600086016101f6565b936020016101f6565b90565b6101c0565b90610d17906102fd565b600052602052604060002090565b610d3f610d4492610d3a609c93600094610d0d565b610309565b610340565b90565b34610d7857610d74610d63610d5d366004610cdf565b90610d25565b610d6b6101b5565b91829182610267565b0390f35b6101bb565b610d8a6099600090610340565b90565b34610dbd57610d9d36600461054f565b610db9610da8610d7d565b610db06101b5565b91829182610267565b0390f35b6101bb565b34610df057610dda610dd53660046102b3565b612152565b610de26101b5565b80610dec816104df565b0390f35b6101bb565b610e09610e0336600461048d565b9161215d565b610e116101b5565b80610e1b816104df565b0390f35b600080fd5b600090565b60001c90565b610e3b610e4091610e29565b610325565b90565b610e4d9054610e2f565b90565b634e487b7160e01b600052601160045260246000fd5b610e75610e7b91939293610205565b92610205565b91610e87838202610205565b928184041490151715610e9657565b610e50565b90565b610eb2610ead610eb792610e9b565b6102d2565b610205565b90565b634e487b7160e01b600052601260045260246000fd5b610edc610ee291610205565b91610205565b908115610eed570490565b610eba565b610f01610f0791939293610205565b92610205565b8201809211610f1257565b610e50565b610f9791610f2d91610f27610e24565b5061105f565b610f92610f5e610f4783610f416099610e43565b90610e66565b610f58670de0b6b3a7640000610e9e565b90610ed0565b610f8c610f7584610f6f609b610e43565b90610e66565b610f86670de0b6b3a7640000610e9e565b90610ed0565b92610ef2565b610ef2565b90565b91610fb592610faa8184906118ec565b909260009293612612565b565b610fc6610fcc91939293610205565b92610205565b8203918211610fd757565b610e50565b61105c91610ff291610fec610e24565b506118ec565b61105761102361100c836110066099610e43565b90610e66565b61101d670de0b6b3a7640000610e9e565b90610ed0565b61105161103a84611034609b610e43565b90610e66565b61104b670de0b6b3a7640000610e9e565b90610ed0565b92610fb7565b610fb7565b90565b9061107f61107a61108493611072610e24565b50609d610309565b610e43565b611193565b90565b611098906110936126a4565b6110de565b565b60001b90565b906110b160018060a01b039161109a565b9181191691161790565b90565b906110d36110ce6110da926102fd565b6110bb565b82546110a0565b9055565b6110e981609a6110be565b6111137f0adef86c673dfdb102affe9a454acea4a42a305e1feb982b4b2c97da980454a9916102fd565b9061111c6101b5565b80611126816104df565b0390a2565b61113490611087565b565b90565b61114d61114861115292611136565b6102d2565b610205565b90565b90565b61116c61116761117192611155565b6102d2565b610205565b90565b90565b61118b61118661119092611174565b6102d2565b610205565b90565b61128c6112a3916112876112776112b3956111ac610e24565b506112716112616112146112046111d7886111d18a6111cb6001611139565b90610ef2565b90610e66565b6111fe6111ee60026111e98c91611158565b610e66565b6111f86001611139565b90610ef2565b90610e66565b61120e6006611177565b90610ed0565b9561125c61125661124d611229848890610ef2565b6112476112408661123a6001611139565b90610ef2565b8990610ef2565b90610e66565b95600293610ef2565b91611158565b610e66565b61126b6001611139565b90610ef2565b90610e66565b6112816006611177565b90610ed0565b610fb7565b61129d670de0b6b3a7640000610e9e565b90610e66565b6112ad6097610e43565b90610ed0565b90565b6112be6126a4565b6112c66113bb565b565b6112d46112d991610e29565b61055f565b90565b6112e690546112c8565b90565b60209181520190565b60007f4d6967726174696f6e20616c726561647920656e646564000000000000000000910152565b61132760176020926112e9565b611330816112f2565b0190565b61134a906020810190600081830391015261131a565b90565b1561135457565b61135c6101b5565b62461bcd60e51b81528061137260048201611334565b0390fd5b9061138260ff9161109a565b9181191691161790565b6113959061059b565b90565b90565b906113b06113ab6113b79261138c565b611398565b8254611376565b9055565b6113d66113d16113cb609e6112dc565b1561059b565b61134d565b6113e26001609e61139b565b7f16cace72ad40bd23c9e04c798148013b99adcc741ff2f667c2bedbc81141458b61140b6101b5565b80611415816104df565b0390a1565b6114226112b6565b565b611435906114306126a4565b61148d565b565b906114446000199161109a565b9181191691161790565b61146261145d61146792610205565b6102d2565b610205565b90565b90565b9061148261147d6114899261144e565b61146a565b8254611437565b9055565b61149881609b61146d565b6114ce7fcac5fb194ae0d660ab1b68f6561a22ab792ca0bbe87b5392c3ec528fc25a0c0f916114c56101b5565b91829182610267565b0390a1565b6114dc90611424565b565b6114e66126a4565b6114ee61151b565b565b90565b61150761150261150c926114f0565b6102d2565b6101ca565b90565b611518906114f3565b90565b61152d611528600061150f565b6126d0565b565b6115376114de565b565b600090565b61154a61154f91610e29565b610b6f565b90565b61155c905461153e565b90565b611567611539565b506115726033611552565b90565b9061158892916115836126a4565b611735565b565b60007f416c7265616479206d6967726174656400000000000000000000000000000000910152565b6115bf60106020926112e9565b6115c88161158a565b0190565b6115e290602081019060008183039101526115b2565b90565b156115ec57565b6115f46101b5565b62461bcd60e51b81528061160a600482016115cc565b0390fd5b5190565b5190565b60007f496e76616c696420696e70757400000000000000000000000000000000000000910152565b61164b600d6020926112e9565b61165481611616565b0190565b61166e906020810190600081830391015261163e565b90565b1561167857565b6116806101b5565b62461bcd60e51b81528061169660048201611658565b0390fd5b6116ae6116a96116b3926114f0565b6102d2565b610205565b90565b60016116c29101610205565b90565b634e487b7160e01b600052603260045260246000fd5b906116e582611612565b8110156116f6576020809102010190565b6116c5565b6117059051610205565b90565b906117128261160e565b811015611723576020809102010190565b6116c5565b61173290516101d5565b90565b929161175261174d611747609e6112dc565b1561059b565b6115e5565b61177e61175e8361160e565b61177861177261176d85611612565b610205565b91610205565b14611671565b611786610e24565b611790600061169a565b905b816117ad6117a76117a28761160e565b610205565b91610205565b10156118af576118296118a9916118106117d06117cb8787906116db565b6116fb565b61180a6117fb6117e2609c8d90610d0d565b6117f56117f08c8b90611708565b611728565b90610309565b9161180583610e43565b610ef2565b9061146d565b61182361181e8686906116db565b6116fb565b90610ef2565b918661183e611839878490611708565b611728565b61185161184c8785906116db565b6116fb565b9061188e6118886118827fe53177345d8dc98ab1205ebcd15944417ef4baa3f9f25486d6858e886eced5ce956102fd565b926102fd565b9261144e565b926118976101b5565b806118a1816104df565b0390a46116b6565b90611792565b6118dd949593506118d792506118c8915092609d610309565b916118d283610e43565b610ef2565b9061146d565b565b906118ea9291611575565b565b9061191661190f61190a61191b94611902610e24565b50609d610309565b610e43565b8290610fb7565b611193565b90565b61192f9061192a6126a4565b611978565b565b61193a906102d5565b90565b61194690611931565b90565b90565b9061196161195c6119689261193d565b611949565b82546110a0565b9055565b611975906102f1565b90565b61198381609861194c565b6119ad7f72fe3f5fb15c2671900303001fbe3a8adf9df5c76bfd269a9508c8753b9c35c99161196c565b906119b66101b5565b806119c0816104df565b0390a2565b6119ce9061191e565b565b6119e1906119dc6126a4565b6119e3565b565b6119ee81609961146d565b611a247f98d1698e9a7ee55a2ded97de72077c93add26ce8534679021d0e7c44edcb325b91611a1b6101b5565b91829182610267565b0390a1565b611a32906119d0565b565b60081c90565b611a46611a4b91611a34565b61055f565b90565b611a589054611a3a565b90565b60ff1690565b611a6d611a7291610e29565b611a5b565b90565b611a7f9054611a61565b90565b60ff1690565b611a9c611a97611aa192611136565b6102d2565b611a82565b90565b611aad906102f1565b90565b60207f647920696e697469616c697a6564000000000000000000000000000000000000917f496e697469616c697a61626c653a20636f6e747261637420697320616c72656160008201520152565b611b0b602e6040926112e9565b611b1481611ab0565b0190565b611b2e9060208101906000818303910152611afe565b90565b15611b3857565b611b406101b5565b62461bcd60e51b815280611b5660048201611b18565b0390fd5b611b6e611b69611b7392611a82565b6102d2565b611a82565b90565b90565b90611b8e611b89611b9592611b5a565b611b76565b8254611376565b9055565b60081b90565b90611bac61ff0091611b99565b9181191691161790565b90611bcb611bc6611bd29261138c565b611398565b8254611b9f565b9055565b611bdf90611a88565b9052565b9190611bf790600060208501940190611bd6565b565b929091611c4a92611c13611c0d6000611a4e565b1561059b565b948580611cfc575b8015611cad575b611c2b90611b31565b611c3f611c386001611a88565b6000611b79565b85611c9c575b611d20565b611c51575b565b611c5c600080611bb6565b6001611c947f7f26b83ff96e1f2b6a682f133852f6798a09c465da95921460cefb384740249891611c8b6101b5565b91829182611be3565b0390a1611c4f565b611ca860016000611bb6565b611c45565b50611cc8611cc2611cbd30611aa4565b612736565b1561059b565b80611cd3575b611c22565b50611c2b611ce16000611a75565b611cf4611cee6001611a88565b91611a82565b149050611cce565b50611d076000611a75565b611d1a611d146001611a88565b91611a82565b10611c1b565b611d3b90611d2c612827565b611d34612857565b609761146d565b611d4681609861194c565b611d5182609961146d565b611d5c83609b61146d565b611d867f72fe3f5fb15c2671900303001fbe3a8adf9df5c76bfd269a9508c8753b9c35c99161196c565b90611d8f6101b5565b80611d99816104df565b0390a2611dd27f98d1698e9a7ee55a2ded97de72077c93add26ce8534679021d0e7c44edcb325b91611dc96101b5565b91829182610267565b0390a1611e0b7fcac5fb194ae0d660ab1b68f6561a22ab792ca0bbe87b5392c3ec528fc25a0c0f91611e026101b5565b91829182610267565b0390a1565b90611e1c939291611bf9565b565b5190565b90565b611e31611e3691610205565b611e22565b9052565b602081611e4c611e5493839695611e25565b018092611e25565b0190565b60200190565b90565b60007f50616c3a20496e76616c696420646174612070726f7669646564000000000000910152565b611e96601a6020926112e9565b611e9f81611e61565b0190565b611eb99060208101906000818303910152611e89565b90565b15611ec357565b611ecb6101b5565b62461bcd60e51b815280611ee160048201611ea3565b0390fd5b60007f50616c3a20496e76616c6964206f7261636c65207369676e6174757265000000910152565b611f1a601d6020926112e9565b611f2381611ee5565b0190565b611f3d9060208101906000818303910152611f0d565b90565b15611f4757565b611f4f6101b5565b62461bcd60e51b815280611f6560048201611f27565b0390fd5b611f71610e24565b50611f7b82611e1e565b611f8e611f88600061169a565b91610205565b14612055578161203b91612036612015611faa612052966129a1565b949094612010611ff786611fdf8991611fd0611fc46101b5565b93849260208401611e3a565b602082018103825203826103c7565b611ff1611feb82611e1e565b91611e58565b20612a1e565b9161200a61200484611e5e565b91611e5e565b14611ebc565b612a56565b61203061202a612025609a611552565b6101d5565b916101d5565b14611f40565b610e66565b61204c670de0b6b3a7640000610e9e565b90610ed0565b90565b5050612061600061169a565b90565b612075906120706126a4565b612121565b565b60207f6464726573730000000000000000000000000000000000000000000000000000917f4f776e61626c653a206e6577206f776e657220697320746865207a65726f206160008201520152565b6120d260266040926112e9565b6120db81612077565b0190565b6120f590602081019060008183039101526120c5565b90565b156120ff57565b6121076101b5565b62461bcd60e51b81528061211d600482016120df565b0390fd5b6121509061214b8161214461213e612139600061150f565b6101d5565b916101d5565b14156120f8565b6126d0565b565b61215b90612064565b565b916121789261216d81849061105f565b909260019293612612565b565b9061218f9493929161218a612b08565b61232a565b612197612b56565b565b60007f496e73756666696369656e742062616c616e6365000000000000000000000000910152565b6121ce60146020926112e9565b6121d781612199565b0190565b6121f190602081019060008183039101526121c1565b90565b156121fb57565b6122036101b5565b62461bcd60e51b815280612219600482016121db565b0390fd5b61222690611931565b90565b61223561223a91610e29565b610661565b90565b6122479054612229565b90565b60007f496e73756666696369656e74207061796d656e74000000000000000000000000910152565b61227f60146020926112e9565b6122888161224a565b0190565b6122a29060208101906000818303910152612272565b90565b156122ac57565b6122b46101b5565b62461bcd60e51b8152806122ca6004820161228c565b0390fd5b91946123176123219298979561230d60a0966123036123289a6122f960c08a019e60008b019061025a565b602089019061025a565b604087019061025a565b606085019061025a565b608083019061025a565b019061025a565b565b909291936123389085611f69565b9361237161236a6123538361234d6099610e43565b90610e66565b612364670de0b6b3a7640000610e9e565b90610ed0565b8690610fb7565b906124fa6123ad6123a661238f84612389609b610e43565b90610e66565b6123a0670de0b6b3a7640000610e9e565b90610ed0565b8890610ef2565b966123c26123bd609d8790610309565b610e43565b8660001461253457612438906123ff8a6123f86123f26123ed34936123e88b8d90610ef2565b610ef2565b610205565b91610205565b10156122a5565b6124318961242b61241c612415609c8c90610d0d565b3390610309565b9161242683610e43565b610ef2565b9061146d565b8890610ef2565b61244d81612448609d8990610309565b61146d565b61246161245a609861223d565b8690612d0c565b61247461246d8761221d565b8a90612d0c565b3461249b612495612490612489888a90610ef2565b8d90610ef2565b610205565b91610205565b116124ff575b5b339596979394989190916124e86124e26124dc7f952ff8d90add9fdeaeb478102d54441cf0cc0cbe53b1d99e51f747cdc8379e54996102fd565b996102fd565b9961138c565b996124f16101b5565b968796876122ce565b0390a4565b61252f61252161251a612513348890610fb7565b8890610fb7565b8b90610fb7565b61252a3361221d565b612d0c565b6124a1565b6125ab9061257261255961255461254d609c8b90610d0d565b3390610309565b610e43565b61256b6125658c610205565b91610205565b10156121f4565b6125a48961259e61258f612588609c8c90610d0d565b3390610309565b9161259983610e43565b610fb7565b9061146d565b8890610fb7565b6125c0816125bb609d8990610309565b61146d565b6125e66125d86125d1868890610fb7565b8b90610fb7565b6125e13361221d565b612d0c565b6125fa6125f3609861223d565b8690612d0c565b61260d6126068761221d565b8a90612d0c565b6124a2565b9061261f9493929161217a565b565b60007f4f776e61626c653a2063616c6c6572206973206e6f7420746865206f776e6572910152565b612655602080926112e9565b61265e81612621565b0190565b6126789060208101906000818303910152612649565b90565b1561268257565b61268a6101b5565b62461bcd60e51b8152806126a060048201612662565b0390fd5b6126ce6126af61155f565b6126c86126c26126bd612d6a565b6101d5565b916101d5565b1461267b565b565b6126da6033611552565b6126e58260336110be565b906127196127137f8be0079c531659141344cd1fd0a4f28419497f9722a3daafe3b4186f6b6457e0936102fd565b916102fd565b916127226101b5565b8061272c816104df565b0390a3565b600090565b61273e612731565b503b61275361274d600061169a565b91610205565b1190565b60207f6e697469616c697a696e67000000000000000000000000000000000000000000917f496e697469616c697a61626c653a20636f6e7472616374206973206e6f74206960008201520152565b6127b2602b6040926112e9565b6127bb81612757565b0190565b6127d590602081019060008183039101526127a5565b90565b156127df57565b6127e76101b5565b62461bcd60e51b8152806127fd600482016127bf565b0390fd5b61281361280e6000611a4e565b6127d8565b61281b61281d565b565b612825612da5565b565b61282f612801565b565b61284361283e6000611a4e565b6127d8565b61284b61284d565b565b612855612ddf565b565b61285f612831565b565b600090565b90565b61287d61287861288292612866565b6102d2565b610205565b90565b60007f50616c3a20496e76616c6964207369676e6174757265206c656e677468000000910152565b6128ba601d6020926112e9565b6128c381612885565b0190565b6128dd90602081019060008183039101526128ad565b90565b156128e757565b6128ef6101b5565b62461bcd60e51b815280612905600482016128c7565b0390fd5b61291561291a91610e29565b61144e565b90565b60007f50616c3a2046656520726174696f206f7574206f6620626f756e647300000000910152565b612952601c6020926112e9565b61295b8161291d565b0190565b6129759060208101906000818303910152612945565b90565b1561297f57565b6129876101b5565b62461bcd60e51b81528061299d6004820161295f565b0390fd5b906129aa610e24565b506129b3612861565b506129d96129c083611e1e565b6129d36129cd6060612869565b91610205565b146128e0565b6129e1612861565b506129f56040602084015193015192612909565b612a1a81612a13612a0d670de0b6b3a7640000610e9e565b91610205565b1115612978565b9190565b612a26612861565b507f19457468657265756d205369676e6564204d6573736167653a0a333200000000600052601c52603c60002090565b612a7491612a6c91612a66611539565b50612e12565b919091613001565b90565b612a816002611158565b90565b60007f5265656e7472616e637947756172643a207265656e7472616e742063616c6c00910152565b612ab9601f6020926112e9565b612ac281612a84565b0190565b612adc9060208101906000818303910152612aac565b90565b15612ae657565b612aee6101b5565b62461bcd60e51b815280612b0460048201612ac6565b0390fd5b612b35612b156065610e43565b612b2e612b28612b23612a77565b610205565b91610205565b1415612adf565b612b47612b40612a77565b606561146d565b565b612b536001611139565b90565b612b68612b61612b49565b606561146d565b565b612b73906102f1565b90565b60007f416464726573733a20696e73756666696369656e742062616c616e6365000000910152565b612bab601d6020926112e9565b612bb481612b76565b0190565b612bce9060208101906000818303910152612b9e565b90565b15612bd857565b612be06101b5565b62461bcd60e51b815280612bf660048201612bb8565b0390fd5b905090565b612c0b60008092612bfa565b0190565b612c1890612bff565b90565b90612c2d612c2883610405565b6103f0565b918252565b606090565b3d600014612c5457612c483d612c1b565b903d6000602084013e5b565b612c5c612c32565b90612c52565b60207f6563697069656e74206d61792068617665207265766572746564000000000000917f416464726573733a20756e61626c6520746f2073656e642076616c75652c207260008201520152565b612cbd603a6040926112e9565b612cc681612c62565b0190565b612ce09060208101906000818303910152612cb0565b90565b15612cea57565b612cf26101b5565b62461bcd60e51b815280612d0860048201612cca565b0390fd5b6000612d6892612d428293612d3d612d2330612b6a565b31612d36612d3086610205565b91610205565b1015612bd1565b61196c565b90612d4b6101b5565b9081612d5681612c0f565b03925af1612d62612c37565b50612ce3565b565b612d72611539565b503390565b612d89612d846000611a4e565b6127d8565b612d91612d93565b565b612da3612d9e612d6a565b6126d0565b565b612dad612d77565b565b612dc1612dbc6000611a4e565b6127d8565b612dc9612dcb565b565b612ddd612dd6612b49565b606561146d565b565b612de7612daf565b565b600090565b90565b612e05612e00612e0a92612dee565b6102d2565b610205565b90565b600090565b612e1a611539565b50612e23612de9565b50612e2d82611e1e565b612e40612e3a6041612df1565b91610205565b14600014612e8757612e8191612e54612861565b50612e5d612861565b50612e66612e0d565b5060208101516060604083015192015160001a909192613161565b91909190565b5050612e93600061150f565b90600290565b634e487b7160e01b600052602160045260246000fd5b60051115612eb957565b612e99565b90612ec882612eaf565b565b60207f7565000000000000000000000000000000000000000000000000000000000000917f45434453413a20696e76616c6964207369676e6174757265202773272076616c60008201520152565b612f2560226040926112e9565b612f2e81612eca565b0190565b612f489060208101906000818303910152612f18565b90565b60007f45434453413a20696e76616c6964207369676e6174757265206c656e67746800910152565b612f80601f6020926112e9565b612f8981612f4b565b0190565b612fa39060208101906000818303910152612f73565b90565b60007f45434453413a20696e76616c6964207369676e61747572650000000000000000910152565b612fdb60186020926112e9565b612fe481612fa6565b0190565b612ffe9060208101906000818303910152612fce565b90565b8061301561300f6000612ebe565b91612ebe565b146000146130205750565b8061303461302e6001612ebe565b91612ebe565b1460001461305e576130446101b5565b62461bcd60e51b81528061305a60048201612fe8565b0390fd5b8061307261306c6002612ebe565b91612ebe565b1460001461309c576130826101b5565b62461bcd60e51b81528061309860048201612f8d565b0390fd5b6130af6130a96003612ebe565b91612ebe565b146130b657565b6130be6101b5565b62461bcd60e51b8152806130d460048201612f32565b0390fd5b90565b6130ef6130ea6130f4926130d8565b6102d2565b610205565b90565b61310090611e5e565b9052565b61310d90611a82565b9052565b61314761314e9461313d606094989795613133608086019a60008701906130f7565b6020850190613104565b60408301906130f7565b01906130f7565b565b6131586101b5565b3d6000823e3d90fd5b92919061316c611539565b50613175612de9565b5061317f83612909565b6131b16131ab7f7fffffffffffffffffffffffffffffff5d576e7357a4501ddfe92f46681b20a06130db565b91610205565b11613228576131d260009360209592936131c96101b5565b94859485613111565b838052039060015afa15613223576131eb60005161109a565b806132076132016131fc600061150f565b6101d5565b916101d5565b146132125790600090565b5061321d600061150f565b90600190565b613150565b50505050613236600061150f565b9060039056fea2646970667358221220b854682df465d9f88b226bb189759797b5d7781fb324961e453a06b0d49c263864736f6c63430008180033",
  "linkReferences": {},
  "deployedLinkReferences": {}
}