{
  "_format": "hh-sol-artifact-1",
  "contractName": "GroupKeys",
  "sourceName": "contracts/GroupKeys.sol",
  "abi": [
    {
      "anonymous": false,
      "inputs": [
        {
          "indexed": true,
          "internalType": "address",
          "name": "holder",
          "type": "address"
        },
        {
          "indexed": true,
          "internalType": "uint256",
          "name": "groupId",
          "type": "uint256"
        },
        {
          "indexed": false,
          "internalType": "uint256",
          "name": "fee",
          "type": "uint256"
        }
      ],
      "name": "ClaimHolderFee",
      "type": "event"
    },
    {
      "anonymous": false,
      "inputs": [
        {
          "indexed": true,
          "internalType": "uint256",
          "name": "groupId",
          "type": "uint256"
        },
        {
          "indexed": true,
          "internalType": "address",
          "name": "creator",
          "type": "address"
        }
      ],
      "name": "GroupCreated",
      "type": "event"
    },
    {
      "anonymous": false,
      "inputs": [
        {
          "indexed": false,
          "internalType": "uint8",
          "name": "version",
          "type": "uint8"
        }
      ],
      "name": "Initialized",
      "type": "event"
    },
    {
      "anonymous": false,
      "inputs": [
        {
          "indexed": true,
          "internalType": "address",
          "name": "previousOwner",
          "type": "address"
        },
        {
          "indexed": true,
          "internalType": "address",
          "name": "newOwner",
          "type": "address"
        }
      ],
      "name": "OwnershipTransferred",
      "type": "event"
    },
    {
      "anonymous": false,
      "inputs": [
        {
          "indexed": false,
          "internalType": "uint256",
          "name": "percent",
          "type": "uint256"
        }
      ],
      "name": "SetHolderFeePercent",
      "type": "event"
    },
    {
      "anonymous": false,
      "inputs": [
        {
          "indexed": true,
          "internalType": "address",
          "name": "destination",
          "type": "address"
        }
      ],
      "name": "SetProtocolFeeDestination",
      "type": "event"
    },
    {
      "anonymous": false,
      "inputs": [
        {
          "indexed": false,
          "internalType": "uint256",
          "name": "percent",
          "type": "uint256"
        }
      ],
      "name": "SetProtocolFeePercent",
      "type": "event"
    },
    {
      "anonymous": false,
      "inputs": [
        {
          "indexed": true,
          "internalType": "address",
          "name": "trader",
          "type": "address"
        },
        {
          "indexed": true,
          "internalType": "uint256",
          "name": "groupId",
          "type": "uint256"
        },
        {
          "indexed": true,
          "internalType": "bool",
          "name": "isBuy",
          "type": "bool"
        },
        {
          "indexed": false,
          "internalType": "uint256",
          "name": "amount",
          "type": "uint256"
        },
        {
          "indexed": false,
          "internalType": "uint256",
          "name": "price",
          "type": "uint256"
        },
        {
          "indexed": false,
          "internalType": "uint256",
          "name": "protocolFee",
          "type": "uint256"
        },
        {
          "indexed": false,
          "internalType": "uint256",
          "name": "holderFee",
          "type": "uint256"
        },
        {
          "indexed": false,
          "internalType": "uint256",
          "name": "supply",
          "type": "uint256"
        }
      ],
      "name": "Trade",
      "type": "event"
    },
    {
      "inputs": [
        {
          "internalType": "uint256[]",
          "name": "groupIds",
          "type": "uint256[]"
        }
      ],
      "name": "batchClaimHolderFees",
      "outputs": [],
      "stateMutability": "nonpayable",
      "type": "function"
    },
    {
      "inputs": [
        {
          "internalType": "uint256",
          "name": "groupId",
          "type": "uint256"
        },
        {
          "internalType": "address[]",
          "name": "_holders",
          "type": "address[]"
        }
      ],
      "name": "batchClaimableHolderFees",
      "outputs": [
        {
          "internalType": "uint256[]",
          "name": "claimableFees",
          "type": "uint256[]"
        }
      ],
      "stateMutability": "view",
      "type": "function"
    },
    {
      "inputs": [
        {
          "internalType": "uint256",
          "name": "groupId",
          "type": "uint256"
        },
        {
          "internalType": "uint256",
          "name": "amount",
          "type": "uint256"
        }
      ],
      "name": "buyKeys",
      "outputs": [],
      "stateMutability": "payable",
      "type": "function"
    },
    {
      "inputs": [
        {
          "internalType": "uint256",
          "name": "groupId",
          "type": "uint256"
        }
      ],
      "name": "claimHolderFee",
      "outputs": [],
      "stateMutability": "nonpayable",
      "type": "function"
    },
    {
      "inputs": [
        {
          "internalType": "uint256",
          "name": "groupId",
          "type": "uint256"
        },
        {
          "internalType": "address",
          "name": "holder",
          "type": "address"
        }
      ],
      "name": "claimableHolderFee",
      "outputs": [
        {
          "internalType": "uint256",
          "name": "claimableFee",
          "type": "uint256"
        }
      ],
      "stateMutability": "view",
      "type": "function"
    },
    {
      "inputs": [],
      "name": "createGroup",
      "outputs": [],
      "stateMutability": "nonpayable",
      "type": "function"
    },
    {
      "inputs": [
        {
          "internalType": "uint256",
          "name": "groupId",
          "type": "uint256"
        }
      ],
      "name": "existsGroup",
      "outputs": [
        {
          "internalType": "bool",
          "name": "",
          "type": "bool"
        }
      ],
      "stateMutability": "view",
      "type": "function"
    },
    {
      "inputs": [
        {
          "internalType": "uint256",
          "name": "groupId",
          "type": "uint256"
        },
        {
          "internalType": "uint256",
          "name": "amount",
          "type": "uint256"
        }
      ],
      "name": "getBuyPrice",
      "outputs": [
        {
          "internalType": "uint256",
          "name": "",
          "type": "uint256"
        }
      ],
      "stateMutability": "view",
      "type": "function"
    },
    {
      "inputs": [
        {
          "internalType": "uint256",
          "name": "groupId",
          "type": "uint256"
        },
        {
          "internalType": "uint256",
          "name": "amount",
          "type": "uint256"
        }
      ],
      "name": "getBuyPriceAfterFee",
      "outputs": [
        {
          "internalType": "uint256",
          "name": "",
          "type": "uint256"
        }
      ],
      "stateMutability": "view",
      "type": "function"
    },
    {
      "inputs": [
        {
          "internalType": "uint256",
          "name": "supply",
          "type": "uint256"
        },
        {
          "internalType": "uint256",
          "name": "amount",
          "type": "uint256"
        }
      ],
      "name": "getPrice",
      "outputs": [
        {
          "internalType": "uint256",
          "name": "",
          "type": "uint256"
        }
      ],
      "stateMutability": "view",
      "type": "function"
    },
    {
      "inputs": [
        {
          "internalType": "uint256",
          "name": "groupId",
          "type": "uint256"
        },
        {
          "internalType": "uint256",
          "name": "amount",
          "type": "uint256"
        }
      ],
      "name": "getSellPrice",
      "outputs": [
        {
          "internalType": "uint256",
          "name": "",
          "type": "uint256"
        }
      ],
      "stateMutability": "view",
      "type": "function"
    },
    {
      "inputs": [
        {
          "internalType": "uint256",
          "name": "groupId",
          "type": "uint256"
        },
        {
          "internalType": "uint256",
          "name": "amount",
          "type": "uint256"
        }
      ],
      "name": "getSellPriceAfterFee",
      "outputs": [
        {
          "internalType": "uint256",
          "name": "",
          "type": "uint256"
        }
      ],
      "stateMutability": "view",
      "type": "function"
    },
    {
      "inputs": [
        {
          "internalType": "uint256",
          "name": "",
          "type": "uint256"
        }
      ],
      "name": "groups",
      "outputs": [
        {
          "internalType": "uint256",
          "name": "supply",
          "type": "uint256"
        },
        {
          "internalType": "uint256",
          "name": "accFeePerUnit",
          "type": "uint256"
        }
      ],
      "stateMutability": "view",
      "type": "function"
    },
    {
      "inputs": [],
      "name": "holderFeePercent",
      "outputs": [
        {
          "internalType": "uint256",
          "name": "",
          "type": "uint256"
        }
      ],
      "stateMutability": "view",
      "type": "function"
    },
    {
      "inputs": [
        {
          "internalType": "uint256",
          "name": "",
          "type": "uint256"
        },
        {
          "internalType": "address",
          "name": "",
          "type": "address"
        }
      ],
      "name": "holders",
      "outputs": [
        {
          "internalType": "uint256",
          "name": "balance",
          "type": "uint256"
        },
        {
          "internalType": "int256",
          "name": "feeDebt",
          "type": "int256"
        }
      ],
      "stateMutability": "view",
      "type": "function"
    },
    {
      "inputs": [
        {
          "internalType": "uint256",
          "name": "_baseDivider",
          "type": "uint256"
        },
        {
          "internalType": "address payable",
          "name": "_protocolFeeDestination",
          "type": "address"
        },
        {
          "internalType": "uint256",
          "name": "_protocolFeePercent",
          "type": "uint256"
        },
        {
          "internalType": "uint256",
          "name": "_holderFeePercent",
          "type": "uint256"
        }
      ],
      "name": "initialize",
      "outputs": [],
      "stateMutability": "nonpayable",
      "type": "function"
    },
    {
      "inputs": [],
      "name": "nextGroupId",
      "outputs": [
        {
          "internalType": "uint256",
          "name": "",
          "type": "uint256"
        }
      ],
      "stateMutability": "view",
      "type": "function"
    },
    {
      "inputs": [],
      "name": "owner",
      "outputs": [
        {
          "internalType": "address",
          "name": "",
          "type": "address"
        }
      ],
      "stateMutability": "view",
      "type": "function"
    },
    {
      "inputs": [],
      "name": "protocolFeeDestination",
      "outputs": [
        {
          "internalType": "address payable",
          "name": "",
          "type": "address"
        }
      ],
      "stateMutability": "view",
      "type": "function"
    },
    {
      "inputs": [],
      "name": "protocolFeePercent",
      "outputs": [
        {
          "internalType": "uint256",
          "name": "",
          "type": "uint256"
        }
      ],
      "stateMutability": "view",
      "type": "function"
    },
    {
      "inputs": [],
      "name": "renounceOwnership",
      "outputs": [],
      "stateMutability": "nonpayable",
      "type": "function"
    },
    {
      "inputs": [
        {
          "internalType": "uint256",
          "name": "groupId",
          "type": "uint256"
        },
        {
          "internalType": "uint256",
          "name": "amount",
          "type": "uint256"
        }
      ],
      "name": "sellKeys",
      "outputs": [],
      "stateMutability": "nonpayable",
      "type": "function"
    },
    {
      "inputs": [
        {
          "internalType": "uint256",
          "name": "_feePercent",
          "type": "uint256"
        }
      ],
      "name": "setHolderFeePercent",
      "outputs": [],
      "stateMutability": "nonpayable",
      "type": "function"
    },
    {
      "inputs": [
        {
          "internalType": "address payable",
          "name": "_feeDestination",
          "type": "address"
        }
      ],
      "name": "setProtocolFeeDestination",
      "outputs": [],
      "stateMutability": "nonpayable",
      "type": "function"
    },
    {
      "inputs": [
        {
          "internalType": "uint256",
          "name": "_feePercent",
          "type": "uint256"
        }
      ],
      "name": "setProtocolFeePercent",
      "outputs": [],
      "stateMutability": "nonpayable",
      "type": "function"
    },
    {
      "inputs": [
        {
          "internalType": "address",
          "name": "newOwner",
          "type": "address"
        }
      ],
      "name": "transferOwnership",
      "outputs": [],
      "stateMutability": "nonpayable",
      "type": "function"
    }
  ],
  "bytecode": "0x608060405234801561001057600080fd5b506118ea806100206000396000f3fe6080604052600436106101815760003560e01c806396324bd4116100d1578063c157253d1161008a578063cd9c712111610064578063cd9c7121146104ae578063d6e6eb9f146104ce578063e6b35005146104e4578063f2fde38b1461050457600080fd5b8063c157253d14610465578063c569aec614610485578063c881a48a1461049b57600080fd5b806396324bd41461035d578063a10786b0146103a6578063a4983421146103c6578063a4b1835a146103e6578063ae4a452514610425578063be3b9f2d1461044557600080fd5b8063715018a61161013e5780638da5cb5b116101185780638da5cb5b146102df5780639336193c146102fd578063936815111461031d5780639477d85d1461033d57600080fd5b8063715018a61461027d5780637809dea61461029257806380c32394146102b257600080fd5b8063063a741f14610186578063383da42a146101b95780634ce7957c146101f8578063575185ed146102305780635cf4ee91146102475780635eda7a7614610267575b600080fd5b34801561019257600080fd5b506101a66101a1366004611568565b610524565b6040519081526020015b60405180910390f35b3480156101c557600080fd5b506101e86101d436600461158a565b6000908152609c6020526040902054151590565b60405190151581526020016101b0565b34801561020457600080fd5b50609854610218906001600160a01b031681565b6040516001600160a01b0390911681526020016101b0565b34801561023c57600080fd5b5061024561059e565b005b34801561025357600080fd5b506101a6610262366004611568565b610608565b34801561027357600080fd5b506101a6609b5481565b34801561028957600080fd5b50610245610720565b34801561029e57600080fd5b506102456102ad36600461158a565b610734565b3480156102be57600080fd5b506102d26102cd3660046115ef565b610804565b6040516101b0919061163b565b3480156102eb57600080fd5b506033546001600160a01b0316610218565b34801561030957600080fd5b50610245610318366004611568565b6108ae565b34801561032957600080fd5b506101a6610338366004611694565b610b3d565b34801561034957600080fd5b506101a6610358366004611568565b610bc4565b34801561036957600080fd5b5061039161037836600461158a565b609c602052600090815260409020805460019091015482565b604080519283526020830191909152016101b0565b3480156103b257600080fd5b506102456103c13660046116c4565b610bef565b3480156103d257600080fd5b506102456103e136600461158a565b610c41565b3480156103f257600080fd5b50610391610401366004611694565b609d6020908152600092835260408084209091529082529020805460019091015482565b34801561043157600080fd5b506102456104403660046116e1565b610c85565b34801561045157600080fd5b5061024561046036600461158a565b610e5e565b34801561047157600080fd5b506101a6610480366004611568565b610e9b565b34801561049157600080fd5b506101a6609a5481565b6102456104a9366004611568565b610eb4565b3480156104ba57600080fd5b506101a66104c9366004611568565b611171565b3480156104da57600080fd5b506101a660995481565b3480156104f057600080fd5b506102456104ff36600461171e565b6111df565b34801561051057600080fd5b5061024561051f3660046116c4565b611218565b6000806105318484610e9b565b90506000670de0b6b3a76400006099548361054c9190611776565b610556919061178d565b90506000670de0b6b3a7640000609a54846105719190611776565b61057b919061178d565b90508061058883856117af565b61059291906117af565b93505050505b92915050565b609b8054600091826105af836117c2565b909155506000818152609c60209081526040808320600190819055609d835281842033808652935281842055519293509183917f6958b51b54d963fa8eeeea5b61b83a9ad28f9ee9d5a2f1b8495e6866cb534bb191a350565b600080831561066357600661061e6001866117db565b610629906002611776565b6106349060016117af565b856106406001826117db565b61064a9190611776565b6106549190611776565b61065e919061178d565b610666565b60005b90506000841580156106785750836001145b6106ed5760068461068a6001886117db565b61069491906117af565b61069f906002611776565b6106aa9060016117af565b6106b486886117af565b866106c060018a6117db565b6106ca91906117af565b6106d49190611776565b6106de9190611776565b6106e8919061178d565b6106f0565b60005b905060006106fe83836117db565b60975490915061071682670de0b6b3a7640000611776565b610592919061178d565b61072861128e565b61073260006112e8565b565b61073c61133a565b6000818152609c602090815260408083208151808301835281548152600190910154818401908152858552609d8452828520338652909352908320915182549193916127109161078b91611776565b610795919061178d565b905060008260010154826107a991906117ee565b6001840183905590506107bc3382611393565b604051818152859033907f841d6c5238e11a6af9cd83b97e21794b68bde1ed5e5d2733abc5bfc611ce51ca9060200160405180910390a3505050506108016001606555565b50565b60608167ffffffffffffffff81111561081f5761081f611815565b604051908082528060200260200182016040528015610848578160200160208202803683370190505b50905060005b828110156108a6576108818585858481811061086c5761086c61182b565b905060200201602081019061033891906116c4565b8282815181106108935761089361182b565b602090810291909101015260010161084e565b509392505050565b6108b661133a565b6000828152609c602052604090205461090d5760405162461bcd60e51b815260206004820152601460248201527311dc9bdd5c08191bd95cc81b9bdd08195e1a5cdd60621b60448201526064015b60405180910390fd5b60006109198383610bc4565b90506000670de0b6b3a7640000609954836109349190611776565b61093e919061178d565b90506000670de0b6b3a7640000609a54846109599190611776565b610963919061178d565b6000868152609c60209081526040808320815180830183528154815260019091015481840152898452609d8352818420338552909252909120815192935090916109af61271085611776565b6109b9919061178d565b826020018181516109ca91906117af565b9052508151869083906109de9083906117db565b9052506000878152609c6020908152604090912083518155908301516001909101558054861115610a485760405162461bcd60e51b8152602060048201526014602482015273496e73756666696369656e742062616c616e636560601b6044820152606401610904565b85816000016000828254610a5c91906117db565b9091555050602082015161271090610a749088611776565b610a7e919061178d565b816001016000828254610a9191906117ee565b909155506000905083610aa486886117db565b610aae91906117db565b9050610aba3382611393565b609854610ad0906001600160a01b031686611393565b82516040805189815260208101899052908101879052606081018690526080810191909152600090899033907f29db2a6062b25ead33a5fc8d1163c4d7f54397202547c27c1c99a203446477349060a00160405180910390a4505050505050610b396001606555565b5050565b6000828152609c602090815260408083208151808301835281548152600191820154818501908152878652609d85528386206001600160a01b0388168752855283862084518086019095528054808652930154948401949094529251849161271091610ba891611776565b610bb2919061178d565b905081602001518161059291906117ee565b6000828152609c6020526040812054610be890610be29084906117db565b83610608565b9392505050565b610bf761128e565b609880546001600160a01b0319166001600160a01b0383169081179091556040517f72fe3f5fb15c2671900303001fbe3a8adf9df5c76bfd269a9508c8753b9c35c990600090a250565b610c4961128e565b60998190556040518181527f98d1698e9a7ee55a2ded97de72077c93add26ce8534679021d0e7c44edcb325b906020015b60405180910390a150565b600054610100900460ff1615808015610ca55750600054600160ff909116105b80610cbf5750303b158015610cbf575060005460ff166001145b610d225760405162461bcd60e51b815260206004820152602e60248201527f496e697469616c697a61626c653a20636f6e747261637420697320616c72656160448201526d191e481a5b9a5d1a585b1a5e995960921b6064820152608401610904565b6000805460ff191660011790558015610d45576000805461ff0019166101001790555b610d4d6114b3565b610d556114e2565b6097859055609880546001600160a01b0319166001600160a01b0386169081179091556099849055609a8390556040517f72fe3f5fb15c2671900303001fbe3a8adf9df5c76bfd269a9508c8753b9c35c990600090a26040518381527f98d1698e9a7ee55a2ded97de72077c93add26ce8534679021d0e7c44edcb325b9060200160405180910390a16040518281527f1bf7c57da18b4d55c69dc98c3b4c0bdb9fa61b3ac3979937c6e1c8958f1f937a9060200160405180910390a18015610e57576000805461ff0019169055604051600181527f7f26b83ff96e1f2b6a682f133852f6798a09c465da95921460cefb38474024989060200160405180910390a15b5050505050565b610e6661128e565b609a8190556040518181527f1bf7c57da18b4d55c69dc98c3b4c0bdb9fa61b3ac3979937c6e1c8958f1f937a90602001610c7a565b6000828152609c6020526040812054610be89083610608565b610ebc61133a565b6000828152609c6020526040902054610f0e5760405162461bcd60e51b815260206004820152601460248201527311dc9bdd5c08191bd95cc81b9bdd08195e1a5cdd60621b6044820152606401610904565b6000610f1a8383610e9b565b90506000670de0b6b3a764000060995483610f359190611776565b610f3f919061178d565b90506000670de0b6b3a7640000609a5484610f5a9190611776565b610f64919061178d565b905080610f7183856117af565b610f7b91906117af565b341015610fc15760405162461bcd60e51b8152602060048201526014602482015273125b9cdd59999a58da595b9d081c185e5b595b9d60621b6044820152606401610904565b6000858152609c60209081526040808320815180830183528154815260019091015481840152888452609d835281842033855290925282208054919290918791839161100e9084906117af565b90915550506020820151612710906110269088611776565b611030919061178d565b8160010160008282546110439190611841565b90915550508151869083906110599083906117af565b905250815161106a61271085611776565b611074919061178d565b8260200181815161108591906117af565b9052506000878152609c6020908152604090912083518155908301516001909101556098546110bd906001600160a01b031685611393565b826110c885876117af565b6110d291906117af565b34111561110957600083856110e788346117db565b6110f191906117db565b6110fb91906117db565b90506111073382611393565b505b81516040805188815260208101889052908101869052606081018590526080810191909152600190889033907f29db2a6062b25ead33a5fc8d1163c4d7f54397202547c27c1c99a203446477349060a00160405180910390a45050505050610b396001606555565b60008061117e8484610bc4565b90506000670de0b6b3a7640000609954836111999190611776565b6111a3919061178d565b90506000670de0b6b3a7640000609a54846111be9190611776565b6111c8919061178d565b9050806111d583856117db565b61059291906117db565b60005b818110156112135761120b8383838181106111ff576111ff61182b565b90506020020135610734565b6001016111e2565b505050565b61122061128e565b6001600160a01b0381166112855760405162461bcd60e51b815260206004820152602660248201527f4f776e61626c653a206e6577206f776e657220697320746865207a65726f206160448201526564647265737360d01b6064820152608401610904565b610801816112e8565b6033546001600160a01b031633146107325760405162461bcd60e51b815260206004820181905260248201527f4f776e61626c653a2063616c6c6572206973206e6f7420746865206f776e65726044820152606401610904565b603380546001600160a01b038381166001600160a01b0319831681179093556040519116919082907f8be0079c531659141344cd1fd0a4f28419497f9722a3daafe3b4186f6b6457e090600090a35050565b60026065540361138c5760405162461bcd60e51b815260206004820152601f60248201527f5265656e7472616e637947756172643a207265656e7472616e742063616c6c006044820152606401610904565b6002606555565b804710156113e35760405162461bcd60e51b815260206004820152601d60248201527f416464726573733a20696e73756666696369656e742062616c616e63650000006044820152606401610904565b6000826001600160a01b03168260405160006040518083038185875af1925050503d8060008114611430576040519150601f19603f3d011682016040523d82523d6000602084013e611435565b606091505b50509050806112135760405162461bcd60e51b815260206004820152603a60248201527f416464726573733a20756e61626c6520746f2073656e642076616c75652c207260448201527f6563697069656e74206d617920686176652072657665727465640000000000006064820152608401610904565b6001606555565b600054610100900460ff166114da5760405162461bcd60e51b815260040161090490611869565b610732611511565b600054610100900460ff166115095760405162461bcd60e51b815260040161090490611869565b610732611541565b600054610100900460ff166115385760405162461bcd60e51b815260040161090490611869565b610732336112e8565b600054610100900460ff166114ac5760405162461bcd60e51b815260040161090490611869565b6000806040838503121561157b57600080fd5b50508035926020909101359150565b60006020828403121561159c57600080fd5b5035919050565b60008083601f8401126115b557600080fd5b50813567ffffffffffffffff8111156115cd57600080fd5b6020830191508360208260051b85010111156115e857600080fd5b9250929050565b60008060006040848603121561160457600080fd5b83359250602084013567ffffffffffffffff81111561162257600080fd5b61162e868287016115a3565b9497909650939450505050565b6020808252825182820181905260009190848201906040850190845b8181101561167357835183529284019291840191600101611657565b50909695505050505050565b6001600160a01b038116811461080157600080fd5b600080604083850312156116a757600080fd5b8235915060208301356116b98161167f565b809150509250929050565b6000602082840312156116d657600080fd5b8135610be88161167f565b600080600080608085870312156116f757600080fd5b8435935060208501356117098161167f565b93969395505050506040820135916060013590565b6000806020838503121561173157600080fd5b823567ffffffffffffffff81111561174857600080fd5b611754858286016115a3565b90969095509350505050565b634e487b7160e01b600052601160045260246000fd5b808202811582820484141761059857610598611760565b6000826117aa57634e487b7160e01b600052601260045260246000fd5b500490565b8082018082111561059857610598611760565b6000600182016117d4576117d4611760565b5060010190565b8181038181111561059857610598611760565b818103600083128015838313168383128216171561180e5761180e611760565b5092915050565b634e487b7160e01b600052604160045260246000fd5b634e487b7160e01b600052603260045260246000fd5b808201828112600083128015821682158216171561186157611861611760565b505092915050565b6020808252602b908201527f496e697469616c697a61626c653a20636f6e7472616374206973206e6f74206960408201526a6e697469616c697a696e6760a81b60608201526080019056fea2646970667358221220aca93a634be5d7500ff78f2d05efc883de3e9b85f4bda3762970a9266562f16764736f6c63430008170033",
  "linkReferences": {},
  "deployedLinkReferences": {}
}