{
  "_format": "hh-sol-artifact-1",
  "contractName": "HashtagKeys",
  "sourceName": "contracts/HashtagKeys.sol",
  "abi": [
    {
      "anonymous": false,
      "inputs": [
        {
          "indexed": true,
          "internalType": "address",
          "name": "holder",
          "type": "address"
        },
        {
          "indexed": true,
          "internalType": "bytes32",
          "name": "hashtag",
          "type": "bytes32"
        },
        {
          "indexed": false,
          "internalType": "uint256",
          "name": "fee",
          "type": "uint256"
        }
      ],
      "name": "ClaimHolderFee",
      "type": "event"
    },
    {
      "anonymous": false,
      "inputs": [
        {
          "indexed": false,
          "internalType": "uint8",
          "name": "version",
          "type": "uint8"
        }
      ],
      "name": "Initialized",
      "type": "event"
    },
    {
      "anonymous": false,
      "inputs": [
        {
          "indexed": true,
          "internalType": "address",
          "name": "previousOwner",
          "type": "address"
        },
        {
          "indexed": true,
          "internalType": "address",
          "name": "newOwner",
          "type": "address"
        }
      ],
      "name": "OwnershipTransferred",
      "type": "event"
    },
    {
      "anonymous": false,
      "inputs": [
        {
          "indexed": false,
          "internalType": "uint256",
          "name": "percent",
          "type": "uint256"
        }
      ],
      "name": "SetHolderFeePercent",
      "type": "event"
    },
    {
      "anonymous": false,
      "inputs": [
        {
          "indexed": true,
          "internalType": "address",
          "name": "destination",
          "type": "address"
        }
      ],
      "name": "SetProtocolFeeDestination",
      "type": "event"
    },
    {
      "anonymous": false,
      "inputs": [
        {
          "indexed": false,
          "internalType": "uint256",
          "name": "percent",
          "type": "uint256"
        }
      ],
      "name": "SetProtocolFeePercent",
      "type": "event"
    },
    {
      "anonymous": false,
      "inputs": [
        {
          "indexed": true,
          "internalType": "address",
          "name": "trader",
          "type": "address"
        },
        {
          "indexed": true,
          "internalType": "bytes32",
          "name": "hashtag",
          "type": "bytes32"
        },
        {
          "indexed": true,
          "internalType": "bool",
          "name": "isBuy",
          "type": "bool"
        },
        {
          "indexed": false,
          "internalType": "uint256",
          "name": "amount",
          "type": "uint256"
        },
        {
          "indexed": false,
          "internalType": "uint256",
          "name": "price",
          "type": "uint256"
        },
        {
          "indexed": false,
          "internalType": "uint256",
          "name": "protocolFee",
          "type": "uint256"
        },
        {
          "indexed": false,
          "internalType": "uint256",
          "name": "holderFee",
          "type": "uint256"
        },
        {
          "indexed": false,
          "internalType": "uint256",
          "name": "supply",
          "type": "uint256"
        }
      ],
      "name": "Trade",
      "type": "event"
    },
    {
      "inputs": [
        {
          "internalType": "bytes32[]",
          "name": "_hashtags",
          "type": "bytes32[]"
        }
      ],
      "name": "batchClaimHolderFees",
      "outputs": [],
      "stateMutability": "nonpayable",
      "type": "function"
    },
    {
      "inputs": [
        {
          "internalType": "bytes32[]",
          "name": "_hashtags",
          "type": "bytes32[]"
        },
        {
          "internalType": "address",
          "name": "holder",
          "type": "address"
        }
      ],
      "name": "batchClaimableHolderFees",
      "outputs": [
        {
          "internalType": "uint256[]",
          "name": "claimableFees",
          "type": "uint256[]"
        }
      ],
      "stateMutability": "view",
      "type": "function"
    },
    {
      "inputs": [
        {
          "internalType": "bytes32",
          "name": "hashtag",
          "type": "bytes32"
        },
        {
          "internalType": "uint256",
          "name": "amount",
          "type": "uint256"
        }
      ],
      "name": "buyKeys",
      "outputs": [],
      "stateMutability": "payable",
      "type": "function"
    },
    {
      "inputs": [
        {
          "internalType": "bytes32",
          "name": "hashtag",
          "type": "bytes32"
        }
      ],
      "name": "claimHolderFee",
      "outputs": [],
      "stateMutability": "nonpayable",
      "type": "function"
    },
    {
      "inputs": [
        {
          "internalType": "bytes32",
          "name": "hashtag",
          "type": "bytes32"
        },
        {
          "internalType": "address",
          "name": "holder",
          "type": "address"
        }
      ],
      "name": "claimableHolderFee",
      "outputs": [
        {
          "internalType": "uint256",
          "name": "claimableFee",
          "type": "uint256"
        }
      ],
      "stateMutability": "view",
      "type": "function"
    },
    {
      "inputs": [
        {
          "internalType": "bytes32",
          "name": "hashtag",
          "type": "bytes32"
        },
        {
          "internalType": "uint256",
          "name": "amount",
          "type": "uint256"
        }
      ],
      "name": "getBuyPrice",
      "outputs": [
        {
          "internalType": "uint256",
          "name": "",
          "type": "uint256"
        }
      ],
      "stateMutability": "view",
      "type": "function"
    },
    {
      "inputs": [
        {
          "internalType": "bytes32",
          "name": "hashtag",
          "type": "bytes32"
        },
        {
          "internalType": "uint256",
          "name": "amount",
          "type": "uint256"
        }
      ],
      "name": "getBuyPriceAfterFee",
      "outputs": [
        {
          "internalType": "uint256",
          "name": "",
          "type": "uint256"
        }
      ],
      "stateMutability": "view",
      "type": "function"
    },
    {
      "inputs": [
        {
          "internalType": "uint256",
          "name": "supply",
          "type": "uint256"
        },
        {
          "internalType": "uint256",
          "name": "amount",
          "type": "uint256"
        }
      ],
      "name": "getPrice",
      "outputs": [
        {
          "internalType": "uint256",
          "name": "",
          "type": "uint256"
        }
      ],
      "stateMutability": "view",
      "type": "function"
    },
    {
      "inputs": [
        {
          "internalType": "bytes32",
          "name": "hashtag",
          "type": "bytes32"
        },
        {
          "internalType": "uint256",
          "name": "amount",
          "type": "uint256"
        }
      ],
      "name": "getSellPrice",
      "outputs": [
        {
          "internalType": "uint256",
          "name": "",
          "type": "uint256"
        }
      ],
      "stateMutability": "view",
      "type": "function"
    },
    {
      "inputs": [
        {
          "internalType": "bytes32",
          "name": "hashtag",
          "type": "bytes32"
        },
        {
          "internalType": "uint256",
          "name": "amount",
          "type": "uint256"
        }
      ],
      "name": "getSellPriceAfterFee",
      "outputs": [
        {
          "internalType": "uint256",
          "name": "",
          "type": "uint256"
        }
      ],
      "stateMutability": "view",
      "type": "function"
    },
    {
      "inputs": [
        {
          "internalType": "bytes32",
          "name": "",
          "type": "bytes32"
        }
      ],
      "name": "hashtags",
      "outputs": [
        {
          "internalType": "uint256",
          "name": "supply",
          "type": "uint256"
        },
        {
          "internalType": "uint256",
          "name": "accFeePerUnit",
          "type": "uint256"
        }
      ],
      "stateMutability": "view",
      "type": "function"
    },
    {
      "inputs": [],
      "name": "holderFeePercent",
      "outputs": [
        {
          "internalType": "uint256",
          "name": "",
          "type": "uint256"
        }
      ],
      "stateMutability": "view",
      "type": "function"
    },
    {
      "inputs": [
        {
          "internalType": "bytes32",
          "name": "",
          "type": "bytes32"
        },
        {
          "internalType": "address",
          "name": "",
          "type": "address"
        }
      ],
      "name": "holders",
      "outputs": [
        {
          "internalType": "uint256",
          "name": "balance",
          "type": "uint256"
        },
        {
          "internalType": "int256",
          "name": "feeDebt",
          "type": "int256"
        }
      ],
      "stateMutability": "view",
      "type": "function"
    },
    {
      "inputs": [
        {
          "internalType": "uint256",
          "name": "_baseDivider",
          "type": "uint256"
        },
        {
          "internalType": "address payable",
          "name": "_protocolFeeDestination",
          "type": "address"
        },
        {
          "internalType": "uint256",
          "name": "_protocolFeePercent",
          "type": "uint256"
        },
        {
          "internalType": "uint256",
          "name": "_holderFeePercent",
          "type": "uint256"
        }
      ],
      "name": "initialize",
      "outputs": [],
      "stateMutability": "nonpayable",
      "type": "function"
    },
    {
      "inputs": [],
      "name": "owner",
      "outputs": [
        {
          "internalType": "address",
          "name": "",
          "type": "address"
        }
      ],
      "stateMutability": "view",
      "type": "function"
    },
    {
      "inputs": [],
      "name": "protocolFeeDestination",
      "outputs": [
        {
          "internalType": "address payable",
          "name": "",
          "type": "address"
        }
      ],
      "stateMutability": "view",
      "type": "function"
    },
    {
      "inputs": [],
      "name": "protocolFeePercent",
      "outputs": [
        {
          "internalType": "uint256",
          "name": "",
          "type": "uint256"
        }
      ],
      "stateMutability": "view",
      "type": "function"
    },
    {
      "inputs": [],
      "name": "renounceOwnership",
      "outputs": [],
      "stateMutability": "nonpayable",
      "type": "function"
    },
    {
      "inputs": [
        {
          "internalType": "bytes32",
          "name": "hashtag",
          "type": "bytes32"
        },
        {
          "internalType": "uint256",
          "name": "amount",
          "type": "uint256"
        }
      ],
      "name": "sellKeys",
      "outputs": [],
      "stateMutability": "nonpayable",
      "type": "function"
    },
    {
      "inputs": [
        {
          "internalType": "uint256",
          "name": "_feePercent",
          "type": "uint256"
        }
      ],
      "name": "setHolderFeePercent",
      "outputs": [],
      "stateMutability": "nonpayable",
      "type": "function"
    },
    {
      "inputs": [
        {
          "internalType": "address payable",
          "name": "_feeDestination",
          "type": "address"
        }
      ],
      "name": "setProtocolFeeDestination",
      "outputs": [],
      "stateMutability": "nonpayable",
      "type": "function"
    },
    {
      "inputs": [
        {
          "internalType": "uint256",
          "name": "_feePercent",
          "type": "uint256"
        }
      ],
      "name": "setProtocolFeePercent",
      "outputs": [],
      "stateMutability": "nonpayable",
      "type": "function"
    },
    {
      "inputs": [
        {
          "internalType": "address",
          "name": "newOwner",
          "type": "address"
        }
      ],
      "name": "transferOwnership",
      "outputs": [],
      "stateMutability": "nonpayable",
      "type": "function"
    }
  ],
  "bytecode": "0x608060405234801561001057600080fd5b50611732806100206000396000f3fe6080604052600436106101405760003560e01c8063a4983421116100b6578063c8d777581161006f578063c8d77758146103a8578063cacd5553146103e7578063cad244cd14610407578063d6e6eb9f14610427578063e5ae024b1461043d578063f2fde38b1461045d57600080fd5b8063a4983421146102c9578063ae4a4525146102e9578063bd85966c14610309578063be3b9f2d14610352578063c093e81d14610372578063c569aec61461039257600080fd5b80635cf4ee91116101085780635cf4ee91146102215780636c9a3dad14610241578063715018a61461026157806385978499146102785780638da5cb5b1461028b578063a10786b0146102a957600080fd5b806320ebaa6e146101455780632e50b9141461017b5780634236e876146101a957806346fe4eef146101c95780634ce7957c146101e9575b600080fd5b34801561015157600080fd5b5061016561016036600461144a565b61047d565b604051610172919061149c565b60405180910390f35b34801561018757600080fd5b5061019b6101963660046114e0565b610520565b604051908152602001610172565b3480156101b557600080fd5b5061019b6101c43660046114e0565b610542565b3480156101d557600080fd5b5061019b6101e4366004611502565b6105ba565b3480156101f557600080fd5b50609854610209906001600160a01b031681565b6040516001600160a01b039091168152602001610172565b34801561022d57600080fd5b5061019b61023c3660046114e0565b610641565b34801561024d57600080fd5b5061019b61025c3660046114e0565b610719565b34801561026d57600080fd5b50610276610787565b005b6102766102863660046114e0565b61079b565b34801561029757600080fd5b506033546001600160a01b0316610209565b3480156102b557600080fd5b506102766102c4366004611527565b610a0f565b3480156102d557600080fd5b506102766102e436600461154b565b610a61565b3480156102f557600080fd5b50610276610304366004611564565b610aa5565b34801561031557600080fd5b5061033d61032436600461154b565b609b602052600090815260409020805460019091015482565b60408051928352602083019190915201610172565b34801561035e57600080fd5b5061027661036d36600461154b565b610c7e565b34801561037e57600080fd5b5061027661038d3660046115a1565b610cbb565b34801561039e57600080fd5b5061019b609a5481565b3480156103b457600080fd5b5061033d6103c3366004611502565b609c6020908152600092835260408084209091529082529020805460019091015482565b3480156103f357600080fd5b5061027661040236600461154b565b610d07565b34801561041357600080fd5b5061019b6104223660046114e0565b610dd4565b34801561043357600080fd5b5061019b60995481565b34801561044957600080fd5b506102766104583660046114e0565b610df8565b34801561046957600080fd5b50610276610478366004611527565b61102c565b6060825167ffffffffffffffff81111561049957610499611381565b6040519080825280602002602001820160405280156104c2578160200160208202803683370190505b50905060005b8351811015610519576104f48482815181106104e6576104e66115de565b6020026020010151846105ba565b828281518110610506576105066115de565b60209081029190910101526001016104c8565b5092915050565b6000828152609b60205260408120546105399083610641565b90505b92915050565b60008061054f8484610dd4565b90506000670de0b6b3a76400006099548361056a919061160a565b6105749190611621565b90506000670de0b6b3a7640000609a548461058f919061160a565b6105999190611621565b9050806105a68385611643565b6105b09190611643565b9695505050505050565b6000828152609b602090815260408083208151808301835281548152600191820154818501908152878652609c85528386206001600160a01b03881687528552838620845180860190955280548086529301549484019490945292518491612710916106259161160a565b61062f9190611621565b90508160200151816105b09190611656565b600080600661065185600261160a565b61065c906001611676565b610667866001611676565b610671908761160a565b61067b919061160a565b6106859190611621565b9050600060066106958587611676565b6106a090600261160a565b6106ab906001611676565b856106b7886001611676565b6106c19190611676565b6106cb8789611676565b6106d5919061160a565b6106df919061160a565b6106e99190611621565b905060006106f78383611643565b60975490915061070f82670de0b6b3a764000061160a565b6105b09190611621565b6000806107268484610520565b90506000670de0b6b3a764000060995483610741919061160a565b61074b9190611621565b90506000670de0b6b3a7640000609a5484610766919061160a565b6107709190611621565b90508061077d8385611676565b6105b09190611676565b61078f6110a2565b61079960006110fc565b565b6107a361114e565b60006107af8383610520565b90506000670de0b6b3a7640000609954836107ca919061160a565b6107d49190611621565b90506000670de0b6b3a7640000609a54846107ef919061160a565b6107f99190611621565b9050806108068385611676565b6108109190611676565b34101561085b5760405162461bcd60e51b8152602060048201526014602482015273125b9cdd59999a58da595b9d081c185e5b595b9d60621b60448201526064015b60405180910390fd5b6000858152609b60209081526040808320815180830183528154815260019091015481840152888452609c83528184203385529092528220805491929091879183916108a8908490611676565b90915550506020820151612710906108c0908861160a565b6108ca9190611621565b8160010160008282546108dd9190611689565b90915550508151869083906108f3908390611676565b90525081516109046127108561160a565b61090e9190611621565b8260200181815161091f9190611676565b9052506000878152609b602090815260409091208351815590830151600190910155609854610957906001600160a01b0316856111a7565b826109628587611676565b61096c9190611676565b3411156109a357600083856109818834611643565b61098b9190611643565b6109959190611643565b90506109a133826111a7565b505b81516040805188815260208101889052908101869052606081018590526080810191909152600190889033907f674035dc38afac378988464782fb84b5703e774b8f527148954af1b42873c8ec9060a00160405180910390a45050505050610a0b6001606555565b5050565b610a176110a2565b609880546001600160a01b0319166001600160a01b0383169081179091556040517f72fe3f5fb15c2671900303001fbe3a8adf9df5c76bfd269a9508c8753b9c35c990600090a250565b610a696110a2565b60998190556040518181527f98d1698e9a7ee55a2ded97de72077c93add26ce8534679021d0e7c44edcb325b906020015b60405180910390a150565b600054610100900460ff1615808015610ac55750600054600160ff909116105b80610adf5750303b158015610adf575060005460ff166001145b610b425760405162461bcd60e51b815260206004820152602e60248201527f496e697469616c697a61626c653a20636f6e747261637420697320616c72656160448201526d191e481a5b9a5d1a585b1a5e995960921b6064820152608401610852565b6000805460ff191660011790558015610b65576000805461ff0019166101001790555b610b6d6112cc565b610b756112fb565b6097859055609880546001600160a01b0319166001600160a01b0386169081179091556099849055609a8390556040517f72fe3f5fb15c2671900303001fbe3a8adf9df5c76bfd269a9508c8753b9c35c990600090a26040518381527f98d1698e9a7ee55a2ded97de72077c93add26ce8534679021d0e7c44edcb325b9060200160405180910390a16040518281527f1bf7c57da18b4d55c69dc98c3b4c0bdb9fa61b3ac3979937c6e1c8958f1f937a9060200160405180910390a18015610c77576000805461ff0019169055604051600181527f7f26b83ff96e1f2b6a682f133852f6798a09c465da95921460cefb38474024989060200160405180910390a15b5050505050565b610c866110a2565b609a8190556040518181527f1bf7c57da18b4d55c69dc98c3b4c0bdb9fa61b3ac3979937c6e1c8958f1f937a90602001610a9a565b610cc361114e565b60005b8151811015610cf957610cf1828281518110610ce457610ce46115de565b6020026020010151610d07565b600101610cc6565b50610d046001606555565b50565b610d0f61114e565b6000818152609b602090815260408083208151808301835281548152600190910154818401908152858552609c84528285203386529093529083209151825491939161271091610d5e9161160a565b610d689190611621565b90506000826001015482610d7c9190611656565b600184018390559050610d8f33826111a7565b604051818152859033907fc58d77ff8c2d03883e98ef86c9f9f431e360f4723c4c12a8d2111d7447c5500b9060200160405180910390a350505050610d046001606555565b6000828152609b602052604081205461053990610df2908490611643565b83610641565b610e0061114e565b6000610e0c8383610dd4565b90506000670de0b6b3a764000060995483610e27919061160a565b610e319190611621565b90506000670de0b6b3a7640000609a5484610e4c919061160a565b610e569190611621565b6000868152609b60209081526040808320815180830183528154815260019091015481840152898452609c835281842033855290925290912081519293509091610ea26127108561160a565b610eac9190611621565b82602001818151610ebd9190611676565b905250815186908390610ed1908390611643565b9052506000878152609b6020908152604090912083518155908301516001909101558054861115610f3b5760405162461bcd60e51b8152602060048201526014602482015273496e73756666696369656e742062616c616e636560601b6044820152606401610852565b85816000016000828254610f4f9190611643565b9091555050602082015161271090610f67908861160a565b610f719190611621565b816001016000828254610f849190611656565b909155506000905083610f978688611643565b610fa19190611643565b9050610fad33826111a7565b609854610fc3906001600160a01b0316866111a7565b82516040805189815260208101899052908101879052606081018690526080810191909152600090899033907f674035dc38afac378988464782fb84b5703e774b8f527148954af1b42873c8ec9060a00160405180910390a4505050505050610a0b6001606555565b6110346110a2565b6001600160a01b0381166110995760405162461bcd60e51b815260206004820152602660248201527f4f776e61626c653a206e6577206f776e657220697320746865207a65726f206160448201526564647265737360d01b6064820152608401610852565b610d04816110fc565b6033546001600160a01b031633146107995760405162461bcd60e51b815260206004820181905260248201527f4f776e61626c653a2063616c6c6572206973206e6f7420746865206f776e65726044820152606401610852565b603380546001600160a01b038381166001600160a01b0319831681179093556040519116919082907f8be0079c531659141344cd1fd0a4f28419497f9722a3daafe3b4186f6b6457e090600090a35050565b6002606554036111a05760405162461bcd60e51b815260206004820152601f60248201527f5265656e7472616e637947756172643a207265656e7472616e742063616c6c006044820152606401610852565b6002606555565b804710156111f75760405162461bcd60e51b815260206004820152601d60248201527f416464726573733a20696e73756666696369656e742062616c616e63650000006044820152606401610852565b6000826001600160a01b03168260405160006040518083038185875af1925050503d8060008114611244576040519150601f19603f3d011682016040523d82523d6000602084013e611249565b606091505b50509050806112c05760405162461bcd60e51b815260206004820152603a60248201527f416464726573733a20756e61626c6520746f2073656e642076616c75652c207260448201527f6563697069656e74206d617920686176652072657665727465640000000000006064820152608401610852565b505050565b6001606555565b600054610100900460ff166112f35760405162461bcd60e51b8152600401610852906116b1565b61079961132a565b600054610100900460ff166113225760405162461bcd60e51b8152600401610852906116b1565b61079961135a565b600054610100900460ff166113515760405162461bcd60e51b8152600401610852906116b1565b610799336110fc565b600054610100900460ff166112c55760405162461bcd60e51b8152600401610852906116b1565b634e487b7160e01b600052604160045260246000fd5b600082601f8301126113a857600080fd5b8135602067ffffffffffffffff808311156113c5576113c5611381565b8260051b604051601f19603f830116810181811084821117156113ea576113ea611381565b604052938452602081870181019490810192508785111561140a57600080fd5b6020870191505b8482101561142a57813583529183019190830190611411565b979650505050505050565b6001600160a01b0381168114610d0457600080fd5b6000806040838503121561145d57600080fd5b823567ffffffffffffffff81111561147457600080fd5b61148085828601611397565b925050602083013561149181611435565b809150509250929050565b6020808252825182820181905260009190848201906040850190845b818110156114d4578351835292840192918401916001016114b8565b50909695505050505050565b600080604083850312156114f357600080fd5b50508035926020909101359150565b6000806040838503121561151557600080fd5b82359150602083013561149181611435565b60006020828403121561153957600080fd5b813561154481611435565b9392505050565b60006020828403121561155d57600080fd5b5035919050565b6000806000806080858703121561157a57600080fd5b84359350602085013561158c81611435565b93969395505050506040820135916060013590565b6000602082840312156115b357600080fd5b813567ffffffffffffffff8111156115ca57600080fd5b6115d684828501611397565b949350505050565b634e487b7160e01b600052603260045260246000fd5b634e487b7160e01b600052601160045260246000fd5b808202811582820484141761053c5761053c6115f4565b60008261163e57634e487b7160e01b600052601260045260246000fd5b500490565b8181038181111561053c5761053c6115f4565b8181036000831280158383131683831282161715610519576105196115f4565b8082018082111561053c5761053c6115f4565b80820182811260008312801582168215821617156116a9576116a96115f4565b505092915050565b6020808252602b908201527f496e697469616c697a61626c653a20636f6e7472616374206973206e6f74206960408201526a6e697469616c697a696e6760a81b60608201526080019056fea26469706673582212206e571bab75f83ca794ace8ca3afaf383ab2101bec40140c715b104f792eb2f1e64736f6c63430008170033",
  "linkReferences": {},
  "deployedLinkReferences": {}
}