{
  "_format": "hh-sol-artifact-1",
  "contractName": "HashtagTrade",
  "sourceName": "contracts/HashtagTrade.sol",
  "abi": [
    {
      "anonymous": false,
      "inputs": [
        {
          "indexed": true,
          "internalType": "address",
          "name": "holder",
          "type": "address"
        },
        {
          "indexed": true,
          "internalType": "bytes32",
          "name": "hashtag",
          "type": "bytes32"
        },
        {
          "indexed": false,
          "internalType": "uint256",
          "name": "fee",
          "type": "uint256"
        }
      ],
      "name": "ClaimHolderFee",
      "type": "event"
    },
    {
      "anonymous": false,
      "inputs": [
        {
          "indexed": false,
          "internalType": "uint8",
          "name": "version",
          "type": "uint8"
        }
      ],
      "name": "Initialized",
      "type": "event"
    },
    {
      "anonymous": false,
      "inputs": [
        {
          "indexed": true,
          "internalType": "address",
          "name": "previousOwner",
          "type": "address"
        },
        {
          "indexed": true,
          "internalType": "address",
          "name": "newOwner",
          "type": "address"
        }
      ],
      "name": "OwnershipTransferred",
      "type": "event"
    },
    {
      "anonymous": false,
      "inputs": [
        {
          "indexed": false,
          "internalType": "uint256",
          "name": "percent",
          "type": "uint256"
        }
      ],
      "name": "SetHolderFeePercent",
      "type": "event"
    },
    {
      "anonymous": false,
      "inputs": [
        {
          "indexed": true,
          "internalType": "address",
          "name": "oracle",
          "type": "address"
        }
      ],
      "name": "SetOracleAddress",
      "type": "event"
    },
    {
      "anonymous": false,
      "inputs": [
        {
          "indexed": true,
          "internalType": "address",
          "name": "destination",
          "type": "address"
        }
      ],
      "name": "SetProtocolFeeDestination",
      "type": "event"
    },
    {
      "anonymous": false,
      "inputs": [
        {
          "indexed": false,
          "internalType": "uint256",
          "name": "percent",
          "type": "uint256"
        }
      ],
      "name": "SetProtocolFeePercent",
      "type": "event"
    },
    {
      "anonymous": false,
      "inputs": [
        {
          "indexed": true,
          "internalType": "address",
          "name": "trader",
          "type": "address"
        },
        {
          "indexed": true,
          "internalType": "bytes32",
          "name": "hashtag",
          "type": "bytes32"
        },
        {
          "indexed": true,
          "internalType": "bool",
          "name": "isBuy",
          "type": "bool"
        },
        {
          "indexed": false,
          "internalType": "uint256",
          "name": "amount",
          "type": "uint256"
        },
        {
          "indexed": false,
          "internalType": "uint256",
          "name": "price",
          "type": "uint256"
        },
        {
          "indexed": false,
          "internalType": "uint256",
          "name": "protocolFee",
          "type": "uint256"
        },
        {
          "indexed": false,
          "internalType": "uint256",
          "name": "holderFee",
          "type": "uint256"
        },
        {
          "indexed": false,
          "internalType": "uint256",
          "name": "additionalFee",
          "type": "uint256"
        },
        {
          "indexed": false,
          "internalType": "uint256",
          "name": "supply",
          "type": "uint256"
        }
      ],
      "name": "Trade",
      "type": "event"
    },
    {
      "inputs": [
        {
          "internalType": "bytes32[]",
          "name": "_hashtags",
          "type": "bytes32[]"
        }
      ],
      "name": "batchClaimHolderFees",
      "outputs": [],
      "stateMutability": "nonpayable",
      "type": "function"
    },
    {
      "inputs": [
        {
          "internalType": "bytes32[]",
          "name": "_hashtags",
          "type": "bytes32[]"
        },
        {
          "internalType": "address",
          "name": "holder",
          "type": "address"
        }
      ],
      "name": "batchClaimableHolderFees",
      "outputs": [
        {
          "internalType": "uint256[]",
          "name": "claimableFees",
          "type": "uint256[]"
        }
      ],
      "stateMutability": "view",
      "type": "function"
    },
    {
      "inputs": [
        {
          "internalType": "bytes32",
          "name": "hashtag",
          "type": "bytes32"
        },
        {
          "internalType": "uint256",
          "name": "amount",
          "type": "uint256"
        },
        {
          "internalType": "bytes",
          "name": "oracleSignature",
          "type": "bytes"
        }
      ],
      "name": "buy",
      "outputs": [],
      "stateMutability": "payable",
      "type": "function"
    },
    {
      "inputs": [
        {
          "internalType": "uint256",
          "name": "price",
          "type": "uint256"
        },
        {
          "internalType": "bytes",
          "name": "oracleSignature",
          "type": "bytes"
        }
      ],
      "name": "calculateAdditionalTokenOwnerFee",
      "outputs": [
        {
          "internalType": "uint256",
          "name": "",
          "type": "uint256"
        }
      ],
      "stateMutability": "view",
      "type": "function"
    },
    {
      "inputs": [
        {
          "internalType": "bytes32",
          "name": "hashtag",
          "type": "bytes32"
        }
      ],
      "name": "claimHolderFee",
      "outputs": [],
      "stateMutability": "nonpayable",
      "type": "function"
    },
    {
      "inputs": [
        {
          "internalType": "bytes32",
          "name": "hashtag",
          "type": "bytes32"
        },
        {
          "internalType": "address",
          "name": "holder",
          "type": "address"
        }
      ],
      "name": "claimableHolderFee",
      "outputs": [
        {
          "internalType": "uint256",
          "name": "claimableFee",
          "type": "uint256"
        }
      ],
      "stateMutability": "view",
      "type": "function"
    },
    {
      "inputs": [
        {
          "internalType": "bytes32",
          "name": "hashtag",
          "type": "bytes32"
        },
        {
          "internalType": "uint256",
          "name": "amount",
          "type": "uint256"
        }
      ],
      "name": "getBuyPrice",
      "outputs": [
        {
          "internalType": "uint256",
          "name": "",
          "type": "uint256"
        }
      ],
      "stateMutability": "view",
      "type": "function"
    },
    {
      "inputs": [
        {
          "internalType": "bytes32",
          "name": "hashtag",
          "type": "bytes32"
        },
        {
          "internalType": "uint256",
          "name": "amount",
          "type": "uint256"
        }
      ],
      "name": "getBuyPriceAfterFee",
      "outputs": [
        {
          "internalType": "uint256",
          "name": "",
          "type": "uint256"
        }
      ],
      "stateMutability": "view",
      "type": "function"
    },
    {
      "inputs": [
        {
          "internalType": "uint256",
          "name": "supply",
          "type": "uint256"
        },
        {
          "internalType": "uint256",
          "name": "amount",
          "type": "uint256"
        }
      ],
      "name": "getPrice",
      "outputs": [
        {
          "internalType": "uint256",
          "name": "",
          "type": "uint256"
        }
      ],
      "stateMutability": "view",
      "type": "function"
    },
    {
      "inputs": [
        {
          "internalType": "bytes32",
          "name": "hashtag",
          "type": "bytes32"
        },
        {
          "internalType": "uint256",
          "name": "amount",
          "type": "uint256"
        }
      ],
      "name": "getSellPrice",
      "outputs": [
        {
          "internalType": "uint256",
          "name": "",
          "type": "uint256"
        }
      ],
      "stateMutability": "view",
      "type": "function"
    },
    {
      "inputs": [
        {
          "internalType": "bytes32",
          "name": "hashtag",
          "type": "bytes32"
        },
        {
          "internalType": "uint256",
          "name": "amount",
          "type": "uint256"
        }
      ],
      "name": "getSellPriceAfterFee",
      "outputs": [
        {
          "internalType": "uint256",
          "name": "",
          "type": "uint256"
        }
      ],
      "stateMutability": "view",
      "type": "function"
    },
    {
      "inputs": [
        {
          "internalType": "bytes32",
          "name": "",
          "type": "bytes32"
        }
      ],
      "name": "hashtags",
      "outputs": [
        {
          "internalType": "uint256",
          "name": "supply",
          "type": "uint256"
        },
        {
          "internalType": "uint256",
          "name": "accFeePerUnit",
          "type": "uint256"
        }
      ],
      "stateMutability": "view",
      "type": "function"
    },
    {
      "inputs": [],
      "name": "holderFeePercent",
      "outputs": [
        {
          "internalType": "uint256",
          "name": "",
          "type": "uint256"
        }
      ],
      "stateMutability": "view",
      "type": "function"
    },
    {
      "inputs": [
        {
          "internalType": "bytes32",
          "name": "",
          "type": "bytes32"
        },
        {
          "internalType": "address",
          "name": "",
          "type": "address"
        }
      ],
      "name": "holders",
      "outputs": [
        {
          "internalType": "uint256",
          "name": "balance",
          "type": "uint256"
        },
        {
          "internalType": "int256",
          "name": "feeDebt",
          "type": "int256"
        }
      ],
      "stateMutability": "view",
      "type": "function"
    },
    {
      "inputs": [
        {
          "internalType": "uint256",
          "name": "_baseDivider",
          "type": "uint256"
        },
        {
          "internalType": "address payable",
          "name": "_protocolFeeDestination",
          "type": "address"
        },
        {
          "internalType": "uint256",
          "name": "_protocolFeePercent",
          "type": "uint256"
        },
        {
          "internalType": "uint256",
          "name": "_holderFeePercent",
          "type": "uint256"
        }
      ],
      "name": "initialize",
      "outputs": [],
      "stateMutability": "nonpayable",
      "type": "function"
    },
    {
      "inputs": [],
      "name": "oracleAddress",
      "outputs": [
        {
          "internalType": "address",
          "name": "",
          "type": "address"
        }
      ],
      "stateMutability": "view",
      "type": "function"
    },
    {
      "inputs": [],
      "name": "owner",
      "outputs": [
        {
          "internalType": "address",
          "name": "",
          "type": "address"
        }
      ],
      "stateMutability": "view",
      "type": "function"
    },
    {
      "inputs": [],
      "name": "protocolFeeDestination",
      "outputs": [
        {
          "internalType": "address payable",
          "name": "",
          "type": "address"
        }
      ],
      "stateMutability": "view",
      "type": "function"
    },
    {
      "inputs": [],
      "name": "protocolFeePercent",
      "outputs": [
        {
          "internalType": "uint256",
          "name": "",
          "type": "uint256"
        }
      ],
      "stateMutability": "view",
      "type": "function"
    },
    {
      "inputs": [],
      "name": "renounceOwnership",
      "outputs": [],
      "stateMutability": "nonpayable",
      "type": "function"
    },
    {
      "inputs": [
        {
          "internalType": "bytes32",
          "name": "hashtag",
          "type": "bytes32"
        },
        {
          "internalType": "uint256",
          "name": "amount",
          "type": "uint256"
        },
        {
          "internalType": "bytes",
          "name": "oracleSignature",
          "type": "bytes"
        }
      ],
      "name": "sell",
      "outputs": [],
      "stateMutability": "nonpayable",
      "type": "function"
    },
    {
      "inputs": [
        {
          "internalType": "uint256",
          "name": "_feePercent",
          "type": "uint256"
        }
      ],
      "name": "setHolderFeePercent",
      "outputs": [],
      "stateMutability": "nonpayable",
      "type": "function"
    },
    {
      "inputs": [
        {
          "internalType": "address",
          "name": "_oracle",
          "type": "address"
        }
      ],
      "name": "setOracleAddress",
      "outputs": [],
      "stateMutability": "nonpayable",
      "type": "function"
    },
    {
      "inputs": [
        {
          "internalType": "address payable",
          "name": "_feeDestination",
          "type": "address"
        }
      ],
      "name": "setProtocolFeeDestination",
      "outputs": [],
      "stateMutability": "nonpayable",
      "type": "function"
    },
    {
      "inputs": [
        {
          "internalType": "uint256",
          "name": "_feePercent",
          "type": "uint256"
        }
      ],
      "name": "setProtocolFeePercent",
      "outputs": [],
      "stateMutability": "nonpayable",
      "type": "function"
    },
    {
      "inputs": [
        {
          "internalType": "address",
          "name": "newOwner",
          "type": "address"
        }
      ],
      "name": "transferOwnership",
      "outputs": [],
      "stateMutability": "nonpayable",
      "type": "function"
    }
  ],
  "bytecode": "0x60806040523462000023576200001462000029565b61371d62000035823961371d90f35b6200002f565b60405190565b600080fdfe60806040526004361015610013575b610f45565b61001e6000356101bd565b806320ebaa6e146101b85780632e50b914146101b35780634236e876146101ae57806346fe4eef146101a95780634c69c00f146101a45780634ce7957c1461019f5780635cf4ee911461019a5780636c9a3dad14610195578063715018a6146101905780637491ed9e1461018b5780638da5cb5b146101865780639a23e0c414610181578063a10786b01461017c578063a498342114610177578063a89ae4ba14610172578063ae4a45251461016d578063b1a491e014610168578063bd85966c14610163578063be3b9f2d1461015e578063c093e81d14610159578063c569aec614610154578063c8d777581461014f578063cacd55531461014a578063cad244cd14610145578063d6e6eb9f146101405763f2fde38b0361000e57610f12565b610edd565b610e97565b610e64565b610e2d565b610d09565b610ca0565b610c37565b610c01565b610b13565b610a96565b610a1a565b6109a6565b610954565b6108dd565b6108a8565b61085b565b610749565b610713565b6106dd565b61067a565b6105c3565b610568565b610504565b6104ce565b610423565b60e01c90565b60405190565b600080fd5b600080fd5b600080fd5b600080fd5b601f801991011690565b634e487b7160e01b600052604160045260246000fd5b90610207906101dd565b810190811067ffffffffffffffff82111761022157604052565b6101e7565b906102396102326101c3565b92836101fd565b565b67ffffffffffffffff81116102535760208091020190565b6101e7565b600080fd5b90565b6102698161025d565b0361027057565b600080fd5b9050359061028282610260565b565b909291926102996102948261023b565b610226565b93818552602080860192028301928184116102d657915b8383106102bd5750505050565b602080916102cb8486610275565b8152019201916102b0565b610258565b9080601f830112156102f9578160206102f693359101610284565b90565b6101d8565b60018060a01b031690565b610312906102fe565b90565b61031e81610309565b0361032557565b600080fd5b9050359061033782610315565b565b919060408382031261037a5760008301359067ffffffffffffffff821161037557610369816103729386016102db565b9360200161032a565b90565b6101d3565b6101ce565b5190565b60209181520190565b60200190565b90565b61039e90610392565b9052565b906103af81602093610395565b0190565b60200190565b906103d66103d06103c98461037f565b8093610383565b9261038c565b9060005b8181106103e75750505090565b9091926104006103fa60019286516103a2565b946103b3565b91019190916103da565b61042091602082019160008184039101526103b9565b90565b346104545761045061043f610439366004610339565b90611052565b6104476101c3565b9182918261040a565b0390f35b6101c9565b61046281610392565b0361046957565b600080fd5b9050359061047b82610459565b565b91906040838203126104a6578061049a6104a39260008601610275565b9360200161046e565b90565b6101ce565b6104b490610392565b9052565b91906104cc906000602085019401906104ab565b565b346104ff576104fb6104ea6104e436600461047d565b906110e5565b6104f26101c3565b918291826104b8565b0390f35b6101c9565b346105355761053161052061051a36600461047d565b906111d7565b6105286101c3565b918291826104b8565b0390f35b6101c9565b919060408382031261056357806105576105609260008601610275565b9360200161032a565b90565b6101ce565b346105995761059561058461057e36600461053a565b906113c5565b61058c6101c3565b918291826104b8565b0390f35b6101c9565b906020828203126105b8576105b59160000161032a565b90565b6101ce565b60000190565b346105f1576105db6105d636600461059e565b6114fd565b6105e36101c3565b806105ed816105bd565b0390f35b6101c9565b600091031261060157565b6101ce565b1c90565b60018060a01b031690565b61062590600861062a9302610606565b61060a565b90565b906106389154610615565b90565b610648609860009061062d565b90565b610654906102fe565b90565b6106609061064b565b9052565b919061067890600060208501940190610657565b565b346106aa5761068a3660046105f6565b6106a661069561063b565b61069d6101c3565b91829182610664565b0390f35b6101c9565b91906040838203126106d857806106cc6106d5926000860161046e565b9360200161046e565b90565b6101ce565b3461070e5761070a6106f96106f33660046106af565b9061158a565b6107016101c3565b918291826104b8565b0390f35b6101c9565b346107445761074061072f61072936600461047d565b906116ad565b6107376101c3565b918291826104b8565b0390f35b6101c9565b34610777576107593660046105f6565b61076161177e565b6107696101c3565b80610773816105bd565b0390f35b6101c9565b600080fd5b67ffffffffffffffff811161079f5761079b6020916101dd565b0190565b6101e7565b90826000939282370152565b909291926107c56107c082610781565b610226565b938185526020850190828401116107e1576107df926107a4565b565b61077c565b9080601f8301121561080457816020610801933591016107b0565b90565b6101d8565b91606083830312610856576108218260008501610275565b9261082f836020830161046e565b92604082013567ffffffffffffffff81116108515761084e92016107e6565b90565b6101d3565b6101ce565b61086f610869366004610809565b91611cb8565b6108776101c3565b80610881816105bd565b0390f35b61088e90610309565b9052565b91906108a690600060208501940190610885565b565b346108d8576108b83660046105f6565b6108d46108c3611ceb565b6108cb6101c3565b91829182610892565b0390f35b6101c9565b3461090c576108f66108f0366004610809565b91612034565b6108fe6101c3565b80610908816105bd565b0390f35b6101c9565b61091a8161064b565b0361092157565b600080fd5b9050359061093382610911565b565b9060208282031261094f5761094c91600001610926565b90565b6101ce565b346109825761096c610967366004610935565b6120dc565b6109746101c3565b8061097e816105bd565b0390f35b6101c9565b906020828203126109a15761099e9160000161046e565b90565b6101ce565b346109d4576109be6109b9366004610987565b612140565b6109c66101c3565b806109d0816105bd565b0390f35b6101c9565b60018060a01b031690565b6109f49060086109f99302610606565b6109d9565b90565b90610a0791546109e4565b90565b610a17609a6000906109fc565b90565b34610a4a57610a2a3660046105f6565b610a46610a35610a0a565b610a3d6101c3565b91829182610892565b0390f35b6101c9565b608081830312610a9157610a66826000830161046e565b92610a8e610a778460208501610926565b93610a85816040860161046e565b9360600161046e565b90565b6101ce565b34610ac857610ab2610aa9366004610a4f565b92919091612546565b610aba6101c3565b80610ac4816105bd565b0390f35b6101c9565b919091604081840312610b0e57610ae7836000830161046e565b92602082013567ffffffffffffffff8111610b0957610b0692016107e6565b90565b6101d3565b6101ce565b34610b4457610b40610b2f610b29366004610acd565b9061269c565b610b376101c3565b918291826104b8565b0390f35b6101c9565b90602082820312610b6357610b6091600001610275565b90565b6101ce565b610b719061025d565b90565b90610b7e90610b68565b600052602052604060002090565b60001c90565b90565b610ba1610ba691610b8c565b610b92565b90565b610bb39054610b95565b90565b610bc190609c610b74565b90610bda6001610bd360008501610ba9565b9301610ba9565b90565b916020610bff929493610bf8604082019660008301906104ab565b01906104ab565b565b34610c3257610c19610c14366004610b49565b610bb6565b90610c2e610c256101c3565b92839283610bdd565b0390f35b6101c9565b34610c6557610c4f610c4a366004610987565b6127f0565b610c576101c3565b80610c61816105bd565b0390f35b6101c9565b90602082820312610c9b57600082013567ffffffffffffffff8111610c9657610c9392016102db565b90565b6101d3565b6101ce565b34610cce57610cb8610cb3366004610c6a565b612871565b610cc06101c3565b80610cca816105bd565b0390f35b6101c9565b610ce3906008610ce89302610606565b610b92565b90565b90610cf69154610cd3565b90565b610d06609b600090610ceb565b90565b34610d3957610d193660046105f6565b610d35610d24610cf9565b610d2c6101c3565b918291826104b8565b0390f35b6101c9565b90610d4890610b68565b600052602052604060002090565b90565b610d6d610d68610d72926102fe565b610d56565b6102fe565b90565b610d7e90610d59565b90565b610d8a90610d75565b90565b90610d9790610d81565b600052602052604060002090565b90565b610db4610db991610b8c565b610da5565b90565b610dc69054610da8565b90565b90610dd8610ddd92609d610d3e565b610d8d565b90610df66001610def60008501610ba9565b9301610dbc565b90565b90565b610e0590610df9565b9052565b916020610e2b929493610e24604082019660008301906104ab565b0190610dfc565b565b34610e5f57610e46610e4036600461053a565b90610dc9565b90610e5b610e526101c3565b92839283610e09565b0390f35b6101c9565b34610e9257610e7c610e77366004610b49565b612993565b610e846101c3565b80610e8e816105bd565b0390f35b6101c9565b34610ec857610ec4610eb3610ead36600461047d565b9061299e565b610ebb6101c3565b918291826104b8565b0390f35b6101c9565b610eda6099600090610ceb565b90565b34610f0d57610eed3660046105f6565b610f09610ef8610ecd565b610f006101c3565b918291826104b8565b0390f35b6101c9565b34610f4057610f2a610f2536600461059e565b612ac1565b610f326101c3565b80610f3c816105bd565b0390f35b6101c9565b600080fd5b606090565b5190565b67ffffffffffffffff8111610f6b5760208091020190565b6101e7565b90610f82610f7d83610f53565b610226565b918252565b369037565b90610fb1610f9983610f70565b92602080610fa78693610f53565b9201910390610f87565b565b90565b610fca610fc5610fcf92610fb3565b610d56565b610392565b90565b6001610fde9101610392565b90565b634e487b7160e01b600052603260045260246000fd5b9061100182610f4f565b811015611012576020809102010190565b610fe1565b611021905161025d565b90565b9061102e8261037f565b81101561103f576020809102010190565b610fe1565b9061104e90610392565b9052565b919061105c610f4a565b5061106e61106984610f4f565b610f8c565b926110796000610fb6565b5b8061109561108f61108a85610f4f565b610392565b91610392565b10156110db576110d6906110d16110bf6110b86110b3868590610ff7565b611017565b86906113c5565b6110cc8891849092611024565b611044565b610fd2565b61107a565b505050565b600090565b90611108600061110261110d946110fa6110e0565b50609c610b74565b01610ba9565b61158a565b90565b634e487b7160e01b600052601160045260246000fd5b61113561113b91939293610392565b92610392565b91611147838202610392565b92818404149015171561115657565b611110565b90565b61117261116d6111779261115b565b610d56565b610392565b90565b634e487b7160e01b600052601260045260246000fd5b61119c6111a291610392565b91610392565b9081156111ad570490565b61117a565b6111c16111c791939293610392565b92610392565b82039182116111d257565b611110565b611257916111ed916111e76110e0565b5061299e565b61125261121e611207836112016099610ba9565b90611126565b611218670de0b6b3a764000061115e565b90611190565b61124c6112358461122f609b610ba9565b90611126565b611246670de0b6b3a764000061115e565b90611190565b926111b2565b6111b2565b90565b6112646040610226565b90565b906112a0611297600161127861125a565b9461129161128860008301610ba9565b60008801611044565b01610ba9565b60208401611044565b565b6112ab90611267565b90565b906112b890610df9565b9052565b6112c66040610226565b90565b906113026112f960016112da6112bc565b946112f36112ea60008301610ba9565b60008801611044565b01610dbc565b602084016112ae565b565b61130d906112c9565b90565b61131a9051610392565b90565b90565b61133461132f6113399261131d565b610d56565b610392565b90565b611347612710611320565b90565b61135e61135961136392610392565b610d56565b610df9565b90565b6113709051610df9565b90565b61138261138891939293610df9565b92610df9565b918281039260008285128183121692851391121516176113a457565b611110565b6113bd6113b86113c292610df9565b610d56565b610392565b90565b6114519061144b602061144461143f61143161141361140e611456996113e96110e0565b506114096114016113fc609c8c90610b74565b6112a2565b99609d610d3e565b610d8d565b611304565b9561142b8561142460008a01611310565b9201611310565b90611126565b61143961133c565b90611190565b61134a565b9201611366565b90611373565b6113a9565b90565b61146a90611465612b4f565b6114b0565b565b60001b90565b9061148360018060a01b039161146c565b9181191691161790565b90565b906114a56114a06114ac92610d81565b61148d565b8254611472565b9055565b6114bb81609a611490565b6114e57f0adef86c673dfdb102affe9a454acea4a42a305e1feb982b4b2c97da980454a991610d81565b906114ee6101c3565b806114f8816105bd565b0390a2565b61150690611459565b565b90565b61151f61151a61152492611508565b610d56565b610392565b90565b61153661153c91939293610392565b92610392565b820180921161154757565b611110565b90565b61156361155e6115689261154c565b610d56565b610392565b90565b90565b61158261157d6115879261156b565b610d56565b610392565b90565b61168361169a9161167e61166e6116aa956115a36110e0565b5061166861165861160b6115fb6115ce886115c88a6115c2600161150b565b90611527565b90611126565b6115f56115e560026115e08c9161154f565b611126565b6115ef600161150b565b90611527565b90611126565b611605600661156e565b90611190565b9561165361164d611644611620848890611527565b61163e61163786611631600161150b565b90611527565b8990611527565b90611126565b95600293611527565b9161154f565b611126565b611662600161150b565b90611527565b90611126565b611678600661156e565b90611190565b6111b2565b611694670de0b6b3a764000061115e565b90611126565b6116a46097610ba9565b90611190565b90565b61172d916116c3916116bd6110e0565b506110e5565b6117286116f46116dd836116d76099610ba9565b90611126565b6116ee670de0b6b3a764000061115e565b90611190565b61172261170b84611705609b610ba9565b90611126565b61171c670de0b6b3a764000061115e565b90611190565b92611527565b611527565b90565b611738612b4f565b61174061176a565b565b61175661175161175b92610fb3565b610d56565b6102fe565b90565b61176790611742565b90565b61177c611777600061175e565b612b7b565b565b611786611730565b565b9061179b9291611796612c6d565b6119e7565b6117a3612cbb565b565b60209181520190565b60007f496e73756666696369656e74207061796d656e74000000000000000000000000910152565b6117e360146020926117a5565b6117ec816117ae565b0190565b61180690602081019060008183039101526117d6565b90565b1561181057565b6118186101c3565b62461bcd60e51b81528061182e600482016117f0565b0390fd5b90565b906118426000199161146c565b9181191691161790565b61186061185b61186592610392565b610d56565b610392565b90565b90565b9061188061187b6118879261184c565b611868565b8254611835565b9055565b61189a6118a091939293610df9565b92610df9565b808301926000828512158183121692851291121516176118bc57565b611110565b6118d56118d06118da92610df9565b610d56565b610df9565b90565b90565b906118f56118f06118fc926118c1565b6118dd565b8254611835565b9055565b9061192d60206001611933946119256000820161191f60008801611310565b9061186b565b019201611310565b9061186b565b565b9061193f91611900565b565b61194d61195291610b8c565b61060a565b90565b61195f9054611941565b90565b61196b90610d59565b90565b61197790611962565b90565b151590565b6119889061197a565b90565b91946119d46119de929897956119ca60a0966119c06119e59a6119b660c08a019e60008b01906104ab565b60208901906104ab565b60408701906104ab565b60608501906104ab565b60808301906104ab565b01906104ab565b565b80826119f2916110e5565b9283906119fe9161269c565b9083611a0a6099610ba9565b611a1391611126565b670de0b6b3a7640000611a259061115e565b611a2e91611190565b82611a38916111b2565b84611a43609b610ba9565b611a4c91611126565b670de0b6b3a7640000611a5e9061115e565b611a6791611190565b83611a7191611527565b94348183611a7e91611527565b87611a8891611527565b611a9190610392565b90611a9b90610392565b1015611aa690611809565b609c83611ab291610b74565b611abb906112a2565b93609d84611ac891610d3e565b33611ad291610d8d565b611adb90611832565b868160000190611aea82610ba9565b90611af491611527565b611afd9161186b565b8686602001611b0b90611310565b611b1491611126565b611b1c61133c565b611b2591611190565b611b2e9061134a565b9060010190611b3c82610dbc565b90611b469161188b565b611b4f916118e0565b858560000190611b5e82611310565b90611b6891611527565b611b7191611044565b86611b7a61133c565b611b8391611126565b85600001611b9090611310565b611b9991611190565b8560200190611ba782611310565b90611bb191611527565b611bba91611044565b84609c85611bc791610b74565b90611bd191611935565b611bdb6098611955565b83611be591612e71565b348284611bf191611527565b88611bfb91611527565b611c0490610392565b90611c0e90610392565b1190611c7e91611c83575b339495611c2f600060019995969a939201611310565b91611c6c611c66611c607f0676d094bef01c9ec4449ab8c90ff2327921546696ee8093515bf0d85b8dfa7099610d81565b99610b68565b9961197f565b99611c756101c3565b9687968761198b565b0390a4565b611cb3611ca5611c9e611c973487906111b2565b87906111b2565b8a906111b2565b611cae3361196e565b612e71565b611c19565b90611cc39291611788565b565b600090565b611cd6611cdb91610b8c565b6109d9565b90565b611ce89054611cca565b90565b611cf3611cc5565b50611cfe6033611cde565b90565b90611d149291611d0f612c6d565b611da2565b611d1c612cbb565b565b60007f496e73756666696369656e742062616c616e6365000000000000000000000000910152565b611d5360146020926117a5565b611d5c81611d1e565b0190565b611d769060208101906000818303910152611d46565b90565b15611d8057565b611d886101c3565b62461bcd60e51b815280611d9e60048201611d60565b0390fd5b918282611dae9161299e565b908190611dba9161269c565b9281611dc66099610ba9565b611dcf91611126565b670de0b6b3a7640000611de19061115e565b611dea91611190565b84611df4916111b2565b82611dff609b610ba9565b611e0891611126565b670de0b6b3a7640000611e1a9061115e565b611e2391611190565b85611e2d91611527565b90609c83611e3a91610b74565b611e43906112a2565b93609d84611e5091610d3e565b33611e5a91610d8d565b611e6390611832565b83611e6c61133c565b611e7591611126565b86600001611e8290611310565b611e8b91611190565b8660200190611e9982611310565b90611ea391611527565b611eac91611044565b868660000190611ebb82611310565b90611ec5916111b2565b611ece91611044565b85609c86611edb91610b74565b90611ee591611935565b80600001611ef290610ba9565b87611efc90610392565b90611f0690610392565b1015611f1190611d79565b868160000190611f2082610ba9565b90611f2a916111b2565b611f339161186b565b8686602001611f4190611310565b611f4a91611126565b611f5261133c565b611f5b91611190565b611f649061134a565b9060010190611f7282610dbc565b90611f7c91611373565b611f85916118e0565b8082611f90916111b2565b83611f9a916111b2565b33611fa49061196e565b90611fae91612e71565b611fb86098611955565b82611fc291612e71565b3393946000969192939790600001611fd990611310565b907f0676d094bef01c9ec4449ab8c90ff2327921546696ee8093515bf0d85b8dfa709561200590610d81565b9661200f90610b68565b976120199061197f565b986120226101c3565b95869561202f958761198b565b0390a4565b9061203f9291611d01565b565b6120529061204d612b4f565b61208f565b565b61205d90611962565b90565b90565b9061207861207361207f92612054565b612060565b8254611472565b9055565b61208c90610d75565b90565b61209a816098612063565b6120c47f72fe3f5fb15c2671900303001fbe3a8adf9df5c76bfd269a9508c8753b9c35c991612083565b906120cd6101c3565b806120d7816105bd565b0390a2565b6120e590612041565b565b6120f8906120f3612b4f565b6120fa565b565b61210581609961186b565b61213b7f98d1698e9a7ee55a2ded97de72077c93add26ce8534679021d0e7c44edcb325b916121326101c3565b918291826104b8565b0390a1565b612149906120e7565b565b60081c90565b60ff1690565b6121636121689161214b565b612151565b90565b6121759054612157565b90565b60ff1690565b61218a61218f91610b8c565b612178565b90565b61219c905461217e565b90565b60ff1690565b6121b96121b46121be92611508565b610d56565b61219f565b90565b6121ca90610d75565b90565b60207f647920696e697469616c697a6564000000000000000000000000000000000000917f496e697469616c697a61626c653a20636f6e747261637420697320616c72656160008201520152565b612228602e6040926117a5565b612231816121cd565b0190565b61224b906020810190600081830391015261221b565b90565b1561225557565b61225d6101c3565b62461bcd60e51b81528061227360048201612235565b0390fd5b9061228360ff9161146c565b9181191691161790565b6122a161229c6122a69261219f565b610d56565b61219f565b90565b90565b906122c16122bc6122c89261228d565b6122a9565b8254612277565b9055565b60081b90565b906122df61ff00916122cc565b9181191691161790565b90565b906123016122fc6123089261197f565b6122e9565b82546122d2565b9055565b612315906121a5565b9052565b919061232d9060006020850194019061230c565b565b92909161238092612349612343600061216b565b1561197a565b948580612432575b80156123e3575b6123619061224e565b61237561236e60016121a5565b60006122ac565b856123d2575b612456565b612387575b565b6123926000806122ec565b60016123ca7f7f26b83ff96e1f2b6a682f133852f6798a09c465da95921460cefb3847402498916123c16101c3565b91829182612319565b0390a1612385565b6123de600160006122ec565b61237b565b506123fe6123f86123f3306121c1565b612ed4565b1561197a565b80612409575b612358565b506123616124176000612192565b61242a61242460016121a5565b9161219f565b149050612404565b5061243d6000612192565b61245061244a60016121a5565b9161219f565b10612351565b61247190612462612fc5565b61246a612ff5565b609761186b565b61247c816098612063565b61248782609961186b565b61249283609b61186b565b6124bc7f72fe3f5fb15c2671900303001fbe3a8adf9df5c76bfd269a9508c8753b9c35c991612083565b906124c56101c3565b806124cf816105bd565b0390a26125087f98d1698e9a7ee55a2ded97de72077c93add26ce8534679021d0e7c44edcb325b916124ff6101c3565b918291826104b8565b0390a16125417f1bf7c57da18b4d55c69dc98c3b4c0bdb9fa61b3ac3979937c6e1c8958f1f937a916125386101c3565b918291826104b8565b0390a1565b9061255293929161232f565b565b5190565b90565b61256761256c91610392565b612558565b9052565b60208161258261258a9383969561255b565b01809261255b565b0190565b60200190565b60007f50616c3a20496e76616c696420646174612070726f7669646564000000000000910152565b6125c9601a6020926117a5565b6125d281612594565b0190565b6125ec90602081019060008183039101526125bc565b90565b156125f657565b6125fe6101c3565b62461bcd60e51b815280612614600482016125d6565b0390fd5b60007f50616c3a20496e76616c6964206f7261636c65207369676e6174757265000000910152565b61264d601d6020926117a5565b61265681612618565b0190565b6126709060208101906000818303910152612640565b90565b1561267a57565b6126826101c3565b62461bcd60e51b8152806126986004820161265a565b0390fd5b6126a46110e0565b506126ae82612554565b6126c16126bb6000610fb6565b91610392565b14612788578161276e916127696127486126dd6127859661313f565b94909461274361272a8661271289916127036126f76101c3565b93849260208401612570565b602082018103825203826101fd565b61272461271e82612554565b9161258e565b206131bc565b9161273d6127378461025d565b9161025d565b146125ef565b6131f4565b61276361275d612758609a611cde565b610309565b91610309565b14612673565b611126565b61277f670de0b6b3a764000061115e565b90611190565b90565b50506127946000610fb6565b90565b6127a8906127a3612b4f565b6127aa565b565b6127b581609b61186b565b6127eb7f1bf7c57da18b4d55c69dc98c3b4c0bdb9fa61b3ac3979937c6e1c8958f1f937a916127e26101c3565b918291826104b8565b0390a1565b6127f990612797565b565b61280c90612807612c6d565b612816565b612814612cbb565b565b906128216000610fb6565b5b8061283d61283761283286610f4f565b610392565b91610392565b101561286c576128679061286261285d612858868490610ff7565b611017565b612993565b610fd2565b612822565b509050565b61287a906127fb565b565b61288d90612888612c6d565b612897565b612895612cbb565b565b6128ab6128a6609c8390610b74565b6112a2565b61292f6129076129026128f46128d56128d06128c9609d8990610d3e565b3390610d8d565b611832565b946128ee60206128e760008901610ba9565b9201611310565b90611126565b6128fc61133c565b90611190565b61134a565b9160016129276129228561291c848601610dbc565b90611373565b6113a9565b9391016118e0565b61294261293b3361196e565b8290612e71565b3391909161298e61297c6129767fc58d77ff8c2d03883e98ef86c9f9f431e360f4723c4c12a8d2111d7447c5500b93610d81565b93610b68565b936129856101c3565b918291826104b8565b0390a3565b61299c9061287c565b565b906129cb6129c460006129be6129d0956129b66110e0565b50609c610b74565b01610ba9565b82906111b2565b61158a565b90565b6129e4906129df612b4f565b612a90565b565b60207f6464726573730000000000000000000000000000000000000000000000000000917f4f776e61626c653a206e6577206f776e657220697320746865207a65726f206160008201520152565b612a4160266040926117a5565b612a4a816129e6565b0190565b612a649060208101906000818303910152612a34565b90565b15612a6e57565b612a766101c3565b62461bcd60e51b815280612a8c60048201612a4e565b0390fd5b612abf90612aba81612ab3612aad612aa8600061175e565b610309565b91610309565b1415612a67565b612b7b565b565b612aca906129d3565b565b60007f4f776e61626c653a2063616c6c6572206973206e6f7420746865206f776e6572910152565b612b00602080926117a5565b612b0981612acc565b0190565b612b239060208101906000818303910152612af4565b90565b15612b2d57565b612b356101c3565b62461bcd60e51b815280612b4b60048201612b0d565b0390fd5b612b79612b5a611ceb565b612b73612b6d612b68613215565b610309565b91610309565b14612b26565b565b612b856033611cde565b612b90826033611490565b90612bc4612bbe7f8be0079c531659141344cd1fd0a4f28419497f9722a3daafe3b4186f6b6457e093610d81565b91610d81565b91612bcd6101c3565b80612bd7816105bd565b0390a3565b612be6600261154f565b90565b60007f5265656e7472616e637947756172643a207265656e7472616e742063616c6c00910152565b612c1e601f6020926117a5565b612c2781612be9565b0190565b612c419060208101906000818303910152612c11565b90565b15612c4b57565b612c536101c3565b62461bcd60e51b815280612c6960048201612c2b565b0390fd5b612c9a612c7a6065610ba9565b612c93612c8d612c88612bdc565b610392565b91610392565b1415612c44565b612cac612ca5612bdc565b606561186b565b565b612cb8600161150b565b90565b612ccd612cc6612cae565b606561186b565b565b612cd890610d75565b90565b60007f416464726573733a20696e73756666696369656e742062616c616e6365000000910152565b612d10601d6020926117a5565b612d1981612cdb565b0190565b612d339060208101906000818303910152612d03565b90565b15612d3d57565b612d456101c3565b62461bcd60e51b815280612d5b60048201612d1d565b0390fd5b905090565b612d7060008092612d5f565b0190565b612d7d90612d64565b90565b90612d92612d8d83610781565b610226565b918252565b606090565b3d600014612db957612dad3d612d80565b903d6000602084013e5b565b612dc1612d97565b90612db7565b60207f6563697069656e74206d61792068617665207265766572746564000000000000917f416464726573733a20756e61626c6520746f2073656e642076616c75652c207260008201520152565b612e22603a6040926117a5565b612e2b81612dc7565b0190565b612e459060208101906000818303910152612e15565b90565b15612e4f57565b612e576101c3565b62461bcd60e51b815280612e6d60048201612e2f565b0390fd5b6000612ecd92612ea78293612ea2612e8830612ccf565b31612e9b612e9586610392565b91610392565b1015612d36565b612083565b90612eb06101c3565b9081612ebb81612d74565b03925af1612ec7612d9c565b50612e48565b565b600090565b612edc612ecf565b503b612ef1612eeb6000610fb6565b91610392565b1190565b60207f6e697469616c697a696e67000000000000000000000000000000000000000000917f496e697469616c697a61626c653a20636f6e7472616374206973206e6f74206960008201520152565b612f50602b6040926117a5565b612f5981612ef5565b0190565b612f739060208101906000818303910152612f43565b90565b15612f7d57565b612f856101c3565b62461bcd60e51b815280612f9b60048201612f5d565b0390fd5b612fb1612fac600061216b565b612f76565b612fb9612fbb565b565b612fc3613250565b565b612fcd612f9f565b565b612fe1612fdc600061216b565b612f76565b612fe9612feb565b565b612ff361328a565b565b612ffd612fcf565b565b600090565b90565b61301b61301661302092613004565b610d56565b610392565b90565b60007f50616c3a20496e76616c6964207369676e6174757265206c656e677468000000910152565b613058601d6020926117a5565b61306181613023565b0190565b61307b906020810190600081830391015261304b565b90565b1561308557565b61308d6101c3565b62461bcd60e51b8152806130a360048201613065565b0390fd5b6130b36130b891610b8c565b61184c565b90565b60007f50616c3a2046656520726174696f206f7574206f6620626f756e647300000000910152565b6130f0601c6020926117a5565b6130f9816130bb565b0190565b61311390602081019060008183039101526130e3565b90565b1561311d57565b6131256101c3565b62461bcd60e51b81528061313b600482016130fd565b0390fd5b906131486110e0565b50613151612fff565b5061317761315e83612554565b61317161316b6060613007565b91610392565b1461307e565b61317f612fff565b5061319360406020840151930151926130a7565b6131b8816131b16131ab670de0b6b3a764000061115e565b91610392565b1115613116565b9190565b6131c4612fff565b507f19457468657265756d205369676e6564204d6573736167653a0a333200000000600052601c52603c60002090565b6132129161320a91613204611cc5565b506132bd565b9190916134ac565b90565b61321d611cc5565b503390565b61323461322f600061216b565b612f76565b61323c61323e565b565b61324e613249613215565b612b7b565b565b613258613222565b565b61326c613267600061216b565b612f76565b613274613276565b565b613288613281612cae565b606561186b565b565b61329261325a565b565b600090565b90565b6132b06132ab6132b592613299565b610d56565b610392565b90565b600090565b6132c5611cc5565b506132ce613294565b506132d882612554565b6132eb6132e5604161329c565b91610392565b146000146133325761332c916132ff612fff565b50613308612fff565b506133116132b8565b5060208101516060604083015192015160001a90919261360c565b91909190565b505061333e600061175e565b90600290565b634e487b7160e01b600052602160045260246000fd5b6005111561336457565b613344565b906133738261335a565b565b60207f7565000000000000000000000000000000000000000000000000000000000000917f45434453413a20696e76616c6964207369676e6174757265202773272076616c60008201520152565b6133d060226040926117a5565b6133d981613375565b0190565b6133f390602081019060008183039101526133c3565b90565b60007f45434453413a20696e76616c6964207369676e6174757265206c656e67746800910152565b61342b601f6020926117a5565b613434816133f6565b0190565b61344e906020810190600081830391015261341e565b90565b60007f45434453413a20696e76616c6964207369676e61747572650000000000000000910152565b61348660186020926117a5565b61348f81613451565b0190565b6134a99060208101906000818303910152613479565b90565b806134c06134ba6000613369565b91613369565b146000146134cb5750565b806134df6134d96001613369565b91613369565b14600014613509576134ef6101c3565b62461bcd60e51b81528061350560048201613493565b0390fd5b8061351d6135176002613369565b91613369565b146000146135475761352d6101c3565b62461bcd60e51b81528061354360048201613438565b0390fd5b61355a6135546003613369565b91613369565b1461356157565b6135696101c3565b62461bcd60e51b81528061357f600482016133dd565b0390fd5b90565b61359a61359561359f92613583565b610d56565b610392565b90565b6135ab9061025d565b9052565b6135b89061219f565b9052565b6135f26135f9946135e86060949897956135de608086019a60008701906135a2565b60208501906135af565b60408301906135a2565b01906135a2565b565b6136036101c3565b3d6000823e3d90fd5b929190613617611cc5565b50613620613294565b5061362a836130a7565b61365c6136567f7fffffffffffffffffffffffffffffff5d576e7357a4501ddfe92f46681b20a0613586565b91610392565b116136d35761367d60009360209592936136746101c3565b948594856135bc565b838052039060015afa156136ce5761369660005161146c565b806136b26136ac6136a7600061175e565b610309565b91610309565b146136bd5790600090565b506136c8600061175e565b90600190565b6135fb565b505050506136e1600061175e565b9060039056fea2646970667358221220d1fc590caf6e6a5e8ce9da4e5bb7d00a612d69e4383bb928d495b5875b87a56964736f6c63430008180033",
  "linkReferences": {},
  "deployedLinkReferences": {}
}