{
  "_format": "hh-sol-artifact-1",
  "contractName": "Tickets",
  "sourceName": "contracts/Tickets.sol",
  "abi": [
    {
      "anonymous": false,
      "inputs": [
        {
          "indexed": true,
          "internalType": "uint256",
          "name": "id",
          "type": "uint256"
        },
        {
          "indexed": true,
          "internalType": "address",
          "name": "oldOwner",
          "type": "address"
        },
        {
          "indexed": true,
          "internalType": "address",
          "name": "newOwner",
          "type": "address"
        }
      ],
      "name": "ChangeTicketOwner",
      "type": "event"
    },
    {
      "anonymous": false,
      "inputs": [
        {
          "indexed": true,
          "internalType": "uint256",
          "name": "id",
          "type": "uint256"
        },
        {
          "indexed": false,
          "internalType": "enum Tickets.TicketType",
          "name": "ticketType",
          "type": "uint8"
        }
      ],
      "name": "ChangeTicketType",
      "type": "event"
    },
    {
      "anonymous": false,
      "inputs": [
        {
          "indexed": true,
          "internalType": "address",
          "name": "holder",
          "type": "address"
        },
        {
          "indexed": true,
          "internalType": "uint256",
          "name": "id",
          "type": "uint256"
        },
        {
          "indexed": false,
          "internalType": "uint256",
          "name": "fee",
          "type": "uint256"
        }
      ],
      "name": "ClaimHolderFee",
      "type": "event"
    },
    {
      "anonymous": false,
      "inputs": [],
      "name": "EndCreatorTradeMigration",
      "type": "event"
    },
    {
      "anonymous": false,
      "inputs": [
        {
          "indexed": false,
          "internalType": "uint8",
          "name": "version",
          "type": "uint8"
        }
      ],
      "name": "Initialized",
      "type": "event"
    },
    {
      "anonymous": false,
      "inputs": [
        {
          "indexed": true,
          "internalType": "uint256",
          "name": "id",
          "type": "uint256"
        },
        {
          "indexed": true,
          "internalType": "address",
          "name": "holder",
          "type": "address"
        },
        {
          "indexed": true,
          "internalType": "uint256",
          "name": "amount",
          "type": "uint256"
        }
      ],
      "name": "MigrateCreatorHolder",
      "type": "event"
    },
    {
      "anonymous": false,
      "inputs": [
        {
          "indexed": true,
          "internalType": "address",
          "name": "previousOwner",
          "type": "address"
        },
        {
          "indexed": true,
          "internalType": "address",
          "name": "newOwner",
          "type": "address"
        }
      ],
      "name": "OwnershipTransferred",
      "type": "event"
    },
    {
      "anonymous": false,
      "inputs": [
        {
          "indexed": false,
          "internalType": "uint256",
          "name": "percent",
          "type": "uint256"
        }
      ],
      "name": "SetCreatorFeePercent",
      "type": "event"
    },
    {
      "anonymous": false,
      "inputs": [
        {
          "indexed": false,
          "internalType": "uint256",
          "name": "percent",
          "type": "uint256"
        }
      ],
      "name": "SetGroupHolderFeePercent",
      "type": "event"
    },
    {
      "anonymous": false,
      "inputs": [
        {
          "indexed": false,
          "internalType": "uint256",
          "name": "percent",
          "type": "uint256"
        }
      ],
      "name": "SetHybridHolderFeePercent",
      "type": "event"
    },
    {
      "anonymous": false,
      "inputs": [
        {
          "indexed": false,
          "internalType": "uint256",
          "name": "percent",
          "type": "uint256"
        }
      ],
      "name": "SetHybridOwnerFeePercent",
      "type": "event"
    },
    {
      "anonymous": false,
      "inputs": [
        {
          "indexed": true,
          "internalType": "address",
          "name": "oracle",
          "type": "address"
        }
      ],
      "name": "SetOracleAddress",
      "type": "event"
    },
    {
      "anonymous": false,
      "inputs": [
        {
          "indexed": true,
          "internalType": "address",
          "name": "destination",
          "type": "address"
        }
      ],
      "name": "SetProtocolFeeDestination",
      "type": "event"
    },
    {
      "anonymous": false,
      "inputs": [
        {
          "indexed": false,
          "internalType": "uint256",
          "name": "percent",
          "type": "uint256"
        }
      ],
      "name": "SetProtocolFeePercent",
      "type": "event"
    },
    {
      "anonymous": false,
      "inputs": [
        {
          "indexed": true,
          "internalType": "uint256",
          "name": "id",
          "type": "uint256"
        },
        {
          "indexed": true,
          "internalType": "address",
          "name": "owner",
          "type": "address"
        },
        {
          "indexed": false,
          "internalType": "enum Tickets.TicketType",
          "name": "ticketType",
          "type": "uint8"
        }
      ],
      "name": "TicketCreated",
      "type": "event"
    },
    {
      "anonymous": false,
      "inputs": [
        {
          "indexed": true,
          "internalType": "uint256",
          "name": "id",
          "type": "uint256"
        }
      ],
      "name": "TicketDeleted",
      "type": "event"
    },
    {
      "anonymous": false,
      "inputs": [
        {
          "indexed": true,
          "internalType": "address",
          "name": "trader",
          "type": "address"
        },
        {
          "indexed": true,
          "internalType": "uint256",
          "name": "id",
          "type": "uint256"
        },
        {
          "indexed": true,
          "internalType": "bool",
          "name": "isBuy",
          "type": "bool"
        },
        {
          "indexed": false,
          "internalType": "uint256",
          "name": "amount",
          "type": "uint256"
        },
        {
          "indexed": false,
          "internalType": "uint256",
          "name": "price",
          "type": "uint256"
        },
        {
          "indexed": false,
          "internalType": "uint256",
          "name": "protocolFee",
          "type": "uint256"
        },
        {
          "indexed": false,
          "internalType": "uint256",
          "name": "ownerFee",
          "type": "uint256"
        },
        {
          "indexed": false,
          "internalType": "uint256",
          "name": "holderFee",
          "type": "uint256"
        },
        {
          "indexed": false,
          "internalType": "uint256",
          "name": "additionalFee",
          "type": "uint256"
        },
        {
          "indexed": false,
          "internalType": "uint256",
          "name": "supply",
          "type": "uint256"
        }
      ],
      "name": "Trade",
      "type": "event"
    },
    {
      "inputs": [
        {
          "internalType": "uint256",
          "name": "id",
          "type": "uint256"
        },
        {
          "internalType": "uint256",
          "name": "amount",
          "type": "uint256"
        },
        {
          "internalType": "bytes",
          "name": "oracleSignature",
          "type": "bytes"
        }
      ],
      "name": "buy",
      "outputs": [],
      "stateMutability": "payable",
      "type": "function"
    },
    {
      "inputs": [
        {
          "internalType": "uint256",
          "name": "price",
          "type": "uint256"
        },
        {
          "internalType": "bytes",
          "name": "oracleSignature",
          "type": "bytes"
        }
      ],
      "name": "calculateAdditionalTokenOwnerFee",
      "outputs": [
        {
          "internalType": "uint256",
          "name": "",
          "type": "uint256"
        }
      ],
      "stateMutability": "view",
      "type": "function"
    },
    {
      "inputs": [
        {
          "internalType": "uint256",
          "name": "id",
          "type": "uint256"
        },
        {
          "internalType": "address",
          "name": "newOwner",
          "type": "address"
        }
      ],
      "name": "changeTicketOwner",
      "outputs": [],
      "stateMutability": "nonpayable",
      "type": "function"
    },
    {
      "inputs": [
        {
          "internalType": "uint256",
          "name": "id",
          "type": "uint256"
        },
        {
          "internalType": "enum Tickets.TicketType",
          "name": "ticketType",
          "type": "uint8"
        }
      ],
      "name": "changeTicketType",
      "outputs": [],
      "stateMutability": "nonpayable",
      "type": "function"
    },
    {
      "inputs": [
        {
          "internalType": "uint256",
          "name": "id",
          "type": "uint256"
        }
      ],
      "name": "claimHolderFee",
      "outputs": [],
      "stateMutability": "nonpayable",
      "type": "function"
    },
    {
      "inputs": [
        {
          "internalType": "uint256",
          "name": "id",
          "type": "uint256"
        },
        {
          "internalType": "address",
          "name": "holder",
          "type": "address"
        }
      ],
      "name": "claimableHolderFee",
      "outputs": [
        {
          "internalType": "uint256",
          "name": "claimable",
          "type": "uint256"
        }
      ],
      "stateMutability": "view",
      "type": "function"
    },
    {
      "inputs": [
        {
          "internalType": "enum Tickets.TicketType",
          "name": "ticketType",
          "type": "uint8"
        }
      ],
      "name": "createTicket",
      "outputs": [
        {
          "internalType": "uint256",
          "name": "id",
          "type": "uint256"
        }
      ],
      "stateMutability": "nonpayable",
      "type": "function"
    },
    {
      "inputs": [],
      "name": "creatorFeePercent",
      "outputs": [
        {
          "internalType": "uint256",
          "name": "",
          "type": "uint256"
        }
      ],
      "stateMutability": "view",
      "type": "function"
    },
    {
      "inputs": [
        {
          "internalType": "uint256",
          "name": "id",
          "type": "uint256"
        }
      ],
      "name": "deleteTicket",
      "outputs": [],
      "stateMutability": "nonpayable",
      "type": "function"
    },
    {
      "inputs": [],
      "name": "endCreatorTradeMigration",
      "outputs": [],
      "stateMutability": "nonpayable",
      "type": "function"
    },
    {
      "inputs": [
        {
          "internalType": "uint256",
          "name": "id",
          "type": "uint256"
        }
      ],
      "name": "exists",
      "outputs": [
        {
          "internalType": "bool",
          "name": "",
          "type": "bool"
        }
      ],
      "stateMutability": "view",
      "type": "function"
    },
    {
      "inputs": [
        {
          "internalType": "uint256",
          "name": "id",
          "type": "uint256"
        },
        {
          "internalType": "uint256",
          "name": "amount",
          "type": "uint256"
        }
      ],
      "name": "getBuyPrice",
      "outputs": [
        {
          "internalType": "uint256",
          "name": "",
          "type": "uint256"
        }
      ],
      "stateMutability": "view",
      "type": "function"
    },
    {
      "inputs": [
        {
          "internalType": "uint256",
          "name": "id",
          "type": "uint256"
        },
        {
          "internalType": "uint256",
          "name": "amount",
          "type": "uint256"
        }
      ],
      "name": "getBuyPriceAfterFee",
      "outputs": [
        {
          "internalType": "uint256",
          "name": "",
          "type": "uint256"
        }
      ],
      "stateMutability": "view",
      "type": "function"
    },
    {
      "inputs": [
        {
          "internalType": "uint256",
          "name": "supply",
          "type": "uint256"
        },
        {
          "internalType": "uint256",
          "name": "amount",
          "type": "uint256"
        }
      ],
      "name": "getPrice",
      "outputs": [
        {
          "internalType": "uint256",
          "name": "",
          "type": "uint256"
        }
      ],
      "stateMutability": "view",
      "type": "function"
    },
    {
      "inputs": [
        {
          "internalType": "uint256",
          "name": "id",
          "type": "uint256"
        },
        {
          "internalType": "uint256",
          "name": "amount",
          "type": "uint256"
        }
      ],
      "name": "getSellPrice",
      "outputs": [
        {
          "internalType": "uint256",
          "name": "",
          "type": "uint256"
        }
      ],
      "stateMutability": "view",
      "type": "function"
    },
    {
      "inputs": [
        {
          "internalType": "uint256",
          "name": "id",
          "type": "uint256"
        },
        {
          "internalType": "uint256",
          "name": "amount",
          "type": "uint256"
        }
      ],
      "name": "getSellPriceAfterFee",
      "outputs": [
        {
          "internalType": "uint256",
          "name": "",
          "type": "uint256"
        }
      ],
      "stateMutability": "view",
      "type": "function"
    },
    {
      "inputs": [],
      "name": "groupHolderFeePercent",
      "outputs": [
        {
          "internalType": "uint256",
          "name": "",
          "type": "uint256"
        }
      ],
      "stateMutability": "view",
      "type": "function"
    },
    {
      "inputs": [
        {
          "internalType": "uint256",
          "name": "",
          "type": "uint256"
        },
        {
          "internalType": "address",
          "name": "",
          "type": "address"
        }
      ],
      "name": "holders",
      "outputs": [
        {
          "internalType": "uint256",
          "name": "balance",
          "type": "uint256"
        },
        {
          "internalType": "int256",
          "name": "feeDebt",
          "type": "int256"
        }
      ],
      "stateMutability": "view",
      "type": "function"
    },
    {
      "inputs": [],
      "name": "hybridHolderFeePercent",
      "outputs": [
        {
          "internalType": "uint256",
          "name": "",
          "type": "uint256"
        }
      ],
      "stateMutability": "view",
      "type": "function"
    },
    {
      "inputs": [],
      "name": "hybridOwnerFeePercent",
      "outputs": [
        {
          "internalType": "uint256",
          "name": "",
          "type": "uint256"
        }
      ],
      "stateMutability": "view",
      "type": "function"
    },
    {
      "inputs": [
        {
          "internalType": "uint256",
          "name": "_baseDivider",
          "type": "uint256"
        },
        {
          "internalType": "address payable",
          "name": "_protocolFeeDestination",
          "type": "address"
        },
        {
          "internalType": "uint256",
          "name": "_protocolFeePercent",
          "type": "uint256"
        },
        {
          "internalType": "uint256",
          "name": "_creatorFeePercent",
          "type": "uint256"
        },
        {
          "internalType": "uint256",
          "name": "_groupHolderFeePercent",
          "type": "uint256"
        },
        {
          "internalType": "uint256",
          "name": "_hybridOwnerFeePercent",
          "type": "uint256"
        },
        {
          "internalType": "uint256",
          "name": "_hybridHolderFeePercent",
          "type": "uint256"
        }
      ],
      "name": "initialize",
      "outputs": [],
      "stateMutability": "nonpayable",
      "type": "function"
    },
    {
      "inputs": [
        {
          "internalType": "address",
          "name": "creator",
          "type": "address"
        },
        {
          "internalType": "address[]",
          "name": "creatorHolders",
          "type": "address[]"
        },
        {
          "internalType": "uint256[]",
          "name": "amounts",
          "type": "uint256[]"
        }
      ],
      "name": "migrateFromCreatorTrade",
      "outputs": [],
      "stateMutability": "nonpayable",
      "type": "function"
    },
    {
      "inputs": [],
      "name": "migratedFromCreatorTrade",
      "outputs": [
        {
          "internalType": "bool",
          "name": "",
          "type": "bool"
        }
      ],
      "stateMutability": "view",
      "type": "function"
    },
    {
      "inputs": [],
      "name": "nextId",
      "outputs": [
        {
          "internalType": "uint256",
          "name": "",
          "type": "uint256"
        }
      ],
      "stateMutability": "view",
      "type": "function"
    },
    {
      "inputs": [],
      "name": "oracleAddress",
      "outputs": [
        {
          "internalType": "address",
          "name": "",
          "type": "address"
        }
      ],
      "stateMutability": "view",
      "type": "function"
    },
    {
      "inputs": [],
      "name": "owner",
      "outputs": [
        {
          "internalType": "address",
          "name": "",
          "type": "address"
        }
      ],
      "stateMutability": "view",
      "type": "function"
    },
    {
      "inputs": [],
      "name": "protocolFeeDestination",
      "outputs": [
        {
          "internalType": "address payable",
          "name": "",
          "type": "address"
        }
      ],
      "stateMutability": "view",
      "type": "function"
    },
    {
      "inputs": [],
      "name": "protocolFeePercent",
      "outputs": [
        {
          "internalType": "uint256",
          "name": "",
          "type": "uint256"
        }
      ],
      "stateMutability": "view",
      "type": "function"
    },
    {
      "inputs": [],
      "name": "renounceOwnership",
      "outputs": [],
      "stateMutability": "nonpayable",
      "type": "function"
    },
    {
      "inputs": [
        {
          "internalType": "uint256",
          "name": "id",
          "type": "uint256"
        },
        {
          "internalType": "uint256",
          "name": "amount",
          "type": "uint256"
        },
        {
          "internalType": "bytes",
          "name": "oracleSignature",
          "type": "bytes"
        }
      ],
      "name": "sell",
      "outputs": [],
      "stateMutability": "nonpayable",
      "type": "function"
    },
    {
      "inputs": [
        {
          "internalType": "uint256",
          "name": "_feePercent",
          "type": "uint256"
        }
      ],
      "name": "setCreatorFeePercent",
      "outputs": [],
      "stateMutability": "nonpayable",
      "type": "function"
    },
    {
      "inputs": [
        {
          "internalType": "uint256",
          "name": "_feePercent",
          "type": "uint256"
        }
      ],
      "name": "setGroupHolderFeePercent",
      "outputs": [],
      "stateMutability": "nonpayable",
      "type": "function"
    },
    {
      "inputs": [
        {
          "internalType": "uint256",
          "name": "_feePercent",
          "type": "uint256"
        }
      ],
      "name": "setHybridHolderFeePercent",
      "outputs": [],
      "stateMutability": "nonpayable",
      "type": "function"
    },
    {
      "inputs": [
        {
          "internalType": "uint256",
          "name": "_feePercent",
          "type": "uint256"
        }
      ],
      "name": "setHybridOwnerFeePercent",
      "outputs": [],
      "stateMutability": "nonpayable",
      "type": "function"
    },
    {
      "inputs": [
        {
          "internalType": "address",
          "name": "_oracle",
          "type": "address"
        }
      ],
      "name": "setOracleAddress",
      "outputs": [],
      "stateMutability": "nonpayable",
      "type": "function"
    },
    {
      "inputs": [
        {
          "internalType": "address payable",
          "name": "_feeDestination",
          "type": "address"
        }
      ],
      "name": "setProtocolFeeDestination",
      "outputs": [],
      "stateMutability": "nonpayable",
      "type": "function"
    },
    {
      "inputs": [
        {
          "internalType": "uint256",
          "name": "_feePercent",
          "type": "uint256"
        }
      ],
      "name": "setProtocolFeePercent",
      "outputs": [],
      "stateMutability": "nonpayable",
      "type": "function"
    },
    {
      "inputs": [
        {
          "internalType": "uint256",
          "name": "",
          "type": "uint256"
        }
      ],
      "name": "tickets",
      "outputs": [
        {
          "internalType": "enum Tickets.TicketType",
          "name": "ticketType",
          "type": "uint8"
        },
        {
          "internalType": "address",
          "name": "owner",
          "type": "address"
        },
        {
          "internalType": "uint256",
          "name": "supply",
          "type": "uint256"
        },
        {
          "internalType": "uint256",
          "name": "accFeePerUnit",
          "type": "uint256"
        }
      ],
      "stateMutability": "view",
      "type": "function"
    },
    {
      "inputs": [
        {
          "internalType": "address",
          "name": "newOwner",
          "type": "address"
        }
      ],
      "name": "transferOwnership",
      "outputs": [],
      "stateMutability": "nonpayable",
      "type": "function"
    },
    {
      "stateMutability": "payable",
      "type": "receive"
    }
  ],
  "bytecode": "0x60806040523462000023576200001462000029565b6152bc6200003582396152bc90f35b6200002f565b60405190565b600080fdfe60806040526004361015610015575b3661144857005b61002060003561028f565b8063063a741f1461028a578063113ea6b0146102855780631efd73a51461028057806321ef70cd1461027b5780632f5ed41c1461027657806349a44aa1146102715780634c69c00f1461026c5780634ce7957c146102675780634f558e791461026257806350b447121461025d57806353613dd3146102585780635a93fb2d146102535780635cf4ee911461024e578063605626251461024957806361b8ce8c146102445780636ff6c4b81461023f578063715018a61461023a5780637809dea6146102355780637d55bf1c146102305780638016625a1461022b5780638da5cb5b1461022657806393681511146102215780639477d85d1461021c578063a10786b014610217578063a498342114610212578063a4b1835a1461020d578063a89ae4ba14610208578063b1a491e014610203578063be099546146101fe578063c157253d146101f9578063c80fda2e146101f4578063cd9c7121146101ef578063d0165de2146101ea578063d1b00a88146101e5578063d44ae68b146101e0578063d6e6eb9f146101db578063ead21a61146101d6578063ec4850af146101d15763f2fde38b0361000e57611415565b6113e0565b61139c565b611339565b6112f4565b6112af565b61123d565b6111f7565b6111c3565b610ff0565b610fbd565b610f87565b610f0c565b610e9f565b610d80565b610d4d565b610cf8565b610cc2565b610c8d565b610c44565b610c0f565b610ba0565b610b6d565b610b3a565b610b05565b610ac1565b610a5d565b610a2a565b6109f5565b610986565b6107c0565b610763565b6106b8565b610635565b6105fb565b61051c565b6104f2565b61037d565b610322565b60e01c90565b60405190565b600080fd5b600080fd5b600080fd5b90565b6102b6816102aa565b036102bd57565b600080fd5b905035906102cf826102ad565b565b91906040838203126102fa57806102ee6102f792600086016102c2565b936020016102c2565b90565b6102a0565b610308906102aa565b9052565b9190610320906000602085019401906102ff565b565b346103535761034f61033e6103383660046102d1565b90611538565b610346610295565b9182918261030c565b0390f35b61029b565b906020828203126103725761036f916000016102c2565b90565b6102a0565b60000190565b346103ab57610395610390366004610358565b611827565b61039d610295565b806103a781610377565b0390f35b61029b565b600080fd5b600080fd5b601f801991011690565b634e487b7160e01b600052604160045260246000fd5b906103e4906103ba565b810190811067ffffffffffffffff8211176103fe57604052565b6103c4565b9061041661040f610295565b92836103da565b565b67ffffffffffffffff8111610436576104326020916103ba565b0190565b6103c4565b90826000939282370152565b9092919261045c61045782610418565b610403565b93818552602085019082840111610478576104769261043b565b565b6103b5565b9080601f8301121561049b5781602061049893359101610447565b90565b6103b0565b916060838303126104ed576104b882600085016102c2565b926104c683602083016102c2565b92604082013567ffffffffffffffff81116104e8576104e5920161047d565b90565b6102a5565b6102a0565b6105066105003660046104a0565b91612262565b61050e610295565b8061051881610377565b0390f35b3461054a5761053461052f366004610358565b6122c8565b61053c610295565b8061054681610377565b0390f35b61029b565b60018060a01b031690565b6105639061054f565b90565b61056f8161055a565b0361057657565b600080fd5b9050359061058882610566565b565b60e0818303126105f6576105a182600083016102c2565b926105af836020840161057b565b926105bd81604085016102c2565b926105cb82606083016102c2565b926105f36105dc84608085016102c2565b936105ea8160a086016102c2565b9360c0016102c2565b90565b6102a0565b346106305761061a61060e36600461058a565b959490949391936127cd565b610622610295565b8061062c81610377565b0390f35b61029b565b346106645761064e6106483660046104a0565b91612ec3565b610656610295565b8061066081610377565b0390f35b61029b565b6106729061054f565b90565b61067e81610669565b0361068557565b600080fd5b9050359061069782610675565b565b906020828203126106b3576106b09160000161068a565b90565b6102a0565b346106e6576106d06106cb366004610699565b612f50565b6106d8610295565b806106e281610377565b0390f35b61029b565b60009103126106f657565b6102a0565b1c90565b60018060a01b031690565b61071a90600861071f93026106fb565b6106ff565b90565b9061072d915461070a565b90565b61073d6098600090610722565b90565b6107499061055a565b9052565b919061076190600060208501940190610740565b565b34610793576107733660046106eb565b61078f61077e610730565b610786610295565b9182918261074d565b0390f35b61029b565b151590565b6107a690610798565b9052565b91906107be9060006020850194019061079d565b565b346107f0576107ec6107db6107d6366004610358565b612f88565b6107e3610295565b918291826107aa565b0390f35b61029b565b90565b61080c610807610811926102aa565b6107f5565b6102aa565b90565b9061081e906107f8565b600052602052604060002090565b60001c90565b60ff1690565b6108446108499161082c565b610832565b90565b6108569054610838565b90565b60081c90565b60018060a01b031690565b61087661087b91610859565b61085f565b90565b610888905461086a565b90565b90565b61089a61089f9161082c565b61088b565b90565b6108ac905461088e565b90565b6108ba9060a0610814565b906108c76000830161084c565b916108d46000820161087e565b916108ed60026108e6600185016108a2565b93016108a2565b90565b634e487b7160e01b600052602160045260246000fd5b6003111561091057565b6108f0565b9061091f82610906565b565b61092a90610915565b90565b61093690610921565b9052565b61094390610669565b9052565b61097d61098494610973606094989795610969608086019a600087019061092d565b602085019061093a565b60408301906102ff565b01906102ff565b565b346109ba576109b66109a161099c366004610358565b6108af565b906109ad949294610295565b94859485610947565b0390f35b61029b565b6109cf9060086109d493026106fb565b61088b565b90565b906109e291546109bf565b90565b6109f2609b6000906109d7565b90565b34610a2557610a053660046106eb565b610a21610a106109e5565b610a18610295565b9182918261030c565b0390f35b61029b565b34610a5857610a42610a3d366004610358565b613154565b610a4a610295565b80610a5481610377565b0390f35b61029b565b34610a8e57610a8a610a79610a733660046102d1565b906132ba565b610a81610295565b9182918261030c565b0390f35b61029b565b9190604083820312610abc5780610ab0610ab992600086016102c2565b9360200161068a565b90565b6102a0565b34610af057610ada610ad4366004610a93565b90613480565b610ae2610295565b80610aec81610377565b0390f35b61029b565b610b02609f6000906109d7565b90565b34610b3557610b153660046106eb565b610b31610b20610af5565b610b28610295565b9182918261030c565b0390f35b61029b565b34610b6857610b52610b4d366004610358565b613579565b610b5a610295565b80610b6481610377565b0390f35b61029b565b34610b9b57610b7d3660046106eb565b610b856135aa565b610b8d610295565b80610b9781610377565b0390f35b61029b565b34610bce57610bb8610bb3366004610358565b6136e7565b610bc0610295565b80610bca81610377565b0390f35b61029b565b60ff1690565b610be9906008610bee93026106fb565b610bd3565b90565b90610bfc9154610bd9565b90565b610c0c60a2600090610bf1565b90565b34610c3f57610c1f3660046106eb565b610c3b610c2a610bff565b610c32610295565b918291826107aa565b0390f35b61029b565b34610c7257610c5c610c57366004610358565b61374b565b610c64610295565b80610c6e81610377565b0390f35b61029b565b9190610c8b9060006020850194019061093a565b565b34610cbd57610c9d3660046106eb565b610cb9610ca861377c565b610cb0610295565b91829182610c77565b0390f35b61029b565b34610cf357610cef610cde610cd8366004610a93565b90613801565b610ce6610295565b9182918261030c565b0390f35b61029b565b34610d2957610d25610d14610d0e3660046102d1565b90613896565b610d1c610295565b9182918261030c565b0390f35b61029b565b90602082820312610d4857610d459160000161057b565b90565b6102a0565b34610d7b57610d65610d60366004610d2e565b61392b565b610d6d610295565b80610d7781610377565b0390f35b61029b565b34610dae57610d98610d93366004610358565b61398f565b610da0610295565b80610daa81610377565b0390f35b61029b565b90610dbd906107f8565b600052602052604060002090565b610ddf610dda610de49261054f565b6107f5565b61054f565b90565b610df090610dcb565b90565b610dfc90610de7565b90565b90610e0990610df3565b600052602052604060002090565b90565b610e26610e2b9161082c565b610e17565b90565b610e389054610e1a565b90565b90610e4a610e4f9260a1610db3565b610dff565b90610e686001610e61600085016108a2565b9301610e2e565b90565b90565b610e7790610e6b565b9052565b916020610e9d929493610e96604082019660008301906102ff565b0190610e6e565b565b34610ed157610eb8610eb2366004610a93565b90610e3b565b90610ecd610ec4610295565b92839283610e7b565b0390f35b61029b565b610ee6906008610eeb93026106fb565b61085f565b90565b90610ef99154610ed6565b90565b610f09609a600090610eee565b90565b34610f3c57610f1c3660046106eb565b610f38610f27610efc565b610f2f610295565b91829182610c77565b0390f35b61029b565b919091604081840312610f8257610f5b83600083016102c2565b92602082013567ffffffffffffffff8111610f7d57610f7a920161047d565b90565b6102a5565b6102a0565b34610fb857610fb4610fa3610f9d366004610f41565b90613ae5565b610fab610295565b9182918261030c565b0390f35b61029b565b34610feb57610fcd3660046106eb565b610fd5613d16565b610fdd610295565b80610fe781610377565b0390f35b61029b565b346110215761101d61100c6110063660046102d1565b90613d20565b611014610295565b9182918261030c565b0390f35b61029b565b67ffffffffffffffff811161103e5760208091020190565b6103c4565b600080fd5b9092919261105d61105882611026565b610403565b938185526020808601920283019281841161109a57915b8383106110815750505050565b6020809161108f848661068a565b815201920191611074565b611043565b9080601f830112156110bd578160206110ba93359101611048565b90565b6103b0565b67ffffffffffffffff81116110da5760208091020190565b6103c4565b909291926110f46110ef826110c2565b610403565b938185526020808601920283019281841161113157915b8383106111185750505050565b6020809161112684866102c2565b81520192019161110b565b611043565b9080601f8301121561115457816020611151933591016110df565b90565b6103b0565b916060838303126111be57611171826000850161068a565b92602081013567ffffffffffffffff81116111b9578361119291830161109f565b92604082013567ffffffffffffffff81116111b4576111b19201611136565b90565b6102a5565b6102a5565b6102a0565b346111f2576111dc6111d6366004611159565b91614193565b6111e4610295565b806111ee81610377565b0390f35b61029b565b346112285761122461121361120d3660046102d1565b906141a0565b61121b610295565b9182918261030c565b0390f35b61029b565b61123a609c6000906109d7565b90565b3461126d5761124d3660046106eb565b61126961125861122d565b611260610295565b9182918261030c565b0390f35b61029b565b6003111561127c57565b600080fd5b9050359061128e82611272565b565b906020828203126112aa576112a791600001611281565b90565b6102a0565b346112df576112db6112ca6112c5366004611290565b6143f6565b6112d2610295565b9182918261030c565b0390f35b61029b565b6112f1609e6000906109d7565b90565b34611324576113043660046106eb565b61132061130f6112e4565b611317610295565b9182918261030c565b0390f35b61029b565b61133660996000906109d7565b90565b34611369576113493660046106eb565b611365611354611329565b61135c610295565b9182918261030c565b0390f35b61029b565b9190604083820312611397578061138b61139492600086016102c2565b93602001611281565b90565b6102a0565b346113cb576113b56113af36600461136e565b906144ff565b6113bd610295565b806113c781610377565b0390f35b61029b565b6113dd609d6000906109d7565b90565b34611410576113f03660046106eb565b61140c6113fb6113d0565b611403610295565b9182918261030c565b0390f35b61029b565b346114435761142d611428366004610699565b61467b565b611435610295565b8061143f81610377565b0390f35b61029b565b600080fd5b600090565b634e487b7160e01b600052601160045260246000fd5b61147761147d919392936102aa565b926102aa565b916114898382026102aa565b92818404149015171561149857565b611452565b90565b6114b46114af6114b99261149d565b6107f5565b6102aa565b90565b634e487b7160e01b600052601260045260246000fd5b6114de6114e4916102aa565b916102aa565b9081156114ef570490565b6114bc565b90565b61150b611506611510926114f4565b6107f5565b6102aa565b90565b611522611528919392936102aa565b926102aa565b820180921161153357565b611452565b61154e6116389261154761144d565b5082613d20565b61157c6115658261155f60996108a2565b90611468565b611576670de0b6b3a76400006114a0565b906114d2565b61158461144d565b61158c61144d565b936115a4600061159e60a08490610814565b0161084c565b6115b76115b16000610915565b91610915565b1460001461163b57505081925061162e6115f86115e1611633946115db609b6108a2565b90611468565b6115f2670de0b6b3a76400006114a0565b906114d2565b916116276116108661160a60006114f7565b90611468565b611621670de0b6b3a76400006114a0565b906114d2565b945b611513565b611513565b611513565b90565b611652600061164c60a08490610814565b0161084c565b61166561165f6001610915565b91610915565b146000146116dc57505081925061162e6116a661168f6116339461168960006114f7565b90611468565b6116a0670de0b6b3a76400006114a0565b906114d2565b916116d56116be866116b8609c6108a2565b90611468565b6116cf670de0b6b3a76400006114a0565b906114d2565b945b611629565b60006116ef6116f59260a0969496610814565b0161084c565b6117086117026002610915565b91610915565b1461171c575b611633929161162e916116d7565b9250611633915061162e61175461173d85611737609d6108a2565b90611468565b61174e670de0b6b3a76400006114a0565b906114d2565b9161178361176c86611766609e6108a2565b90611468565b61177d670de0b6b3a76400006114a0565b906114d2565b94915091925061170e565b61179f9061179a614709565b6117e1565b565b60001b90565b906117b4600019916117a1565b9181191691161790565b90565b906117d66117d16117dd926107f8565b6117be565b82546117a7565b9055565b6117ec81609c6117c1565b6118227fc4b353a0bbd99f4ffaa53bd260ce68719b0bbf53cea578fc8a2679564fd5326591611819610295565b9182918261030c565b0390a1565b6118309061178e565b565b9061184592916118406147c6565b611cdd565b61184d614814565b565b60209181520190565b60007f5469636b657420646f6573206e6f742065786973740000000000000000000000910152565b61188d601560209261184f565b61189681611858565b0190565b6118b09060208101906000818303910152611880565b90565b156118ba57565b6118c2610295565b62461bcd60e51b8152806118d86004820161189a565b0390fd5b906118e690610915565b9052565b906118f490610669565b9052565b90611902906102aa565b9052565b6119106080610403565b90565b9061197c6119736002611924611906565b9461193d6119346000830161084c565b600088016118dc565b61195561194c6000830161087e565b602088016118ea565b61196d611964600183016108a2565b604088016118f8565b016108a2565b606084016118f8565b565b61198790611913565b90565b61199961199f919392936102aa565b926102aa565b82039182116119aa57565b611452565b6119b99051610915565b90565b60007f496e73756666696369656e742066756e64730000000000000000000000000000910152565b6119f1601260209261184f565b6119fa816119bc565b0190565b611a1490602081019060008183039101526119e4565b90565b15611a1e57565b611a26610295565b62461bcd60e51b815280611a3c600482016119fe565b0390fd5b90565b611a4d90516102aa565b90565b90565b611a67611a62611a6c92611a50565b6107f5565b6102aa565b90565b611a7a612710611a53565b90565b611a91611a8c611a96926102aa565b6107f5565b610e6b565b90565b611aa8611aae91939293610e6b565b92610e6b565b80830192600082851215818312169285129112151617611aca57565b611452565b611ae3611ade611ae892610e6b565b6107f5565b610e6b565b90565b90565b90611b03611afe611b0a92611acf565b611aeb565b82546117a7565b9055565b634e487b7160e01b600052600060045260246000fd5b90611b3060ff916117a1565b9181191691161790565b611b4390610915565b90565b90565b90611b5e611b59611b6592611b3a565b611b46565b8254611b24565b9055565b611b739051610669565b90565b60081b90565b90611b8f610100600160a81b0391611b76565b9181191691161790565b90565b90611bb1611bac611bb892610df3565b611b99565b8254611b7c565b9055565b90611c1b60606002611c2194611be160008201611bdb600088016119af565b90611b49565b611bfa60008201611bf460208801611b69565b90611b9c565b611c1360018201611c0d60408801611a43565b906117c1565b019201611a43565b906117c1565b565b90611c2d91611bbc565b565b611c3b611c409161082c565b6106ff565b90565b611c4d9054611c2f565b90565b611c5990610dcb565b90565b611c6590611c50565b90565b611c7190610798565b90565b949290979695939160e086019860008701611c8e916102ff565b60208601611c9b916102ff565b60408501611ca8916102ff565b60608401611cb5916102ff565b60808301611cc2916102ff565b60a08201611ccf916102ff565b60c001611cdb916102ff565b565b91611cef611cea84612f88565b6118b3565b611d03611cfe60a08590610814565b61197e565b92611d19611d12828590613d20565b9283613ae5565b91611d52611d4b611d3483611d2e60996108a2565b90611468565b611d45670de0b6b3a76400006114a0565b906114d2565b849061198a565b90611d5b61144d565b611d6361144d565b611d6f600089016119af565b611d82611d7c6000610915565b91610915565b1460001461206c575050828282611d99609b6108a2565b611da291611468565b670de0b6b3a7640000611db4906114a0565b611dbd916114d2565b86611dc791611513565b9783888a6000611dd6906114f7565b94611e8a611e85611e77611e44611e3f611e38611fba9c611e31611ea19b611e2a8f611e1f611e2491611e1a611e9b9f60019f611e15905b3498611513565b611513565b611513565b6102aa565b916102aa565b1015611a17565b60a1610db3565b3390610dff565b611a40565b95611e6581611e5f60008a0191611e5a836108a2565b611513565b906117c1565b611e7160608a01611a43565b90611468565b611e7f611a6f565b906114d2565b611a7d565b920191611e9683610e2e565b611a99565b90611aee565b611ec188611ebb6040840191611eb683611a43565b611513565b906118f8565b81611ed5611ecf60006114f7565b916102aa565b11612021575b611ef081611eeb60a08990610814565b611c23565b611f04611efd6098611c43565b86906149ca565b88611f18611f1260006114f7565b916102aa565b11611ffe575b34611f4e611f48611f43611f3c8d611f378a8c90611513565b611513565b8690611513565b6102aa565b916102aa565b11611fbf575b339596611f6b604060019a96979b94929301611a43565b92611fa8611fa2611f9c7fc9eb3cd369a1da18b8489f028fd6a49d0aca6d6ad28c01fe1451126ce41a7fa49a610df3565b9a6107f8565b9a611c68565b9a611fb1610295565b97889788611c74565b0390a4565b611ff9611feb611fe4611fdd611fd634899061198a565b899061198a565b8c9061198a565b849061198a565b611ff433611c5c565b6149ca565b611f54565b61201c61201561201060208401611b69565b611c5c565b8a906149ca565b611f1e565b61206761204b61203984612033611a6f565b90611468565b61204560408501611a43565b906114d2565b612061606084019161205c83611a43565b611513565b906118f8565b611edb565b612078600089016119af565b61208b6120856001610915565b91610915565b1460001461211c575050828260006120a2906114f7565b9783888a826120b1609c6108a2565b6120ba91611468565b670de0b6b3a76400006120cc906114a0565b6120d5916114d2565b8a6120df91611513565b94611e8a611e85611e77611e44611e3f611e38611fba9c611e31611ea19b611e2a8f611e1f611e2491611e1a611e9b9f60019f611e15905b611e0e565b909661212a600082016119af565b61213d6121376002610915565b91610915565b14612182575b90611fba91611ea188611e9b6001611e8a611e85611e778f611e3f611e388f8f8f611e2a8f611e1f611e2491611e1a611e449a611e15611e3198612117565b9650508282612191609d6108a2565b61219b609e6108a2565b6121a491611513565b978388816121b2609d6108a2565b6121bb91611468565b670de0b6b3a76400006121cd906114a0565b6121d6916114d2565b896121e1609d6108a2565b6121ea91611468565b8c6121f4916114d2565b6121fd91611513565b809b8361220a609e6108a2565b61221391611468565b670de0b6b3a7640000612225906114a0565b61222e916114d2565b908b61223a609e6108a2565b61224391611468565b9061224d916114d2565b61225691611513565b95505050509050612143565b9061226d9291611832565b565b6122809061227b614709565b612282565b565b61228d81609d6117c1565b6122c37fd5bcbb296d36816e7fd5fca2575619a47e5b532714f57592b4b3af23a0368e11916122ba610295565b9182918261030c565b0390a1565b6122d19061226f565b565b6122df6122e491610859565b610bd3565b90565b6122f190546122d3565b90565b60ff1690565b61230661230b9161082c565b6122f4565b90565b61231890546122fa565b90565b60ff1690565b90565b61233861233361233d92612321565b6107f5565b61231b565b90565b61234990610de7565b90565b60207f647920696e697469616c697a6564000000000000000000000000000000000000917f496e697469616c697a61626c653a20636f6e747261637420697320616c72656160008201520152565b6123a7602e60409261184f565b6123b08161234c565b0190565b6123ca906020810190600081830391015261239a565b90565b156123d457565b6123dc610295565b62461bcd60e51b8152806123f2600482016123b4565b0390fd5b61240a61240561240f9261231b565b6107f5565b61231b565b90565b90565b9061242a612425612431926123f6565b612412565b8254611b24565b9055565b9061244261ff0091611b76565b9181191691161790565b90565b9061246461245f61246b92611c68565b61244c565b8254612435565b9055565b61247890612324565b9052565b91906124909060006020850194019061246f565b565b9593916124e59593916124ae6124a860006122e7565b15610798565b978880612597575b8015612548575b6124c6906123cd565b6124da6124d36001612324565b6000612415565b88612537575b612611565b6124ec575b565b6124f760008061244f565b600161252f7f7f26b83ff96e1f2b6a682f133852f6798a09c465da95921460cefb384740249891612526610295565b9182918261247c565b0390a16124ea565b6125436001600061244f565b6124e0565b5061256361255d61255830612340565b614a28565b15610798565b8061256e575b6124bd565b506124c661257c600061230e565b61258f6125896001612324565b9161231b565b149050612569565b506125a2600061230e565b6125b56125af6001612324565b9161231b565b106124b6565b906125cc60018060a01b03916117a1565b9181191691161790565b6125df90611c50565b90565b90565b906125fa6125f5612601926125d6565b6125e2565b82546125bb565b9055565b61260e90610de7565b90565b61262c9061261d614b19565b612625614b49565b60976117c1565b6126378160986125e5565b6126428260996117c1565b61264d83609b6117c1565b61265884609c6117c1565b61266385609d6117c1565b61266e86609e6117c1565b6126987f72fe3f5fb15c2671900303001fbe3a8adf9df5c76bfd269a9508c8753b9c35c991612605565b906126a1610295565b806126ab81610377565b0390a26126e47f98d1698e9a7ee55a2ded97de72077c93add26ce8534679021d0e7c44edcb325b916126db610295565b9182918261030c565b0390a161271d7fcac5fb194ae0d660ab1b68f6561a22ab792ca0bbe87b5392c3ec528fc25a0c0f91612714610295565b9182918261030c565b0390a16127567fc4b353a0bbd99f4ffaa53bd260ce68719b0bbf53cea578fc8a2679564fd532659161274d610295565b9182918261030c565b0390a161278f7fd5bcbb296d36816e7fd5fca2575619a47e5b532714f57592b4b3af23a0368e1191612786610295565b9182918261030c565b0390a16127c87f3e7c41cff017fe49c76f9e1124e07a6c1f7e4b3c62d830e4250df793a7a0cccc916127bf610295565b9182918261030c565b0390a1565b906127dc969594939291612492565b565b906127f192916127ec6147c6565b61297b565b6127f9614814565b565b61280f61280a61281492612321565b6107f5565b6102aa565b90565b60207f31207469636b6574000000000000000000000000000000000000000000000000917f5469636b6574206f776e6572206d7573742068617665206174206c656173742060008201520152565b612872602860409261184f565b61287b81612817565b0190565b6128959060208101906000818303910152612865565b90565b1561289f57565b6128a7610295565b62461bcd60e51b8152806128bd6004820161287f565b0390fd5b60007f496e73756666696369656e742062616c616e6365000000000000000000000000910152565b6128f6601460209261184f565b6128ff816128c1565b0190565b61291990602081019060008183039101526128e9565b90565b1561292357565b61292b610295565b62461bcd60e51b81528061294160048201612903565b0390fd5b61295461295a91939293610e6b565b92610e6b565b9182810392600082851281831216928513911215161761297657565b611452565b9161298d61298884612f88565b6118b3565b6129a161299c60a08590610814565b61197e565b926129b76129b0828590613896565b9283613ae5565b916129f06129e96129d2836129cc60996108a2565b90611468565b6129e3670de0b6b3a76400006114a0565b906114d2565b849061198a565b906129f961144d565b612a0161144d565b612a0d600089016119af565b612a20612a1a6000610915565b91610915565b14600014612d18575050612c6e85612a66612a5f612a4885612a42609b6108a2565b90611468565b612a59670de0b6b3a76400006114a0565b906114d2565b8790611513565b97612baa86612ba46001612b93612b8e612b80612a8360006114f7565b985b612b26612aa6612aa1612a9a60a18b90610db3565b3390610dff565b611a40565b97612ab360208c01611b69565b612ac5612abf33610669565b91610669565b14158015612ce3575b612ad790612898565b8b8b81612aed612ae760006114f7565b916102aa565b11612c96575b612b159150612b0f604086920191612b0a83611a43565b61198a565b906118f8565b612b218b9160a0610814565b611c23565b612b4e612b35600089016108a2565b612b47612b41846102aa565b916102aa565b101561291c565b612b6e81612b6860008a0191612b63836108a2565b61198a565b906117c1565b612b7a60608a01611a43565b90611468565b612b88611a6f565b906114d2565b611a7d565b920191612b9f83610e2e565b612945565b90611aee565b612bda612bcc612bc5612bbe87899061198a565b8c9061198a565b849061198a565b612bd533611c5c565b6149ca565b88612bee612be860006114f7565b916102aa565b11612c73575b612c08612c016098611c43565b86906149ca565b339596612c1f604060009a96979b94929301611a43565b92612c5c612c56612c507fc9eb3cd369a1da18b8489f028fd6a49d0aca6d6ad28c01fe1451126ce41a7fa49a610df3565b9a6107f8565b9a611c68565b9a612c65610295565b97889788611c74565b0390a4565b612c91612c8a612c8560208401611b69565b611c5c565b8a906149ca565b612bf4565b612cd66060612cc5612cb3612cdc95612cad611a6f565b90611468565b612cbf60408601611a43565b906114d2565b920191612cd183611a43565b611513565b906118f8565b8b8b612af3565b50612ad7612cfd612cf660008c016108a2565b859061198a565b612d0f612d098a6127fb565b916102aa565b10159050612ace565b612d24600089016119af565b612d37612d316001610915565b91610915565b14600014612da557505082856000612d4e906114f7565b9783612d5a609c6108a2565b612d6391611468565b670de0b6b3a7640000612d75906114a0565b612d7e916114d2565b87612d8891611513565b91612c6e93612ba46001612b93612b8e612b80612baa965b612a85565b9096612db3600082016119af565b612dc6612dc06002610915565b91610915565b14612de9575b90612c6e91612baa86612ba46001612b93612b8e612b808e612da0565b9650508285612df8609d6108a2565b612e02609e6108a2565b612e0b91611513565b9783612e17609d6108a2565b612e2091611468565b670de0b6b3a7640000612e32906114a0565b612e3b916114d2565b87612e46609d6108a2565b612e4f91611468565b8a612e59916114d2565b612e6291611513565b9884612e6e609e6108a2565b612e7791611468565b670de0b6b3a7640000612e89906114a0565b612e92916114d2565b9088612e9e609e6108a2565b612ea791611468565b90612eb1916114d2565b612eba91611513565b92509050612dcc565b90612ece92916127de565b565b612ee190612edc614709565b612f03565b565b90612ef8612ef3612eff92610df3565b611b99565b82546125bb565b9055565b612f0e81609a612ee3565b612f387f0adef86c673dfdb102affe9a454acea4a42a305e1feb982b4b2c97da980454a991610df3565b90612f41610295565b80612f4b81610377565b0390a2565b612f5990612ed0565b565b600090565b612f74612f6f612f79926114f4565b6107f5565b61054f565b90565b612f8590612f60565b90565b6000612fa1612fa792612f99612f5b565b5060a0610814565b0161087e565b612fc2612fbc612fb76000612f7c565b610669565b91610669565b141590565b60007f4e6f74207469636b6574206f776e657200000000000000000000000000000000910152565b612ffc601060209261184f565b61300581612fc7565b0190565b61301f9060208101906000818303910152612fef565b90565b1561302957565b613031610295565b62461bcd60e51b81528061304760048201613009565b0390fd5b1b90565b9190600861306b9102916130656000198461304b565b9261304b565b9181191691161790565b919061308b613086613093936107f8565b6117be565b90835461304f565b9055565b6130a9916130a361144d565b91613075565b565b600060026130cb9282808201556130c58360018301613097565b01613097565b565b906000036130e0576130de906130ab565b565b611b0e565b91906130fb6130f661310393611acf565b611aeb565b90835461304f565b9055565b600090565b61311e91613118613107565b916130e5565b565b6000600161313a9261313483808301613097565b0161310c565b565b9060000361314f5761314d90613120565b565b611b0e565b61316b600061316560a08490610814565b0161087e565b61317d61317733610669565b91610669565b148061324b575b8061320b575b61319390613022565b6131a960006131a460a08490610814565b6130cd565b6131c960006131c46131bd60a18590610db3565b3390610dff565b61313c565b6131f37f199e5a3d019c3fed67021a47a1efa7f9aa4ff90bac183094d632d885c15f5418916107f8565b906131fc610295565b8061320681610377565b0390a2565b50613193613230600061322a61322360a18690610db3565b3390610dff565b016108a2565b61324361323d60016127fb565b916102aa565b14905061318a565b50613263600161325d60a08490610814565b016108a2565b61327661327060016127fb565b916102aa565b14613184565b90565b61329361328e6132989261327c565b6107f5565b6102aa565b90565b90565b6132b26132ad6132b79261329b565b6107f5565b6102aa565b90565b61332a61334191613351936132cd61144d565b50816132e26132dc60006114f7565b916102aa565b14600014613407576132f460006114f7565b5b918061330a61330460006114f7565b916102aa565b14806133ec575b60001461335457505061332460006114f7565b5b61198a565b61333b670de0b6b3a76400006114a0565b90611468565b61334b60976108a2565b906114d2565b90565b6133e7916133d16133c1836133bc6133b661339a6133896133826133d79961337c60016127fb565b9061198a565b8890611513565b613394858990611513565b90611468565b956133b16002946133ab60016127fb565b9061198a565b611513565b9161327f565b611468565b6133cb60016127fb565b90611513565b90611468565b6133e1600661329e565b906114d2565b613325565b50816134016133fb60016127fb565b916102aa565b14613311565b61347b61346b61342b6134248561341e60016127fb565b9061198a565b8590611468565b613465613455600261345061344a8961344460016127fb565b9061198a565b9161327f565b611468565b61345f60016127fb565b90611513565b90611468565b613475600661329e565b906114d2565b6132f5565b6134b261349a600061349460a08590610814565b0161087e565b6134ac6134a633610669565b91610669565b14613022565b6134ca8260006134c460a08590610814565b01611b9c565b90336135086135026134fc7fd972b256beacd551c7d700edcb6b1fbbe2d9aa9eada7159a993c225147c478ae956107f8565b92610df3565b92610df3565b92613511610295565b8061351b81610377565b0390a4565b6135319061352c614709565b613533565b565b61353e81609b6117c1565b6135747fcac5fb194ae0d660ab1b68f6561a22ab792ca0bbe87b5392c3ec528fc25a0c0f9161356b610295565b9182918261030c565b0390a1565b61358290613520565b565b61358c614709565b613594613596565b565b6135a86135a36000612f7c565b614b53565b565b6135b2613584565b565b6135c5906135c06147c6565b6135eb565b6135cd614814565b565b6135e36135de6135e892610e6b565b6107f5565b6102aa565b90565b6135ff6135fa60a08390610814565b61197e565b61368361365b61365661364861362961362461361d60a18990610db3565b3390610dff565b611a40565b94613642606061363b600089016108a2565b9201611a43565b90611468565b613650611a6f565b906114d2565b611a7d565b91600161367b61367685613670848601610e2e565b90612945565b6135cf565b939101611aee565b61369661368f33611c5c565b82906149ca565b339190916136e26136d06136ca7f841d6c5238e11a6af9cd83b97e21794b68bde1ed5e5d2733abc5bfc611ce51ca93610df3565b936107f8565b936136d9610295565b9182918261030c565b0390a3565b6136f0906135b4565b565b613703906136fe614709565b613705565b565b61371081609e6117c1565b6137467f3e7c41cff017fe49c76f9e1124e07a6c1f7e4b3c62d830e4250df793a7a0cccc9161373d610295565b9182918261030c565b0390a1565b613754906136f2565b565b600090565b61376761376c9161082c565b61085f565b90565b613779905461375b565b90565b613784613756565b5061378f603361376f565b90565b9061379c90610e6b565b9052565b6137aa6040610403565b90565b906137e66137dd60016137be6137a0565b946137d76137ce600083016108a2565b600088016118f8565b01610e2e565b60208401613792565b565b6137f1906137ad565b90565b6137fe9051610e6b565b90565b61388e90613888602061388161387c61386e61384f61384a6138939961382561144d565b5061384561383d61383860a08c90610814565b61197e565b9960a1610db3565b610dff565b6137e8565b95613868606061386160008a01611a43565b9201611a43565b90611468565b613876611a6f565b906114d2565b611a7d565b92016137f4565b90612945565b6135cf565b90565b906138c36138bc60016138b66138c8956138ae61144d565b5060a0610814565b016108a2565b829061198a565b6132ba565b90565b6138dc906138d7614709565b6138de565b565b6138e98160986125e5565b6139137f72fe3f5fb15c2671900303001fbe3a8adf9df5c76bfd269a9508c8753b9c35c991612605565b9061391c610295565b8061392681610377565b0390a2565b613934906138cb565b565b61394790613942614709565b613949565b565b6139548160996117c1565b61398a7f98d1698e9a7ee55a2ded97de72077c93add26ce8534679021d0e7c44edcb325b91613981610295565b9182918261030c565b0390a1565b61399890613936565b565b5190565b90565b6139ad6139b2916102aa565b61399e565b9052565b6020816139c86139d0938396956139a1565b0180926139a1565b0190565b60200190565b90565b60007f50616c3a20496e76616c696420646174612070726f7669646564000000000000910152565b613a12601a60209261184f565b613a1b816139dd565b0190565b613a359060208101906000818303910152613a05565b90565b15613a3f57565b613a47610295565b62461bcd60e51b815280613a5d60048201613a1f565b0390fd5b60007f50616c3a20496e76616c6964206f7261636c65207369676e6174757265000000910152565b613a96601d60209261184f565b613a9f81613a61565b0190565b613ab99060208101906000818303910152613a89565b90565b15613ac357565b613acb610295565b62461bcd60e51b815280613ae160048201613aa3565b0390fd5b613aed61144d565b50613af78261399a565b613b0a613b0460006114f7565b916102aa565b14613bd15781613bb791613bb2613b91613b26613bce96614cf4565b949094613b8c613b7386613b5b8991613b4c613b40610295565b938492602084016139b6565b602082018103825203826103da565b613b6d613b678261399a565b916139d4565b20614d71565b91613b86613b80846139da565b916139da565b14613a38565b614da9565b613bac613ba6613ba1609a61376f565b610669565b91610669565b14613abc565b611468565b613bc8670de0b6b3a76400006114a0565b906114d2565b90565b5050613bdd60006114f7565b90565b613be8614709565b613bf0613cb7565b565b613bfe613c039161082c565b610bd3565b90565b613c109054613bf2565b90565b60007f4d6967726174696f6e20616c726561647920656e646564000000000000000000910152565b613c48601760209261184f565b613c5181613c13565b0190565b613c6b9060208101906000818303910152613c3b565b90565b15613c7557565b613c7d610295565b62461bcd60e51b815280613c9360048201613c55565b0390fd5b90613cac613ca7613cb392611c68565b61244c565b8254611b24565b9055565b613cd2613ccd613cc760a2613c06565b15610798565b613c6e565b613cde600160a2613c97565b7f800a384e4b903b28b08c997007cc44078eafe3e6f09ce1f52af1171108730ac1613d07610295565b80613d1181610377565b0390a1565b613d1e613be0565b565b90613d436001613d3d613d4894613d3561144d565b5060a0610814565b016108a2565b6132ba565b90565b90613d5e9291613d59614709565b613f15565b565b60007f416c7265616479206d6967726174656400000000000000000000000000000000910152565b613d95601060209261184f565b613d9e81613d60565b0190565b613db89060208101906000818303910152613d88565b90565b15613dc257565b613dca610295565b62461bcd60e51b815280613de060048201613da2565b0390fd5b5190565b5190565b60007f496e76616c696420696e70757400000000000000000000000000000000000000910152565b613e21600d60209261184f565b613e2a81613dec565b0190565b613e449060208101906000818303910152613e14565b90565b15613e4e57565b613e56610295565b62461bcd60e51b815280613e6c60048201613e2e565b0390fd5b613e79906102aa565b6000198114613e885760010190565b611452565b9190613ea19060006020850194019061092d565b565b6001613eaf91016102aa565b90565b634e487b7160e01b600052603260045260246000fd5b90613ed282613de8565b811015613ee3576020809102010190565b613eb2565b90613ef282613de4565b811015613f03576020809102010190565b613eb2565b613f126080610403565b90565b91613f31613f2c613f2660a2613c06565b15610798565b613dbb565b613f5d613f3d83613de4565b613f57613f51613f4c85613de8565b6102aa565b916102aa565b14613e47565b613f67609f6108a2565b613f7a613f7382613e70565b609f6117c1565b613f8460016127fb565b94613fb0613f9260016127fb565b6000613faa613fa360a18790610db3565b8990610dff565b016117c1565b8185600091613ffd613feb613fe57f8ae0f3059eaa0cbae0475bef7ab7f2dab55c5f6cced1c27e49354b924c8345bc936107f8565b93610df3565b93613ff4610295565b91829182613e8d565b0390a361400a60006114f7565b955b8661402761402161401c88613de4565b6102aa565b916102aa565b101561412e576140a86141289161408f8561408960006140798b6140738f61406e906140688f61405b614060918490613ec8565b611a43565b9860a1610db3565b93613ee8565b611b69565b90610dff565b0191614084836108a2565b611513565b906117c1565b6140a261409d878b90613ec8565b611a43565b90611513565b96836140bd6140b8888490613ee8565b611b69565b6140d06140cb888590613ec8565b611a43565b9061410d6141076141017feec6aed161af16fc924ab5336ecdfc027ecb174fcc63766a4c39d993357f96ce956107f8565b92610df3565b926107f8565b92614116610295565b8061412081610377565b0390a4613ea3565b9561400c565b61418591965061419195945061418c935061417c906141776000969161416e60009361416561415b613f08565b9a60008c016118dc565b60208a016118ea565b604088016118f8565b6114f7565b606085016118f8565b60a0610814565b611c23565b565b9061419e9291613d4b565b565b6141b66142a0926141af61144d565b5082613896565b6141e46141cd826141c760996108a2565b90611468565b6141de670de0b6b3a76400006114a0565b906114d2565b6141ec61144d565b6141f461144d565b9361420c600061420660a08490610814565b0161084c565b61421f6142196000610915565b91610915565b146000146142a357505081925061429661426061424961429b94614243609b6108a2565b90611468565b61425a670de0b6b3a76400006114a0565b906114d2565b9161428f6142788661427260006114f7565b90611468565b614289670de0b6b3a76400006114a0565b906114d2565b945b61198a565b61198a565b61198a565b90565b6142ba60006142b460a08490610814565b0161084c565b6142cd6142c76001610915565b91610915565b1460001461434457505081925061429661430e6142f761429b946142f160006114f7565b90611468565b614308670de0b6b3a76400006114a0565b906114d2565b9161433d61432686614320609c6108a2565b90611468565b614337670de0b6b3a76400006114a0565b906114d2565b945b614291565b600061435761435d9260a0969496610814565b0161084c565b61437061436a6002610915565b91610915565b14614384575b61429b92916142969161433f565b925061429b91506142966143bc6143a58561439f609d6108a2565b90611468565b6143b6670de0b6b3a76400006114a0565b906114d2565b916143eb6143d4866143ce609e6108a2565b90611468565b6143e5670de0b6b3a76400006114a0565b906114d2565b949150919250614376565b906143ff61144d565b5061440a609f6108a2565b61441d61441682613e70565b609f6117c1565b91614482816144716144683361446361445a600161445560009461444c614442613f08565b9960008b016118dc565b602089016118ea565b6127fb565b604086016118f8565b6114f7565b606083016118f8565b61447d60a08690610814565b611c23565b6144ad61448f60016127fb565b60006144a76144a060a18890610db3565b3390610dff565b016117c1565b82903390916144fa6144e86144e27f8ae0f3059eaa0cbae0475bef7ab7f2dab55c5f6cced1c27e49354b924c8345bc936107f8565b93610df3565b936144f1610295565b91829182613e8d565b0390a3565b614531614519600061451360a08590610814565b0161087e565b61452b61452533610669565b91610669565b14613022565b61454982600061454360a08590610814565b01611b49565b6145886145767fd25f2a2f7fd00ffb5dfec6fbbe69ee2d8b4072671116f918b52f5c393b9b5fa6926107f8565b9261457f610295565b91829182613e8d565b0390a2565b61459e90614599614709565b61464a565b565b60207f6464726573730000000000000000000000000000000000000000000000000000917f4f776e61626c653a206e6577206f776e657220697320746865207a65726f206160008201520152565b6145fb602660409261184f565b614604816145a0565b0190565b61461e90602081019060008183039101526145ee565b90565b1561462857565b614630610295565b62461bcd60e51b81528061464660048201614608565b0390fd5b614679906146748161466d6146676146626000612f7c565b610669565b91610669565b1415614621565b614b53565b565b6146849061458d565b565b60007f4f776e61626c653a2063616c6c6572206973206e6f7420746865206f776e6572910152565b6146ba6020809261184f565b6146c381614686565b0190565b6146dd90602081019060008183039101526146ae565b90565b156146e757565b6146ef610295565b62461bcd60e51b815280614705600482016146c7565b0390fd5b61473361471461377c565b61472d614727614722614dca565b610669565b91610669565b146146e0565b565b61473f600261327f565b90565b60007f5265656e7472616e637947756172643a207265656e7472616e742063616c6c00910152565b614777601f60209261184f565b61478081614742565b0190565b61479a906020810190600081830391015261476a565b90565b156147a457565b6147ac610295565b62461bcd60e51b8152806147c260048201614784565b0390fd5b6147f36147d360656108a2565b6147ec6147e66147e1614735565b6102aa565b916102aa565b141561479d565b6148056147fe614735565b60656117c1565b565b61481160016127fb565b90565b61482661481f614807565b60656117c1565b565b61483190610de7565b90565b60007f416464726573733a20696e73756666696369656e742062616c616e6365000000910152565b614869601d60209261184f565b61487281614834565b0190565b61488c906020810190600081830391015261485c565b90565b1561489657565b61489e610295565b62461bcd60e51b8152806148b460048201614876565b0390fd5b905090565b6148c9600080926148b8565b0190565b6148d6906148bd565b90565b906148eb6148e683610418565b610403565b918252565b606090565b3d600014614912576149063d6148d9565b903d6000602084013e5b565b61491a6148f0565b90614910565b60207f6563697069656e74206d61792068617665207265766572746564000000000000917f416464726573733a20756e61626c6520746f2073656e642076616c75652c207260008201520152565b61497b603a60409261184f565b61498481614920565b0190565b61499e906020810190600081830391015261496e565b90565b156149a857565b6149b0610295565b62461bcd60e51b8152806149c660048201614988565b0390fd5b6000614a2692614a0082936149fb6149e130614828565b316149f46149ee866102aa565b916102aa565b101561488f565b612605565b90614a09610295565b9081614a14816148cd565b03925af1614a206148f5565b506149a1565b565b614a30612f5b565b503b614a45614a3f60006114f7565b916102aa565b1190565b60207f6e697469616c697a696e67000000000000000000000000000000000000000000917f496e697469616c697a61626c653a20636f6e7472616374206973206e6f74206960008201520152565b614aa4602b60409261184f565b614aad81614a49565b0190565b614ac79060208101906000818303910152614a97565b90565b15614ad157565b614ad9610295565b62461bcd60e51b815280614aef60048201614ab1565b0390fd5b614b05614b0060006122e7565b614aca565b614b0d614b0f565b565b614b17614e05565b565b614b21614af3565b565b614b35614b3060006122e7565b614aca565b614b3d614b3f565b565b614b47614e3f565b565b614b51614b23565b565b614b5d603361376f565b614b68826033612ee3565b90614b9c614b967f8be0079c531659141344cd1fd0a4f28419497f9722a3daafe3b4186f6b6457e093610df3565b91610df3565b91614ba5610295565b80614baf81610377565b0390a3565b600090565b90565b614bd0614bcb614bd592614bb9565b6107f5565b6102aa565b90565b60007f50616c3a20496e76616c6964207369676e6174757265206c656e677468000000910152565b614c0d601d60209261184f565b614c1681614bd8565b0190565b614c309060208101906000818303910152614c00565b90565b15614c3a57565b614c42610295565b62461bcd60e51b815280614c5860048201614c1a565b0390fd5b614c68614c6d9161082c565b6107f8565b90565b60007f50616c3a2046656520726174696f206f7574206f6620626f756e647300000000910152565b614ca5601c60209261184f565b614cae81614c70565b0190565b614cc89060208101906000818303910152614c98565b90565b15614cd257565b614cda610295565b62461bcd60e51b815280614cf060048201614cb2565b0390fd5b90614cfd61144d565b50614d06614bb4565b50614d2c614d138361399a565b614d26614d206060614bbc565b916102aa565b14614c33565b614d34614bb4565b50614d486040602084015193015192614c5c565b614d6d81614d66614d60670de0b6b3a76400006114a0565b916102aa565b1115614ccb565b9190565b614d79614bb4565b507f19457468657265756d205369676e6564204d6573736167653a0a333200000000600052601c52603c60002090565b614dc791614dbf91614db9613756565b50614e72565b91909161504b565b90565b614dd2613756565b503390565b614de9614de460006122e7565b614aca565b614df1614df3565b565b614e03614dfe614dca565b614b53565b565b614e0d614dd7565b565b614e21614e1c60006122e7565b614aca565b614e29614e2b565b565b614e3d614e36614807565b60656117c1565b565b614e47614e0f565b565b600090565b90565b614e65614e60614e6a92614e4e565b6107f5565b6102aa565b90565b600090565b614e7a613756565b50614e83614e49565b50614e8d8261399a565b614ea0614e9a6041614e51565b916102aa565b14600014614ee757614ee191614eb4614bb4565b50614ebd614bb4565b50614ec6614e6d565b5060208101516060604083015192015160001a9091926151ab565b91909190565b5050614ef36000612f7c565b90600290565b60051115614f0357565b6108f0565b90614f1282614ef9565b565b60207f7565000000000000000000000000000000000000000000000000000000000000917f45434453413a20696e76616c6964207369676e6174757265202773272076616c60008201520152565b614f6f602260409261184f565b614f7881614f14565b0190565b614f929060208101906000818303910152614f62565b90565b60007f45434453413a20696e76616c6964207369676e6174757265206c656e67746800910152565b614fca601f60209261184f565b614fd381614f95565b0190565b614fed9060208101906000818303910152614fbd565b90565b60007f45434453413a20696e76616c6964207369676e61747572650000000000000000910152565b615025601860209261184f565b61502e81614ff0565b0190565b6150489060208101906000818303910152615018565b90565b8061505f6150596000614f08565b91614f08565b1460001461506a5750565b8061507e6150786001614f08565b91614f08565b146000146150a85761508e610295565b62461bcd60e51b8152806150a460048201615032565b0390fd5b806150bc6150b66002614f08565b91614f08565b146000146150e6576150cc610295565b62461bcd60e51b8152806150e260048201614fd7565b0390fd5b6150f96150f36003614f08565b91614f08565b1461510057565b615108610295565b62461bcd60e51b81528061511e60048201614f7c565b0390fd5b90565b61513961513461513e92615122565b6107f5565b6102aa565b90565b61514a906139da565b9052565b6151579061231b565b9052565b6151916151989461518760609498979561517d608086019a6000870190615141565b602085019061514e565b6040830190615141565b0190615141565b565b6151a2610295565b3d6000823e3d90fd5b9291906151b6613756565b506151bf614e49565b506151c983614c5c565b6151fb6151f57f7fffffffffffffffffffffffffffffff5d576e7357a4501ddfe92f46681b20a0615125565b916102aa565b116152725761521c6000936020959293615213610295565b9485948561515b565b838052039060015afa1561526d576152356000516117a1565b8061525161524b6152466000612f7c565b610669565b91610669565b1461525c5790600090565b506152676000612f7c565b90600190565b61519a565b505050506152806000612f7c565b9060039056fea26469706673582212202fb966fd5e9c9e82c35f5ed476e7b6542d7a7cf5395e11a6b57f65a695b9b12c64736f6c63430008180033",
  "linkReferences": {},
  "deployedLinkReferences": {}
}